{
  "contractName": "AavePoolController",
  "abi": [
    {
      "constant": true,
      "inputs": [],
      "name": "getBalance",
      "outputs": [
        {
          "internalType": "uint256",
          "name": "",
          "type": "uint256"
        }
      ],
      "payable": false,
      "stateMutability": "view",
      "type": "function"
    }
  ],
  "bytecode": "0x61047d610026600b82828239805160001a60731461001957fe5b30600052607381538281f3fe73000000000000000000000000000000000000000030146080604052600436106100565760003560e01c806312065fe01461005b5780632e1a7d4d14610075578063845603a6146100a1578063853828b6146100d5575b600080fd5b6100636100fe565b60408051918252519081900360200190f35b81801561008157600080fd5b5061009f6004803603602081101561009857600080fd5b5035610185565b005b8180156100ad57600080fd5b5061009f600480360360408110156100c457600080fd5b508035906020013561ffff1661024f565b8180156100e157600080fd5b506100ea61033b565b604080519115158252519081900360200190f35b604080516370a0823160e01b81523060048201529051600091733a3a65aab0dd2a17e3f1947ba16138cd37d08c04916370a0823191602480820192602092909190829003018186803b15801561015357600080fd5b505afa158015610167573d6000803e3d6000fd5b505050506040513d602081101561017d57600080fd5b505190505b90565b600081116101da576040805162461bcd60e51b815260206004820152601e60248201527f416d6f756e74206d7573742062652067726561746572207468616e20302e0000604482015290519081900360640190fd5b733a3a65aab0dd2a17e3f1947ba16138cd37d08c046001600160a01b031663db006a75826040518263ffffffff1660e01b815260040180828152602001915050600060405180830381600087803b15801561023457600080fd5b505af1158015610248573d6000803e3d6000fd5b5050505050565b600082116102a4576040805162461bcd60e51b815260206004820152601e60248201527f416d6f756e74206d7573742062652067726561746572207468616e20302e0000604482015290519081900360640190fd5b60408051636968703360e11b815273eeeeeeeeeeeeeeeeeeeeeeeeeeeeeeeeeeeeeeee60048201526024810184905261ffff83166044820152905173398ec7346dcd622edc5ae82352f02be94c62d1199163d2d0e06691859160648082019260009290919082900301818588803b15801561031e57600080fd5b505af1158015610332573d6000803e3d6000fd5b50505050505050565b604080516370a0823160e01b815230600482015290516000918291733a3a65aab0dd2a17e3f1947ba16138cd37d08c04916370a08231916024808301926020929190829003018186803b15801561039157600080fd5b505afa1580156103a5573d6000803e3d6000fd5b505050506040513d60208110156103bb57600080fd5b50519050806103ce576000915050610182565b733a3a65aab0dd2a17e3f1947ba16138cd37d08c046001600160a01b031663db006a75826040518263ffffffff1660e01b815260040180828152602001915050600060405180830381600087803b15801561042857600080fd5b505af115801561043c573d6000803e3d6000fd5b5050505060019150509056fea265627a7a723158201a749f776adef9b0eb2a15acb6e1eee3aaacfef513ff5f2f173d25495dcd80b864736f6c63430005110032",
  "source": "/**\n * COPYRIGHT © 2020 RARI CAPITAL, INC. ALL RIGHTS RESERVED.\n * Anyone is free to integrate the public (i.e., non-administrative) application programming interfaces (APIs) of the official Ethereum smart contract instances deployed by Rari Capital, Inc. in any application (commercial or noncommercial and under any license), provided that the application does not abuse the APIs or act against the interests of Rari Capital, Inc.\n * Anyone is free to study, review, and analyze the source code contained in this package.\n * Reuse (including deployment of smart contracts other than private testing on a private network), modification, redistribution, or sublicensing of any source code contained in this package is not permitted without the explicit permission of David Lucid of Rari Capital, Inc.\n * No one is permitted to use the software for any purpose other than those allowed by this license.\n * This license is liable to change at any time at the sole discretion of David Lucid of Rari Capital, Inc.\n */\n\npragma solidity 0.5.17;\n\nimport \"@openzeppelin/contracts-ethereum-package/contracts/math/SafeMath.sol\";\nimport \"@openzeppelin/contracts-ethereum-package/contracts/token/ERC20/SafeERC20.sol\";\n\nimport \"../../external/aave/LendingPool.sol\";\nimport \"../../external/aave/AToken.sol\";\n\n/**\n * @title AavePoolController\n * @author David Lucid <david@rari.capital> (https://github.com/davidlucid)\n * @dev This library handles deposits to and withdrawals from Aave liquidity pools.\n */\nlibrary AavePoolController {\n    using SafeMath for uint256;\n    using SafeERC20 for IERC20;\n\n    /**\n     * @dev Aave LendingPool contract address.\n     */\n    address constant private LENDING_POOL_CONTRACT = 0x398eC7346DcD622eDc5ae82352F02bE94C62d119;\n\n    /**\n     * @dev Aave LendingPool contract object.\n     */\n    LendingPool constant private _lendingPool = LendingPool(LENDING_POOL_CONTRACT);\n\n    /**\n     * @dev Aave LendingPoolCore contract address.\n     */\n    address constant private LENDING_POOL_CORE_CONTRACT = 0x3dfd23A6c5E8BbcFc9581d2E864a68feb6a076d3;\n\n    /**\n     * @dev AETH contract address.\n     */\n    address constant private AETH_CONTRACT = 0x3a3A65aAb0dd2A17E3F1947bA16138cd37d08c04;\n\n    /**\n     * @dev AETH contract.\n     */\n    AToken constant private aETH = AToken(AETH_CONTRACT);\n\n    /**\n     * @dev Returns the fund's balance of the specified currency in the Aave pool.\n     */\n    function getBalance() external view returns (uint256) {\n        return aETH.balanceOf(address(this));\n    }\n\n    /**\n     * @dev Deposits funds to the Aave pool. Assumes that you have already approved >= the amount to Aave.\n     * @param amount The amount of tokens to be deposited.\n     * @param referralCode Referral code.\n     */\n    function deposit(uint256 amount, uint16 referralCode) external {\n        require(amount > 0, \"Amount must be greater than 0.\");\n        _lendingPool.deposit.value(amount)(0xEeeeeEeeeEeEeeEeEeEeeEEEeeeeEeeeeeeeEEeE, amount, referralCode);\n    }\n\n    /**\n     * @dev Withdraws funds from the Aave pool.\n     * @param amount The amount of tokens to be withdrawn.\n     */\n    function withdraw(uint256 amount) external {\n        require(amount > 0, \"Amount must be greater than 0.\");\n        aETH.redeem(amount);\n    }\n\n    /**\n     * @dev Withdraws all funds from the Aave pool.\n     * @return Boolean indicating success.\n     */\n    function withdrawAll() external returns (bool) {\n        uint256 balance = aETH.balanceOf(address(this));\n        if (balance <= 0) return false;\n        aETH.redeem(balance);\n        return true;\n    }\n}",
  "sourcePath": "/Users/richter/Projects/Cloud/rari-work/rari-eth-contracts/contracts/lib/pools/AavePoolController.sol",
  "compiler": {
    "name": "solc",
    "version": "0.5.17+commit.d19bba13.Emscripten.clang"
  },
  "schemaVersion": "3.2.3",
  "updatedAt": "2020-10-13T03:23:02.075Z",
  "networkType": "ethereum",
  "devdoc": {
    "author": "David Lucid <david@rari.capital> (https://github.com/davidlucid)",
    "details": "This library handles deposits to and withdrawals from Aave liquidity pools.",
    "methods": {
      "deposit(uint256,uint16)": {
        "details": "Deposits funds to the Aave pool. Assumes that you have already approved >= the amount to Aave.",
        "params": {
          "amount": "The amount of tokens to be deposited.",
          "referralCode": "Referral code."
        }
      },
      "getBalance()": {
        "details": "Returns the fund's balance of the specified currency in the Aave pool."
      },
      "withdraw(uint256)": {
        "details": "Withdraws funds from the Aave pool.",
        "params": {
          "amount": "The amount of tokens to be withdrawn."
        }
      },
      "withdrawAll()": {
        "details": "Withdraws all funds from the Aave pool.",
        "return": "Boolean indicating success."
      }
    },
    "title": "AavePoolController"
  },
  "userdoc": {
    "methods": {}
  }
}