{
  "contractName": "RariFundProxy",
  "abi": [
    {
      "inputs": [],
      "payable": false,
      "stateMutability": "nonpayable",
      "type": "constructor"
    },
    {
      "anonymous": false,
      "inputs": [
        {
          "indexed": false,
          "internalType": "address",
          "name": "newContract",
          "type": "address"
        }
      ],
      "name": "FundManagerSet",
      "type": "event"
    },
    {
      "anonymous": false,
      "inputs": [
        {
          "indexed": false,
          "internalType": "address",
          "name": "newAddress",
          "type": "address"
        }
      ],
      "name": "GsnTrustedSignerSet",
      "type": "event"
    },
    {
      "anonymous": false,
      "inputs": [
        {
          "indexed": true,
          "internalType": "address",
          "name": "previousOwner",
          "type": "address"
        },
        {
          "indexed": true,
          "internalType": "address",
          "name": "newOwner",
          "type": "address"
        }
      ],
      "name": "OwnershipTransferred",
      "type": "event"
    },
    {
      "anonymous": false,
      "inputs": [
        {
          "indexed": true,
          "internalType": "string",
          "name": "inputCurrencyCode",
          "type": "string"
        },
        {
          "indexed": true,
          "internalType": "address",
          "name": "outputErc20Contract",
          "type": "address"
        },
        {
          "indexed": true,
          "internalType": "address",
          "name": "payee",
          "type": "address"
        },
        {
          "indexed": false,
          "internalType": "uint256",
          "name": "withdrawalAmount",
          "type": "uint256"
        },
        {
          "indexed": false,
          "internalType": "uint256",
          "name": "takerAssetFilledAmount",
          "type": "uint256"
        }
      ],
      "name": "PostWithdrawalExchange",
      "type": "event"
    },
    {
      "anonymous": false,
      "inputs": [
        {
          "indexed": true,
          "internalType": "address",
          "name": "inputErc20Contract",
          "type": "address"
        },
        {
          "indexed": true,
          "internalType": "string",
          "name": "outputCurrencyCode",
          "type": "string"
        },
        {
          "indexed": true,
          "internalType": "address",
          "name": "payee",
          "type": "address"
        },
        {
          "indexed": false,
          "internalType": "uint256",
          "name": "makerAssetFilledAmount",
          "type": "uint256"
        },
        {
          "indexed": false,
          "internalType": "uint256",
          "name": "depositAmount",
          "type": "uint256"
        }
      ],
      "name": "PreDepositExchange",
      "type": "event"
    },
    {
      "anonymous": false,
      "inputs": [
        {
          "indexed": true,
          "internalType": "address",
          "name": "oldRelayHub",
          "type": "address"
        },
        {
          "indexed": true,
          "internalType": "address",
          "name": "newRelayHub",
          "type": "address"
        }
      ],
      "name": "RelayHubChanged",
      "type": "event"
    },
    {
      "payable": true,
      "stateMutability": "payable",
      "type": "fallback"
    },
    {
      "constant": true,
      "inputs": [],
      "name": "VERSION",
      "outputs": [
        {
          "internalType": "string",
          "name": "",
          "type": "string"
        }
      ],
      "payable": false,
      "stateMutability": "view",
      "type": "function"
    },
    {
      "constant": true,
      "inputs": [],
      "name": "getHubAddr",
      "outputs": [
        {
          "internalType": "address",
          "name": "",
          "type": "address"
        }
      ],
      "payable": false,
      "stateMutability": "view",
      "type": "function"
    },
    {
      "constant": true,
      "inputs": [],
      "name": "isOwner",
      "outputs": [
        {
          "internalType": "bool",
          "name": "",
          "type": "bool"
        }
      ],
      "payable": false,
      "stateMutability": "view",
      "type": "function"
    },
    {
      "constant": true,
      "inputs": [],
      "name": "owner",
      "outputs": [
        {
          "internalType": "address",
          "name": "",
          "type": "address"
        }
      ],
      "payable": false,
      "stateMutability": "view",
      "type": "function"
    },
    {
      "constant": false,
      "inputs": [
        {
          "internalType": "bytes",
          "name": "context",
          "type": "bytes"
        },
        {
          "internalType": "bool",
          "name": "success",
          "type": "bool"
        },
        {
          "internalType": "uint256",
          "name": "actualCharge",
          "type": "uint256"
        },
        {
          "internalType": "bytes32",
          "name": "preRetVal",
          "type": "bytes32"
        }
      ],
      "name": "postRelayedCall",
      "outputs": [],
      "payable": false,
      "stateMutability": "nonpayable",
      "type": "function"
    },
    {
      "constant": false,
      "inputs": [
        {
          "internalType": "bytes",
          "name": "context",
          "type": "bytes"
        }
      ],
      "name": "preRelayedCall",
      "outputs": [
        {
          "internalType": "bytes32",
          "name": "",
          "type": "bytes32"
        }
      ],
      "payable": false,
      "stateMutability": "nonpayable",
      "type": "function"
    },
    {
      "constant": true,
      "inputs": [],
      "name": "relayHubVersion",
      "outputs": [
        {
          "internalType": "string",
          "name": "",
          "type": "string"
        }
      ],
      "payable": false,
      "stateMutability": "view",
      "type": "function"
    },
    {
      "constant": false,
      "inputs": [],
      "name": "renounceOwnership",
      "outputs": [],
      "payable": false,
      "stateMutability": "nonpayable",
      "type": "function"
    },
    {
      "constant": false,
      "inputs": [
        {
          "internalType": "address",
          "name": "newOwner",
          "type": "address"
        }
      ],
      "name": "transferOwnership",
      "outputs": [],
      "payable": false,
      "stateMutability": "nonpayable",
      "type": "function"
    },
    {
      "constant": false,
      "inputs": [
        {
          "internalType": "address payable",
          "name": "newContract",
          "type": "address"
        }
      ],
      "name": "setFundManager",
      "outputs": [],
      "payable": false,
      "stateMutability": "nonpayable",
      "type": "function"
    },
    {
      "constant": false,
      "inputs": [
        {
          "internalType": "address",
          "name": "newAddress",
          "type": "address"
        }
      ],
      "name": "setGsnTrustedSigner",
      "outputs": [],
      "payable": false,
      "stateMutability": "nonpayable",
      "type": "function"
    },
    {
      "constant": false,
      "inputs": [],
      "name": "deposit",
      "outputs": [
        {
          "internalType": "bool",
          "name": "",
          "type": "bool"
        }
      ],
      "payable": true,
      "stateMutability": "payable",
      "type": "function"
    },
    {
      "constant": true,
      "inputs": [
        {
          "internalType": "address",
          "name": "relay",
          "type": "address"
        },
        {
          "internalType": "address",
          "name": "from",
          "type": "address"
        },
        {
          "internalType": "bytes",
          "name": "encodedFunction",
          "type": "bytes"
        },
        {
          "internalType": "uint256",
          "name": "transactionFee",
          "type": "uint256"
        },
        {
          "internalType": "uint256",
          "name": "gasPrice",
          "type": "uint256"
        },
        {
          "internalType": "uint256",
          "name": "gasLimit",
          "type": "uint256"
        },
        {
          "internalType": "uint256",
          "name": "nonce",
          "type": "uint256"
        },
        {
          "internalType": "bytes",
          "name": "approvalData",
          "type": "bytes"
        },
        {
          "internalType": "uint256",
          "name": "",
          "type": "uint256"
        }
      ],
      "name": "acceptRelayedCall",
      "outputs": [
        {
          "internalType": "uint256",
          "name": "",
          "type": "uint256"
        },
        {
          "internalType": "bytes",
          "name": "",
          "type": "bytes"
        }
      ],
      "payable": false,
      "stateMutability": "view",
      "type": "function"
    }
  ],
  "bytecode": "0x6080604052600180546001600160a01b03191673d216153c06e857cd7f72665e0af1d7d82172f49417905534801561003657600080fd5b50600061004a6001600160e01b0361009916565b600080546001600160a01b0319166001600160a01b0383169081178255604051929350917f8be0079c531659141344cd1fd0a4f28419497f9722a3daafe3b4186f6b6457e0908290a350610119565b6001546000906001600160a01b031633146100b55750336100c9565b6100c66001600160e01b036100cc16565b90505b90565b600060606000368080601f0160208091040260200160405190810160405280939291908181526020018383808284376000920191909152505050503601516001600160a01b031692915050565b611219806101286000396000f3fe6080604052600436106100c25760003560e01c80638da5cb5b1161007f578063d0e30db011610059578063d0e30db0146101f8578063e06e0e2214610200578063f2fde38b14610220578063ffa1ad7414610240576100c2565b80638da5cb5b1461019f5780638f32d59b146101b4578063ad61ccd5146101d6576100c2565b8063232a3060146100c45780634434ac3d146100e4578063715018a61461010457806374e861d61461011957806380274db71461014457806383947ea014610171575b005b3480156100d057600080fd5b506100c26100df366004610b34565b610255565b3480156100f057600080fd5b506100c26100ff366004610b34565b610434565b34801561011057600080fd5b506100c26104a3565b34801561012557600080fd5b5061012e610511565b60405161013b9190610fde565b60405180910390f35b34801561015057600080fd5b5061016461015f366004610c76565b610521565b60405161013b9190611045565b34801561017d57600080fd5b5061019161018c366004610b5a565b6105a3565b60405161013b9291906110e2565b3480156101ab57600080fd5b5061012e610699565b3480156101c057600080fd5b506101c96106a8565b60405161013b9190611037565b3480156101e257600080fd5b506101eb6106cc565b60405161013b9190611091565b6101c96106eb565b34801561020c57600080fd5b506100c261021b366004610cb8565b610799565b34801561022c57600080fd5b506100c261023b366004610b34565b61081c565b34801561024c57600080fd5b506101eb61084c565b61025d6106a8565b6102825760405162461bcd60e51b8152600401610279906110b2565b60405180910390fd5b6003546001600160a01b03161561032c5760035460405163095ea7b360e01b815273c02aaa39b223fe8d0a0e5c4f27ead9083c756cc29163095ea7b3916102d8916001600160a01b031690600090600401610ffa565b602060405180830381600087803b1580156102f257600080fd5b505af1158015610306573d6000803e3d6000fd5b505050506040513d601f19601f8201168201806040525061032a9190810190610c58565b505b6001600160a01b038116156103ca5760405163095ea7b360e01b815273c02aaa39b223fe8d0a0e5c4f27ead9083c756cc29063095ea7b3906103769084906000199060040161101c565b602060405180830381600087803b15801561039057600080fd5b505af11580156103a4573d6000803e3d6000fd5b505050506040513d601f19601f820116820180604052506103c89190810190610c58565b505b600380546001600160a01b038084166001600160a01b031992831617928390556004805490921692169190911790556040517ff980c1430e55b1867cd9337a1f20246ab3b7255032486d0b71c24e820eebf3ab90610429908390610fec565b60405180910390a150565b61043c6106a8565b6104585760405162461bcd60e51b8152600401610279906110b2565b600580546001600160a01b0319166001600160a01b0383161790556040517feb58b3605dc4b57dbf9dbd3db2d10cea4dd28005a4d8310f298e16d63b20476190610429908390610fde565b6104ab6106a8565b6104c75760405162461bcd60e51b8152600401610279906110b2565b600080546040516001600160a01b03909116907f8be0079c531659141344cd1fd0a4f28419497f9722a3daafe3b4186f6b6457e0908390a3600080546001600160a01b0319169055565b6001546001600160a01b03165b90565b600061052b610511565b6001600160a01b0316336001600160a01b03161461055b5760405162461bcd60e51b8152600401610279906110d2565b61059a83838080601f01602080910402602001604051908101604052809392919081815260200183838082843760009201919091525061086d92505050565b90505b92915050565b60006060808d8d8d8d8d8d8d8d6105b8610511565b306040516020016105d29a99989796959493929190610f23565b60408051601f198184030181526005546020601f8a018190048102850181019093528884529093506001600160a01b03169161063f918990899081908401838280828437600092019190915250508551602087012061063392509050610873565b9063ffffffff6108a316565b6001600160a01b03161461066157610657600061097f565b9250925050610689565b6005546001600160a01b031661067b57610657600161097f565b610683610997565b92509250505b9b509b9950505050505050505050565b6000546001600160a01b031690565b600080546001600160a01b03166106bd6109bb565b6001600160a01b031614905090565b6040805180820190915260058152640312e302e360dc1b602082015290565b600080341161070c5760405162461bcd60e51b8152600401610279906110c2565b6004546001600160a01b031663b760faf9346107266109bb565b6040518363ffffffff1660e01b81526004016107429190610fec565b6020604051808303818588803b15801561075b57600080fd5b505af115801561076f573d6000803e3d6000fd5b50505050506040513d601f19601f820116820180604052506107949190810190610c58565b905090565b6107a1610511565b6001600160a01b0316336001600160a01b0316146107d15760405162461bcd60e51b8152600401610279906110d2565b61081585858080601f0160208091040260200160405190810160405280939291908181526020018383808284376000920191909152508792508691508590506109e6565b5050505050565b6108246106a8565b6108405760405162461bcd60e51b8152600401610279906110b2565b610849816109ec565b50565b604051806040016040528060058152602001640312e302e360dc1b81525081565b50600090565b6000816040516020016108869190610fbe565b604051602081830303815290604052805190602001209050919050565b600081516041146108b65750600061059d565b60208201516040830151606084015160001a7f7fffffffffffffffffffffffffffffff5d576e7357a4501ddfe92f46681b20a08211156108fc576000935050505061059d565b8060ff16601b1415801561091457508060ff16601c14155b15610925576000935050505061059d565b600186828585604051600081526020016040526040516109489493929190611053565b6020604051602081039080840390855afa15801561096a573d6000803e3d6000fd5b5050604051601f190151979650505050505050565b604080516020810190915260008152600b9190910191565b600060606109b360405180602001604052806000815250610a6d565b915091509091565b6001546000906001600160a01b031633146109d757503361051e565b6109df610a72565b905061051e565b50505050565b6001600160a01b038116610a125760405162461bcd60e51b8152600401610279906110a2565b600080546040516001600160a01b03808516939216917f8be0079c531659141344cd1fd0a4f28419497f9722a3daafe3b4186f6b6457e091a3600080546001600160a01b0319166001600160a01b0392909216919091179055565b600091565b600060606000368080601f0160208091040260200160405190810160405280939291908181526020018383808284376000920191909152505050503601516001600160a01b031692915050565b803561059d816111b0565b803561059d816111c4565b805161059d816111c4565b803561059d816111cd565b60008083601f840112610afd57600080fd5b50813567ffffffffffffffff811115610b1557600080fd5b602083019150836001820283011115610b2d57600080fd5b9250929050565b600060208284031215610b4657600080fd5b6000610b528484610abf565b949350505050565b60008060008060008060008060008060006101208c8e031215610b7c57600080fd5b6000610b888e8e610abf565b9b50506020610b998e828f01610abf565b9a505060408c013567ffffffffffffffff811115610bb657600080fd5b610bc28e828f01610aeb565b99509950506060610bd58e828f01610ae0565b9750506080610be68e828f01610ae0565b96505060a0610bf78e828f01610ae0565b95505060c0610c088e828f01610ae0565b94505060e08c013567ffffffffffffffff811115610c2557600080fd5b610c318e828f01610aeb565b9350935050610100610c458e828f01610ae0565b9150509295989b509295989b9093969950565b600060208284031215610c6a57600080fd5b6000610b528484610ad5565b60008060208385031215610c8957600080fd5b823567ffffffffffffffff811115610ca057600080fd5b610cac85828601610aeb565b92509250509250929050565b600080600080600060808688031215610cd057600080fd5b853567ffffffffffffffff811115610ce757600080fd5b610cf388828901610aeb565b95509550506020610d0688828901610aca565b9350506040610d1788828901610ae0565b9250506060610d2888828901610ae0565b9150509295509295909350565b610d3e81611136565b82525050565b610d3e610d5082611114565b61118f565b610d3e81611114565b610d3e8161111f565b610d3e8161051e565b610d3e610d7c8261051e565b61051e565b6000610d8d838561110f565b9350610d9a838584611157565b50500190565b6000610dab82611102565b610db58185611106565b9350610dc5818560208601611163565b610dce816111a0565b9093019392505050565b610d3e81611141565b6000610dee601c8361110f565b7f19457468657265756d205369676e6564204d6573736167653a0a3332000000008152601c0192915050565b6000610e27602683611106565b7f4f776e61626c653a206e6577206f776e657220697320746865207a65726f206181526564647265737360d01b602082015260400192915050565b6000610e6f602083611106565b7f4f776e61626c653a2063616c6c6572206973206e6f7420746865206f776e6572815260200192915050565b6000610ea8601c83611106565b7f4d757374206465706f736974206d6f7265207468616e20302065746800000000815260200192915050565b6000610ee1602483611106565b7f47534e526563697069656e743a2063616c6c6572206973206e6f742052656c618152633ca43ab160e11b602082015260400192915050565b610d3e81611130565b6000610f2f828d610d44565b601482019150610f3f828c610d44565b601482019150610f50828a8c610d81565b9150610f5c8289610d70565b602082019150610f6c8288610d70565b602082019150610f7c8287610d70565b602082019150610f8c8286610d70565b602082019150610f9c8285610d44565b601482019150610fac8284610d44565b506014019a9950505050505050505050565b6000610fc982610de1565b9150610fd58284610d70565b50602001919050565b6020810161059d8284610d55565b6020810161059d8284610d35565b604081016110088285610d35565b6110156020830184610dd8565b9392505050565b6040810161102a8285610d35565b6110156020830184610d67565b6020810161059d8284610d5e565b6020810161059d8284610d67565b608081016110618287610d67565b61106e6020830186610f1a565b61107b6040830185610d67565b6110886060830184610d67565b95945050505050565b6020808252810161059a8184610da0565b6020808252810161059d81610e1a565b6020808252810161059d81610e62565b6020808252810161059d81610e9b565b6020808252810161059d81610ed4565b604081016110f08285610d67565b8181036020830152610b528184610da0565b5190565b90815260200190565b919050565b600061059d82611124565b151590565b6001600160a01b031690565b60ff1690565b600061059d8261114c565b600061059d8261051e565b600061059d82611114565b82818337506000910152565b60005b8381101561117e578181015183820152602001611166565b838111156109e65750506000910152565b600061059d82600061059d826111aa565b601f01601f191690565b60601b90565b6111b981611114565b811461084957600080fd5b6111b98161111f565b6111b98161051e56fea365627a7a723158206efbd472225d3bc5ebf2afc9bf1c9438147edb2882f81b7e6251685549d72a156c6578706572696d656e74616cf564736f6c63430005110040",
  "source": "/**\n * @file\n * @author David Lucid <david@rari.capital>\n *\n * @section LICENSE\n *\n * All rights reserved to David Lucid of David Lucid LLC.\n * Any disclosure, reproduction, distribution or other use of this code by any individual or entity other than David Lucid of David Lucid LLC, unless given explicit permission by David Lucid of David Lucid LLC, is prohibited.\n *\n * @section DESCRIPTION\n *\n * This file includes the Ethereum contract code for RariFundProxy, which faciliates pre-deposit exchanges and post-withdrawal exchanges.\n */\n\npragma solidity ^0.5.7;\npragma experimental ABIEncoderV2;\n\nimport \"@openzeppelin/contracts/math/SafeMath.sol\";\nimport \"@openzeppelin/contracts/drafts/SignedSafeMath.sol\";\nimport \"@openzeppelin/contracts/ownership/Ownable.sol\";\nimport \"@openzeppelin/contracts/token/ERC20/IERC20.sol\";\nimport \"@openzeppelin/contracts/token/ERC20/SafeERC20.sol\";\nimport \"@openzeppelin/contracts/token/ERC20/ERC20Detailed.sol\";\nimport \"@openzeppelin/contracts/GSN/GSNRecipient.sol\";\nimport \"@openzeppelin/contracts/cryptography/ECDSA.sol\";\n\nimport \"@0x/contracts-exchange-libs/contracts/src/LibOrder.sol\";\nimport \"@0x/contracts-erc20/contracts/src/interfaces/IEtherToken.sol\";\n\nimport \"./lib/exchanges/ZeroExExchangeController.sol\";\nimport \"./RariFundManager.sol\";\n\n/**\n * @title RariFundProxy\n * @dev This contract faciliates deposits to RariFundManager from exchanges and withdrawals from RariFundManager for exchanges.\n */\n\ncontract RariFundProxy is Ownable, GSNRecipient {\n    using SafeMath for uint256;\n    using SignedSafeMath for int256;\n    using ECDSA for bytes32;\n    using SafeERC20 for IERC20;\n\n    /**\n     * @notice Package version of `rari-eth-contracts` when this contract was deployed.\n     */\n    string public constant VERSION = \"1.0.0\";\n\n\n    /**\n     * @dev Maps ERC20 token contract addresses to supported currency codes.\n     */\n    mapping(string => address) private _erc20Contracts;\n\n    /**\n     * @dev Constructor that sets supported ERC20 token contract addresses.\n     */\n    constructor () public {\n\n    }\n\n    /**\n     * @dev Address of the RariFundManager.\n     */\n    address payable private _rariFundManagerContract;\n\n    /**\n     * @dev Contract of the RariFundManager.\n     */\n    RariFundManager private _rariFundManager;\n\n    /**\n     * @dev Address of the trusted GSN signer.\n     */\n    address private _gsnTrustedSigner;\n\n    /**\n     * @dev Emitted when the RariFundManager of the RariFundProxy is set.\n     */\n    event FundManagerSet(address newContract);\n\n\n    address constant private WETH_CONTRACT = 0xC02aaA39b223FE8D0A0e5C4F27eAD9083C756Cc2;\n    IEtherToken constant private _weth = IEtherToken(WETH_CONTRACT);\n\n\n    /**\n     * @dev Sets or upgrades the RariFundManager of the RariFundProxy.\n     * @param newContract The address of the new RariFundManager contract.\n     */\n    function setFundManager(address payable newContract) external onlyOwner {\n        // Approve maximum output tokens to RariFundManager for deposit\n        // see safeApprove in IERC20\n        if (_rariFundManagerContract != address(0)) _weth.approve(_rariFundManagerContract, 0);\n        if (newContract != address(0)) _weth.approve(newContract, uint256(-1));\n\n        _rariFundManagerContract = newContract;\n        _rariFundManager = RariFundManager(_rariFundManagerContract);\n        emit FundManagerSet(newContract);\n    }\n\n    \n\n    /**\n     * @dev Emitted when the trusted GSN signer of the RariFundProxy is set.\n     */\n    event GsnTrustedSignerSet(address newAddress);\n\n    /**\n     * @dev Sets or upgrades the trusted GSN signer of the RariFundProxy.\n     * @param newAddress The Ethereum address of the new trusted GSN signer.\n     */\n    function setGsnTrustedSigner(address newAddress) external onlyOwner {\n        _gsnTrustedSigner = newAddress;\n        emit GsnTrustedSignerSet(newAddress);\n    }\n\n    /**\n     * @dev Payable fallback function called by 0x exchange to refund unspent protocol fee.\n     */\n    function () external payable { }\n\n    /**\n     * @dev Emitted when funds have been exchanged before being deposited via RariFundManager.\n     * If exchanging from ETH, `inputErc20Contract` = address(0).\n     */\n    event PreDepositExchange(address indexed inputErc20Contract, string indexed outputCurrencyCode, address indexed payee, uint256 makerAssetFilledAmount, uint256 depositAmount);\n\n    /**\n     * @dev Emitted when funds have been exchanged after being withdrawn via RariFundManager.\n     * If exchanging from ETH, `outputErc20Contract` = address(0).\n     */\n    event PostWithdrawalExchange(string indexed inputCurrencyCode, address indexed outputErc20Contract, address indexed payee, uint256 withdrawalAmount, uint256 takerAssetFilledAmount);\n\n    /**\n     * @notice Exchanges and deposits funds to RariFund in exchange for REFT.\n     * You can retrieve orders from the 0x swap API (https://0x.org/docs/api#get-swapv0quote). See the web client for implementation.\n     * Please note that you must approve RariFundProxy to transfer at least `inputAmount`.\n     * You also must input at least enough ETH to cover the protocol fee (and enough to cover `orders` ).\n     * @dev We should be able to make this function external and use calldata for all parameters, but Solidity does not support calldata structs (https://github.com/ethereum/solidity/issues/5479).\n     * @param inputErc20Contract The ERC20 contract address of the token to be exchanged. Set to address(0) to input ETH.\n     * @param inputAmount The amount of tokens to be exchanged (including taker fees).\n     * @param orders The limit orders to be filled in ascending order of the price you pay.\n     * @param signatures The signatures for the orders.\n     * @param takerAssetFillAmount The amount of the taker asset to sell (excluding taker fees).\n     * @return Boolean indicating success.\n     (0, 1000, \"DAI\", ...)\n     \n    function exchangeAndDeposit(address inputErc20Contract, uint256 inputAmount, LibOrder.Order[] memory orders, bytes[] memory signatures, uint256 takerAssetFillAmount) public returns (bool) {\n        // Input validation\n        require(_rariFundManagerContract != address(0), \"Fund manager contract not set. This may be due to an upgrade of this proxy contract.\");\n        require(inputAmount > 0, \"Input amount must be greater than 0.\");\n        address outputErc20Contract = WETH_CONTRACT;\n        require(outputErc20Contract != address(0), \"Invalid output currency code.\");\n        require(orders.length > 0, \"Orders array is empty.\");\n        require(orders.length == signatures.length, \"Length of orders and signatures arrays must be equal.\");\n        require(takerAssetFillAmount > 0, \"Taker asset fill amount must be greater than 0.\");\n\n\n        // Transfer input tokens from msg.sender if not inputting ETH\n        IERC20(inputErc20Contract).safeTransferFrom(msg.sender, address(this), inputAmount); // The user must approve the transfer of tokens beforehand\n\n        if (inputErc20Contract == address(0)) {\n\n        }\n\n        if (inputErc20Contract == WETH_CONTRACT) {\n            // convert WETH to ETH\n            _weth.withdraw(inputAmount);\n            // Deposit ETH\n            require(_rariFundManager.depositTo.value(inputAmount)(msg.sender));\n\n            return true;\n        }\n\n\n        // Approve and exchange tokens\n        if (inputAmount > ZeroExExchangeController.allowance(inputErc20Contract)) ZeroExExchangeController.approve(inputErc20Contract, uint256(-1));\n\n        uint256[2] memory filledAmounts = ZeroExExchangeController.marketSellOrdersFillOrKill(orders, signatures, takerAssetFillAmount, inputErc20Contract == address(0) ? msg.value.sub(inputAmount) : msg.value);\n\n        if (inputErc20Contract == address(0)) {\n            // Unwrap unused ETH\n            uint256 wethBalance = _weth.balanceOf(address(this));\n            if (wethBalance > 0) _weth.withdraw(wethBalance);\n        } else {\n            // Refund unused input tokens\n            IERC20 inputToken = IERC20(inputErc20Contract);\n            uint256 inputTokenBalance = inputToken.balanceOf(address(this));\n            if (inputTokenBalance > 0) inputToken.safeTransfer(msg.sender, inputTokenBalance);\n        }\n\n        // Emit event\n        emit PreDepositExchange(inputErc20Contract, outputCurrencyCode, msg.sender, filledAmounts[0], filledAmounts[1]);\n\n        // Deposit output tokens\n        require(_rariFundManager.depositTo(msg.sender, filledAmounts[1]));\n\n        // Refund unused ETH\n        uint256 ethBalance = address(this).balance;\n        if (ethBalance > 0) msg.sender.transfer(ethBalance);\n\n        // Return true\n        return true;\n    }\n    */\n    /**\n     * @notice Exchanges and deposits funds to RariFund in exchange for RFT.\n     * You can retrieve orders from the 0x swap API (https://0x.org/docs/api#get-swapv0quote). See the web client for implementation.\n     * Please note that you must approve RariFundManager to burn of the necessary amount of RFT.\n     * You also must input at least enough ETH to cover the protocol fees.\n     * @dev We should be able to make this function external and use calldata for all parameters, but Solidity does not support calldata structs (https://github.com/ethereum/solidity/issues/5479).\n     * @param inputCurrencyCodes The currency codes of the tokens to be withdrawn and exchanged.\n     * @param inputAmounts The amounts of tokens to be withdrawn and exchanged (including taker fees).\n     * @param outputErc20Contract The ERC20 contract address of the token to be outputted by the exchange. Set to address(0) to output ETH.\n     * @param orders The limit orders to be filled in ascending order of the price you pay.\n     * @param signatures The signatures for the orders.\n     * @param makerAssetFillAmounts The amounts of the maker assets to buy.\n     * @param protocolFees The protocol fees to pay to 0x in ETH for each order.\n     * @return Boolean indicating success.\n     \n    function withdrawAndExchange(string[] memory inputCurrencyCodes, uint256[] memory inputAmounts, address outputErc20Contract, LibOrder.Order[][] memory orders, bytes[][] memory signatures, uint256[] memory makerAssetFillAmounts, uint256[] memory protocolFees) public payable returns (bool) {\n        // Input validation\n        require(_rariFundManagerContract != address(0), \"Fund manager contract not set. This may be due to an upgrade of this proxy contract.\");\n        require(inputCurrencyCodes.length == inputAmounts.length && inputCurrencyCodes.length == orders.length && inputCurrencyCodes.length == signatures.length && inputCurrencyCodes.length == makerAssetFillAmounts.length && inputCurrencyCodes.length == protocolFees.length, \"Array parameters are not all the same length.\");\n\n        // For each input currency\n        for (uint256 i = 0; i < inputCurrencyCodes.length; i++) {\n            require(inputAmounts[i] > 0, \"All input amounts must be greater than 0.\");\n\n            // Withdraw input tokens\n            require(_rariFundManager.withdrawFrom(msg.sender, inputCurrencyCodes[i], inputAmounts[i]));\n\n            if (orders[i].length > 0 && signatures[i].length > 0 && makerAssetFillAmounts[i] > 0) {\n                // Input validation\n                require(orders.length == signatures.length, \"Length of all orders and signatures arrays must be equal.\");\n\n                // Exchange tokens and emit event\n                uint256[2] memory filledAmounts = ZeroExExchangeController.marketBuyOrdersFillOrKill(orders[i], signatures[i], makerAssetFillAmounts[i], protocolFees[i]);\n                emit PostWithdrawalExchange(inputCurrencyCodes[i], outputErc20Contract, msg.sender, inputAmounts[i], filledAmounts[1]);\n            }\n        }\n\n        if (outputErc20Contract == address(0)) {\n            // Unwrap WETH if output currency is ETH\n            uint256 wethBalance = _weth.balanceOf(address(this));\n            _weth.withdraw(wethBalance);\n        } else {\n            // Forward tokens if output currency is a token\n            IERC20 outputToken = IERC20(outputErc20Contract);\n            uint256 outputTokenBalance = outputToken.balanceOf(address(this));\n            if (outputTokenBalance > 0) outputToken.safeTransfer(msg.sender, outputTokenBalance);\n        }\n\n        // Forward all ETH\n        uint256 ethBalance = address(this).balance;\n        if (ethBalance > 0) msg.sender.transfer(ethBalance);\n\n        // Return true\n        return true;\n    }\n    */\n    \n    /**\n     * @notice Deposits funds to RariFund in exchange for REFT (with GSN support).\n     * You may only deposit ETH.\n     * Please note that you must approve RariFundProxy to transfer at least `amount`.\n     * @return Boolean indicating success.\n     */\n    function deposit() payable external returns (bool) {\n        require(msg.value > 0, \"Must deposit more than 0 eth\");\n        return _rariFundManager.depositTo.value(msg.value)(_msgSender());\n    }\n\n    /**\n     * @dev Ensures that only transactions with a trusted signature can be relayed through the GSN.\n     */\n    function acceptRelayedCall(\n        address relay,\n        address from,\n        bytes calldata encodedFunction,\n        uint256 transactionFee,\n        uint256 gasPrice,\n        uint256 gasLimit,\n        uint256 nonce,\n        bytes calldata approvalData,\n        uint256\n    ) external view returns (uint256, bytes memory) {\n        bytes memory blob = abi.encodePacked(\n            relay,\n            from,\n            encodedFunction,\n            transactionFee,\n            gasPrice,\n            gasLimit,\n            nonce, // Prevents replays on RelayHub\n            getHubAddr(), // Prevents replays in multiple RelayHubs\n            address(this) // Prevents replays in multiple recipients\n        );\n        if (keccak256(blob).toEthSignedMessageHash().recover(approvalData) != _gsnTrustedSigner) return _rejectRelayedCall(0);\n        if (_gsnTrustedSigner == address(0)) return _rejectRelayedCall(1);\n        return _approveRelayedCall();\n    }\n\n    /**\n     * @dev Code executed before processing a call relayed through the GSN.\n     */\n    function _preRelayedCall(bytes memory) internal returns (bytes32) {\n        // solhint-disable-previous-line no-empty-blocks\n    }\n\n    /**\n     * @dev Code executed after processing a call relayed through the GSN.\n     */\n    function _postRelayedCall(bytes memory, bool, uint256, bytes32) internal {\n        // solhint-disable-previous-line no-empty-blocks\n    }\n}\n",
  "sourcePath": "/Users/richter/Projects/Cloud/rari-work/rari-eth-contracts/contracts/RariFundProxy.sol",
  "compiler": {
    "name": "solc",
    "version": "0.5.17+commit.d19bba13.Emscripten.clang"
  },
  "schemaVersion": "3.2.3",
  "updatedAt": "2020-09-19T16:30:04.585Z",
  "devdoc": {
    "details": "This contract faciliates deposits to RariFundManager from exchanges and withdrawals from RariFundManager for exchanges.",
    "methods": {
      "acceptRelayedCall(address,address,bytes,uint256,uint256,uint256,uint256,bytes,uint256)": {
        "details": "Ensures that only transactions with a trusted signature can be relayed through the GSN."
      },
      "constructor": {
        "details": "Constructor that sets supported ERC20 token contract addresses."
      },
      "deposit()": {
        "return": "Boolean indicating success."
      },
      "getHubAddr()": {
        "details": "Returns the address of the {IRelayHub} contract for this recipient."
      },
      "isOwner()": {
        "details": "Returns true if the caller is the current owner."
      },
      "owner()": {
        "details": "Returns the address of the current owner."
      },
      "postRelayedCall(bytes,bool,uint256,bytes32)": {
        "details": "See `IRelayRecipient.postRelayedCall`.     * This function should not be overriden directly, use `_postRelayedCall` instead.     * * Requirements:     * - the caller must be the `RelayHub` contract."
      },
      "preRelayedCall(bytes)": {
        "details": "See `IRelayRecipient.preRelayedCall`.     * This function should not be overriden directly, use `_preRelayedCall` instead.     * * Requirements:     * - the caller must be the `RelayHub` contract."
      },
      "relayHubVersion()": {
        "details": "Returns the version string of the {IRelayHub} for which this recipient implementation was built. If {_upgradeRelayHub} is used, the new {IRelayHub} instance should be compatible with this version."
      },
      "renounceOwnership()": {
        "details": "Leaves the contract without owner. It will not be possible to call `onlyOwner` functions anymore. Can only be called by the current owner.     * NOTE: Renouncing ownership will leave the contract without an owner, thereby removing any functionality that is only available to the owner."
      },
      "setFundManager(address)": {
        "details": "Sets or upgrades the RariFundManager of the RariFundProxy.",
        "params": {
          "newContract": "The address of the new RariFundManager contract."
        }
      },
      "setGsnTrustedSigner(address)": {
        "details": "Sets or upgrades the trusted GSN signer of the RariFundProxy.",
        "params": {
          "newAddress": "The Ethereum address of the new trusted GSN signer."
        }
      },
      "transferOwnership(address)": {
        "details": "Transfers ownership of the contract to a new account (`newOwner`). Can only be called by the current owner."
      }
    },
    "title": "RariFundProxy"
  },
  "userdoc": {
    "methods": {
      "deposit()": {
        "notice": "Deposits funds to RariFund in exchange for REFT (with GSN support). You may only deposit ETH. Please note that you must approve RariFundProxy to transfer at least `amount`."
      }
    }
  }
}