{
  "contractName": "RariFundManager",
  "abi": [
    {
      "anonymous": false,
      "inputs": [
        {
          "indexed": true,
          "internalType": "address",
          "name": "sender",
          "type": "address"
        },
        {
          "indexed": true,
          "internalType": "address",
          "name": "payee",
          "type": "address"
        },
        {
          "indexed": false,
          "internalType": "uint256",
          "name": "amount",
          "type": "uint256"
        },
        {
          "indexed": false,
          "internalType": "uint256",
          "name": "reptMinted",
          "type": "uint256"
        }
      ],
      "name": "Deposit",
      "type": "event"
    },
    {
      "anonymous": false,
      "inputs": [
        {
          "indexed": false,
          "internalType": "address",
          "name": "newContract",
          "type": "address"
        }
      ],
      "name": "FundControllerSet",
      "type": "event"
    },
    {
      "anonymous": false,
      "inputs": [],
      "name": "FundDisabled",
      "type": "event"
    },
    {
      "anonymous": false,
      "inputs": [],
      "name": "FundEnabled",
      "type": "event"
    },
    {
      "anonymous": false,
      "inputs": [
        {
          "indexed": false,
          "internalType": "address",
          "name": "newContract",
          "type": "address"
        }
      ],
      "name": "FundManagerUpgraded",
      "type": "event"
    },
    {
      "anonymous": false,
      "inputs": [
        {
          "indexed": false,
          "internalType": "address",
          "name": "newContract",
          "type": "address"
        }
      ],
      "name": "FundProxySet",
      "type": "event"
    },
    {
      "anonymous": false,
      "inputs": [
        {
          "indexed": false,
          "internalType": "address",
          "name": "newAddress",
          "type": "address"
        }
      ],
      "name": "FundRebalancerSet",
      "type": "event"
    },
    {
      "anonymous": false,
      "inputs": [
        {
          "indexed": false,
          "internalType": "address",
          "name": "newContract",
          "type": "address"
        }
      ],
      "name": "FundTokenSet",
      "type": "event"
    },
    {
      "anonymous": false,
      "inputs": [
        {
          "indexed": false,
          "internalType": "address",
          "name": "beneficiary",
          "type": "address"
        },
        {
          "indexed": false,
          "internalType": "uint256",
          "name": "amount",
          "type": "uint256"
        }
      ],
      "name": "InterestFeeDeposit",
      "type": "event"
    },
    {
      "anonymous": false,
      "inputs": [
        {
          "indexed": false,
          "internalType": "address",
          "name": "beneficiary",
          "type": "address"
        },
        {
          "indexed": false,
          "internalType": "uint256",
          "name": "amountEth",
          "type": "uint256"
        }
      ],
      "name": "InterestFeeWithdrawal",
      "type": "event"
    },
    {
      "anonymous": false,
      "inputs": [
        {
          "indexed": true,
          "internalType": "address",
          "name": "previousOwner",
          "type": "address"
        },
        {
          "indexed": true,
          "internalType": "address",
          "name": "newOwner",
          "type": "address"
        }
      ],
      "name": "OwnershipTransferred",
      "type": "event"
    },
    {
      "anonymous": false,
      "inputs": [
        {
          "indexed": true,
          "internalType": "address",
          "name": "sender",
          "type": "address"
        },
        {
          "indexed": true,
          "internalType": "address",
          "name": "payee",
          "type": "address"
        },
        {
          "indexed": false,
          "internalType": "uint256",
          "name": "amount",
          "type": "uint256"
        },
        {
          "indexed": false,
          "internalType": "uint256",
          "name": "reptBurned",
          "type": "uint256"
        }
      ],
      "name": "Withdrawal",
      "type": "event"
    },
    {
      "payable": true,
      "stateMutability": "payable",
      "type": "fallback"
    },
    {
      "constant": true,
      "inputs": [],
      "name": "isOwner",
      "outputs": [
        {
          "internalType": "bool",
          "name": "",
          "type": "bool"
        }
      ],
      "payable": false,
      "stateMutability": "view",
      "type": "function"
    },
    {
      "constant": true,
      "inputs": [],
      "name": "owner",
      "outputs": [
        {
          "internalType": "address",
          "name": "",
          "type": "address"
        }
      ],
      "payable": false,
      "stateMutability": "view",
      "type": "function"
    },
    {
      "constant": false,
      "inputs": [],
      "name": "renounceOwnership",
      "outputs": [],
      "payable": false,
      "stateMutability": "nonpayable",
      "type": "function"
    },
    {
      "constant": false,
      "inputs": [
        {
          "internalType": "address",
          "name": "newOwner",
          "type": "address"
        }
      ],
      "name": "transferOwnership",
      "outputs": [],
      "payable": false,
      "stateMutability": "nonpayable",
      "type": "function"
    },
    {
      "constant": false,
      "inputs": [],
      "name": "initialize",
      "outputs": [],
      "payable": false,
      "stateMutability": "nonpayable",
      "type": "function"
    },
    {
      "constant": false,
      "inputs": [
        {
          "internalType": "address",
          "name": "sender",
          "type": "address"
        }
      ],
      "name": "initialize",
      "outputs": [],
      "payable": false,
      "stateMutability": "nonpayable",
      "type": "function"
    },
    {
      "constant": false,
      "inputs": [
        {
          "internalType": "address payable",
          "name": "newContract",
          "type": "address"
        }
      ],
      "name": "upgradeFundManager",
      "outputs": [],
      "payable": false,
      "stateMutability": "nonpayable",
      "type": "function"
    },
    {
      "constant": false,
      "inputs": [
        {
          "internalType": "address payable",
          "name": "authorizedFundManagerDataSource",
          "type": "address"
        }
      ],
      "name": "authorizeFundManagerDataSource",
      "outputs": [],
      "payable": false,
      "stateMutability": "nonpayable",
      "type": "function"
    },
    {
      "constant": false,
      "inputs": [
        {
          "components": [
            {
              "internalType": "int256",
              "name": "netDeposits",
              "type": "int256"
            },
            {
              "internalType": "int256",
              "name": "rawInterestAccruedAtLastFeeRateChange",
              "type": "int256"
            },
            {
              "internalType": "int256",
              "name": "interestFeesGeneratedAtLastFeeRateChange",
              "type": "int256"
            },
            {
              "internalType": "uint256",
              "name": "interestFeesClaimed",
              "type": "uint256"
            }
          ],
          "internalType": "struct RariFundManager.FundManagerData",
          "name": "data",
          "type": "tuple"
        }
      ],
      "name": "setFundManagerData",
      "outputs": [],
      "payable": false,
      "stateMutability": "nonpayable",
      "type": "function"
    },
    {
      "constant": false,
      "inputs": [
        {
          "internalType": "address payable",
          "name": "newContract",
          "type": "address"
        }
      ],
      "name": "setFundController",
      "outputs": [],
      "payable": false,
      "stateMutability": "nonpayable",
      "type": "function"
    },
    {
      "constant": false,
      "inputs": [
        {
          "internalType": "address",
          "name": "newContract",
          "type": "address"
        }
      ],
      "name": "setFundToken",
      "outputs": [],
      "payable": false,
      "stateMutability": "nonpayable",
      "type": "function"
    },
    {
      "constant": false,
      "inputs": [
        {
          "internalType": "address",
          "name": "newContract",
          "type": "address"
        }
      ],
      "name": "setFundProxy",
      "outputs": [],
      "payable": false,
      "stateMutability": "nonpayable",
      "type": "function"
    },
    {
      "constant": false,
      "inputs": [
        {
          "internalType": "address",
          "name": "newAddress",
          "type": "address"
        }
      ],
      "name": "setFundRebalancer",
      "outputs": [],
      "payable": false,
      "stateMutability": "nonpayable",
      "type": "function"
    },
    {
      "constant": false,
      "inputs": [],
      "name": "disableFund",
      "outputs": [],
      "payable": false,
      "stateMutability": "nonpayable",
      "type": "function"
    },
    {
      "constant": false,
      "inputs": [],
      "name": "enableFund",
      "outputs": [],
      "payable": false,
      "stateMutability": "nonpayable",
      "type": "function"
    },
    {
      "constant": false,
      "inputs": [],
      "name": "getRawFundBalance",
      "outputs": [
        {
          "internalType": "uint256",
          "name": "",
          "type": "uint256"
        }
      ],
      "payable": false,
      "stateMutability": "nonpayable",
      "type": "function"
    },
    {
      "constant": false,
      "inputs": [],
      "name": "getFundBalance",
      "outputs": [
        {
          "internalType": "uint256",
          "name": "",
          "type": "uint256"
        }
      ],
      "payable": false,
      "stateMutability": "nonpayable",
      "type": "function"
    },
    {
      "constant": false,
      "inputs": [
        {
          "internalType": "address",
          "name": "account",
          "type": "address"
        }
      ],
      "name": "balanceOf",
      "outputs": [
        {
          "internalType": "uint256",
          "name": "",
          "type": "uint256"
        }
      ],
      "payable": false,
      "stateMutability": "nonpayable",
      "type": "function"
    },
    {
      "constant": false,
      "inputs": [
        {
          "internalType": "uint256",
          "name": "limitEth",
          "type": "uint256"
        }
      ],
      "name": "setDefaultAccountBalanceLimit",
      "outputs": [],
      "payable": false,
      "stateMutability": "nonpayable",
      "type": "function"
    },
    {
      "constant": false,
      "inputs": [
        {
          "internalType": "address",
          "name": "account",
          "type": "address"
        },
        {
          "internalType": "int256",
          "name": "limitEth",
          "type": "int256"
        }
      ],
      "name": "setIndividualAccountBalanceLimit",
      "outputs": [],
      "payable": false,
      "stateMutability": "nonpayable",
      "type": "function"
    },
    {
      "constant": false,
      "inputs": [],
      "name": "deposit",
      "outputs": [
        {
          "internalType": "bool",
          "name": "",
          "type": "bool"
        }
      ],
      "payable": true,
      "stateMutability": "payable",
      "type": "function"
    },
    {
      "constant": false,
      "inputs": [
        {
          "internalType": "address",
          "name": "to",
          "type": "address"
        }
      ],
      "name": "depositTo",
      "outputs": [
        {
          "internalType": "bool",
          "name": "",
          "type": "bool"
        }
      ],
      "payable": true,
      "stateMutability": "payable",
      "type": "function"
    },
    {
      "constant": false,
      "inputs": [
        {
          "internalType": "uint256",
          "name": "amount",
          "type": "uint256"
        }
      ],
      "name": "withdraw",
      "outputs": [
        {
          "internalType": "bool",
          "name": "",
          "type": "bool"
        }
      ],
      "payable": false,
      "stateMutability": "nonpayable",
      "type": "function"
    },
    {
      "constant": false,
      "inputs": [
        {
          "internalType": "address",
          "name": "from",
          "type": "address"
        },
        {
          "internalType": "uint256",
          "name": "amount",
          "type": "uint256"
        }
      ],
      "name": "withdrawFrom",
      "outputs": [
        {
          "internalType": "bool",
          "name": "",
          "type": "bool"
        }
      ],
      "payable": false,
      "stateMutability": "nonpayable",
      "type": "function"
    },
    {
      "constant": false,
      "inputs": [],
      "name": "getRawInterestAccrued",
      "outputs": [
        {
          "internalType": "int256",
          "name": "",
          "type": "int256"
        }
      ],
      "payable": false,
      "stateMutability": "nonpayable",
      "type": "function"
    },
    {
      "constant": false,
      "inputs": [],
      "name": "getInterestAccrued",
      "outputs": [
        {
          "internalType": "int256",
          "name": "",
          "type": "int256"
        }
      ],
      "payable": false,
      "stateMutability": "nonpayable",
      "type": "function"
    },
    {
      "constant": true,
      "inputs": [],
      "name": "getInterestFeeRate",
      "outputs": [
        {
          "internalType": "uint256",
          "name": "",
          "type": "uint256"
        }
      ],
      "payable": false,
      "stateMutability": "view",
      "type": "function"
    },
    {
      "constant": false,
      "inputs": [
        {
          "internalType": "uint256",
          "name": "rate",
          "type": "uint256"
        }
      ],
      "name": "setInterestFeeRate",
      "outputs": [],
      "payable": false,
      "stateMutability": "nonpayable",
      "type": "function"
    },
    {
      "constant": false,
      "inputs": [],
      "name": "getInterestFeesGenerated",
      "outputs": [
        {
          "internalType": "int256",
          "name": "",
          "type": "int256"
        }
      ],
      "payable": false,
      "stateMutability": "nonpayable",
      "type": "function"
    },
    {
      "constant": false,
      "inputs": [],
      "name": "getInterestFeesUnclaimed",
      "outputs": [
        {
          "internalType": "uint256",
          "name": "",
          "type": "uint256"
        }
      ],
      "payable": false,
      "stateMutability": "nonpayable",
      "type": "function"
    },
    {
      "constant": false,
      "inputs": [
        {
          "internalType": "address payable",
          "name": "beneficiary",
          "type": "address"
        }
      ],
      "name": "setInterestFeeMasterBeneficiary",
      "outputs": [],
      "payable": false,
      "stateMutability": "nonpayable",
      "type": "function"
    },
    {
      "constant": false,
      "inputs": [],
      "name": "depositFees",
      "outputs": [
        {
          "internalType": "bool",
          "name": "",
          "type": "bool"
        }
      ],
      "payable": false,
      "stateMutability": "nonpayable",
      "type": "function"
    },
    {
      "constant": false,
      "inputs": [],
      "name": "withdrawFees",
      "outputs": [
        {
          "internalType": "bool",
          "name": "",
          "type": "bool"
        }
      ],
      "payable": false,
      "stateMutability": "nonpayable",
      "type": "function"
    }
  ],
  "bytecode": "0x608060405261364c806100136000396000f3fe6080604052600436106101ee5760003560e01c8063870b5b381161010d578063c6d67b14116100a0578063d80621dc1161006f578063d80621dc14610546578063dae9e37914610566578063f2fde38b1461057b578063f3b433861461059b578063f5491019146105b0576101ee565b8063c6d67b14146104ff578063cca7bb2614610514578063d0e30db014610529578063d6164d6614610531576101ee565b80639d7a42ba116100dc5780639d7a42ba1461048c578063a9065581146104ac578063b760faf9146104cc578063c4d66de8146104df576101ee565b8063870b5b38146104155780638da5cb5b146104355780638f32d59b146104575780639470b0bd1461046c576101ee565b80635cb097ac11610185578063715018a611610154578063715018a6146103ab578063786d4bb3146103c05780637d379a48146103e05780638129fc1c14610400576101ee565b80635cb097ac1461034157806365df291814610361578063676b7e851461037657806370a082311461038b576101ee565b8063308ee9e0116101c1578063308ee9e0146102cc578063476343ee146102ec578063491ce4d014610301578063516e991714610321576101ee565b806301b521d61461023f57806303776d471461026a57806326741e7d1461028a5780632e1a7d4d146102ac575b600034116102175760405162461bcd60e51b815260040161020e906132cd565b60405180910390fd5b61022133346105c5565b61023d5760405162461bcd60e51b815260040161020e9061347d565b005b34801561024b57600080fd5b5061025461087c565b604051610261919061329e565b60405180910390f35b34801561027657600080fd5b5061023d6102853660046127e2565b61089d565b34801561029657600080fd5b5061029f61092c565b6040516102619190613290565b3480156102b857600080fd5b5061029f6102c7366004612876565b6109ce565b3480156102d857600080fd5b5061023d6102e73660046127e2565b6109ff565b3480156102f857600080fd5b5061029f610a9e565b34801561030d57600080fd5b5061023d61031c3660046127e2565b610c65565b34801561032d57600080fd5b5061023d61033c3660046127e2565b610ce8565b34801561034d57600080fd5b5061023d61035c366004612858565b610eb1565b34801561036d57600080fd5b5061023d610f8c565b34801561038257600080fd5b50610254611007565b34801561039757600080fd5b506102546103a63660046127e2565b61107d565b3480156103b757600080fd5b5061023d6111c6565b3480156103cc57600080fd5b5061023d6103db366004612800565b611234565b3480156103ec57600080fd5b5061023d6103fb366004612876565b611274565b34801561040c57600080fd5b5061023d611329565b34801561042157600080fd5b5061023d6104303660046127e2565b6113e3565b34801561044157600080fd5b5061044a611452565b604051610261919061324b565b34801561046357600080fd5b5061029f611461565b34801561047857600080fd5b5061029f610487366004612800565b611487565b34801561049857600080fd5b5061023d6104a7366004612876565b6114e3565b3480156104b857600080fd5b5061023d6104c73660046127e2565b61150c565b61029f6104da3660046127e2565b61157b565b3480156104eb57600080fd5b5061023d6104fa3660046127e2565b6115a3565b34801561050b57600080fd5b50610254611675565b34801561052057600080fd5b50610254611697565b61029f6116c1565b34801561053d57600080fd5b506102546116ef565b34801561055257600080fd5b5061023d6105613660046127e2565b6116f5565b34801561057257600080fd5b5061025461173b565b34801561058757600080fd5b5061023d6105963660046127e2565b611787565b3480156105a757600080fd5b5061023d6117b4565b3480156105bc57600080fd5b50610254611833565b60665460009060ff16156105eb5760405162461bcd60e51b815260040161020e906133ad565b6000821161060b5760405162461bcd60e51b815260040161020e9061330d565b606954604080516318160ddd60e01b815290516000926001600160a01b0316916318160ddd916004808301926020929190829003018186803b15801561065057600080fd5b505afa158015610664573d6000803e3d6000fd5b505050506040513d601f19601f820116820180604052506106889190810190612894565b9050600080821161069a5760006106a2565b6106a261173b565b9050600082158015906106b55750600082115b156106e1576106da826106ce878663ffffffff61189616565b9063ffffffff6118d716565b90506106e4565b50835b600081116107045760405162461bcd60e51b815260040161020e906133ed565b61071086868585611919565b61072c5760405162461bcd60e51b815260040161020e906134ad565b60725461073f908663ffffffff611aaa16565b6072556066546040516101009091046001600160a01b0316906108fc8715029087906000818181858888f19350505050158015610780573d6000803e3d6000fd5b506069546040516340c10f1960e01b81526001600160a01b03909116906340c10f19906107b39089908590600401613282565b602060405180830381600087803b1580156107cd57600080fd5b505af11580156107e1573d6000803e3d6000fd5b505050506040513d601f19601f82011682018060405250610805919081019061283a565b6108215760405162461bcd60e51b815260040161020e9061336d565b856001600160a01b0316336001600160a01b03167fdcbc1c05240f31ff3ad067ef1ee35ce4997762752e3a095284754544f4c709d787846040516108669291906134cb565b60405180910390a3600193505050505b92915050565b600061089860725461088c61173b565b9063ffffffff611af016565b905090565b60665460ff16156108c05760405162461bcd60e51b815260040161020e906133ad565b6108c8611461565b6108e45760405162461bcd60e51b815260040161020e906133bd565b6001600160a01b03811661090a5760405162461bcd60e51b815260040161020e906133fd565b607780546001600160a01b0319166001600160a01b0392909216919091179055565b606b546000906001600160a01b031633146109595760405162461bcd60e51b815260040161020e906132bd565b6000610963611b36565b905060ff8116801590600214610991576040518060600160405280602381526020016135af602391396109ab565b6040518060600160405280603881526020016135d2603891395b906109c95760405162461bcd60e51b815260040161020e91906132ac565b505090565b60006109da3383611e07565b6109f65760405162461bcd60e51b815260040161020e9061333d565b5060015b919050565b610a07611461565b610a235760405162461bcd60e51b815260040161020e906133bd565b606680546001600160a01b03808416610100908102610100600160a81b03199093169290921792839055606780546001600160a01b03191692909304161790556040517fd545a79667dd5d91e91b5b3e5179968d1a0ab745039f0a8cbf4c40f420d86c4790610a93908390613259565b60405180910390a150565b60665460009060ff1615610ac45760405162461bcd60e51b815260040161020e906133ad565b606b546001600160a01b03163314610aee5760405162461bcd60e51b815260040161020e906132bd565b6077546001600160a01b0316610b165760405162461bcd60e51b815260040161020e906133fd565b6000610b20611697565b905060008111610b425760405162461bcd60e51b815260040161020e9061337d565b607654610b55908263ffffffff61217b16565b607655606754604051639b53ff4960e01b81526001600160a01b0390911690639b53ff4990610b8890849060040161329e565b602060405180830381600087803b158015610ba257600080fd5b505af1158015610bb6573d6000803e3d6000fd5b505050506040513d601f19601f82011682018060405250610bda919081019061283a565b506077546040516001600160a01b039091169082156108fc029083906000818181858888f19350505050158015610c15573d6000803e3d6000fd5b506077546040517f8ba83cd119df0431786efd6aa9cb22da78b6c8471ffd907f62abf0e9c584d8b891610c55916001600160a01b03909116908490613267565b60405180910390a1600191505090565b610c6d611461565b610c895760405162461bcd60e51b815260040161020e906133bd565b606880546001600160a01b038084166001600160a01b031992831617928390556069805490921692169190911790556040517fcb757ed74a6206afe4cd637317744abe1dafdf32fcbacdd94a785d91e7c1304390610a9390839061324b565b610cf0611461565b610d0c5760405162461bcd60e51b815260040161020e906133bd565b610d14612776565b506040805160808101825260725481526074546020820152607554818301526076546060820152905163172c25eb60e21b81526001600160a01b03831690635cb097ac90610d669084906004016134bd565b600060405180830381600087803b158015610d8057600080fd5b505af1158015610d94573d6000803e3d6000fd5b50506068546001600160a01b0316159150610e76905057606954604051634c1d96ab60e11b81526001600160a01b039091169063983b2d5690610ddb908590600401613259565b600060405180830381600087803b158015610df557600080fd5b505af1158015610e09573d6000803e3d6000fd5b50505050606960009054906101000a90046001600160a01b03166001600160a01b031663986502756040518163ffffffff1660e01b8152600401600060405180830381600087803b158015610e5d57600080fd5b505af1158015610e71573d6000803e3d6000fd5b505050505b7f2afa12c0897533a1c5215a86cc5a031360c72d4eaf123563b68681533191f72a82604051610ea59190613259565b60405180910390a15050565b606d546001600160a01b031615801590610ed55750606d546001600160a01b031633145b610ef15760405162461bcd60e51b815260040161020e9061344d565b80356072556020808201356074556040808301356075556060830135607655606d548151636b0b26b360e11b815291516001600160a01b039091169263d6164d669260048082019391829003018186803b158015610f4e57600080fd5b505afa158015610f62573d6000803e3d6000fd5b505050506040513d601f19601f82011682018060405250610f869190810190612894565b60735550565b610f94611461565b610fb05760405162461bcd60e51b815260040161020e906133bd565b60665460ff16610fd25760405162461bcd60e51b815260040161020e906132fd565b6066805460ff191690556040517f8e1c35fbf7cd686deedf8310574cf4ad038a00a86d3317c831afaeec58f1eeae90600090a1565b60665460009061010090046001600160a01b031631815b606c548110156110775761106d611060606c838154811061103b57fe5b90600052602060002090602091828204019190069054906101000a900460ff166121a0565b839063ffffffff61217b16565b915060010161101e565b50905090565b600080606960009054906101000a90046001600160a01b03166001600160a01b03166318160ddd6040518163ffffffff1660e01b815260040160206040518083038186803b1580156110ce57600080fd5b505afa1580156110e2573d6000803e3d6000fd5b505050506040513d601f19601f820116820180604052506111069190810190612894565b9050806111175760009150506109fa565b6069546040516370a0823160e01b81526000916001600160a01b0316906370a082319061114890879060040161324b565b60206040518083038186803b15801561116057600080fd5b505afa158015611174573d6000803e3d6000fd5b505050506040513d601f19601f820116820180604052506111989190810190612894565b905060006111a461173b565b905060006111bc846106ce858563ffffffff61189616565b9695505050505050565b6111ce611461565b6111ea5760405162461bcd60e51b815260040161020e906133bd565b6033546040516000916001600160a01b0316907f8be0079c531659141344cd1fd0a4f28419497f9722a3daafe3b4186f6b6457e0908390a3603380546001600160a01b0319169055565b61123c611461565b6112585760405162461bcd60e51b815260040161020e906133bd565b6001600160a01b03909116600090815260716020526040902055565b60665460ff16156112975760405162461bcd60e51b815260040161020e906133ad565b61129f611461565b6112bb5760405162461bcd60e51b815260040161020e906133bd565b606f5460001315806112d3576112cf611007565b606f555b6073548214156112f55760405162461bcd60e51b815260040161020e9061331d565b6112fd611b36565b50611306611833565b607555611311611675565b60745560738290558061132557600019606f555b5050565b600054610100900460ff16806113425750611342612387565b80611350575060005460ff16155b61136c5760405162461bcd60e51b815260040161020e906133cd565b600054610100900460ff16158015611397576000805460ff1961ff0019909116610100171660011790555b6113a0336115a3565b6113aa600061238d565b6113b4600161238d565b6113be600261238d565b6113c8600361238d565b600019606f5580156113e0576000805461ff00191690555b50565b6113eb611461565b6114075760405162461bcd60e51b815260040161020e906133bd565b606a80546001600160a01b0319166001600160a01b0383161790556040517f908128485de48e02c38d92b81cd0a3a9cbe8eab3976faa1d3758c7bb6a25e94890610a9390839061324b565b6033546001600160a01b031690565b6033546000906001600160a01b03166114786123e6565b6001600160a01b031614905090565b606a546000906001600160a01b031633146114b45760405162461bcd60e51b815260040161020e9061342d565b6114be8383611e07565b6114da5760405162461bcd60e51b815260040161020e9061333d565b50600192915050565b6114eb611461565b6115075760405162461bcd60e51b815260040161020e906133bd565b607055565b611514611461565b6115305760405162461bcd60e51b815260040161020e906133bd565b606b80546001600160a01b0319166001600160a01b0383161790556040517feb9b68c1cca2a0c5d180f75c6324fad517a04867907b0f3bee85d98fdf57ee9490610a9390839061324b565b600061158782346105c5565b6109f65760405162461bcd60e51b815260040161020e9061347d565b600054610100900460ff16806115bc57506115bc612387565b806115ca575060005460ff16155b6115e65760405162461bcd60e51b815260040161020e906133cd565b600054610100900460ff16158015611611576000805460ff1961ff0019909116610100171660011790555b603380546001600160a01b0319166001600160a01b0384811691909117918290556040519116906000907f8be0079c531659141344cd1fd0a4f28419497f9722a3daafe3b4186f6b6457e0908290a38015611325576000805461ff00191690555050565b600061089860765461168b60725461088c611007565b9063ffffffff611aaa16565b6000806116a860765461088c611833565b9050600081136116b95760006116bb565b805b91505090565b60006116cd33346105c5565b6116e95760405162461bcd60e51b815260040161020e9061347d565b50600190565b60735490565b6116fd611461565b6117195760405162461bcd60e51b815260040161020e906133bd565b606d80546001600160a01b0319166001600160a01b0392909216919091179055565b606f546000908113158061175557611751611007565b606f555b611774611760611697565b611768611007565b9063ffffffff6123ea16565b91505b8061178357600019606f555b5090565b61178f611461565b6117ab5760405162461bcd60e51b815260040161020e906133bd565b6113e08161242c565b6117bc611461565b6117d85760405162461bcd60e51b815260040161020e906133bd565b60665460ff16156117fb5760405162461bcd60e51b815260040161020e9061340d565b6066805460ff191660011790556040517f0a6b9c6c74d93f230c4346c52ac415dd7dda5a0efb4f7394c0bfb5baa87d326590600090a1565b60008061184460745461088c611675565b90506000611875670de0b6b3a7640000611869607354856124ae90919063ffffffff16565b9063ffffffff61251916565b9050600061188e82607554611aaa90919063ffffffff16565b935050505090565b6000826118a557506000610876565b828202828482816118b257fe5b04146118d05760405162461bcd60e51b815260040161020e9061339d565b9392505050565b60006118d083836040518060400160405280601a81526020017f536166654d6174683a206469766973696f6e206279207a65726f00000000000081525061257d565b6000611923611452565b6001600160a01b0316856001600160a01b03161415801561195257506077546001600160a01b03868116911614155b15611a9e576001600160a01b038516600090815260716020526040812054121561197e57506000611aa2565b6000808411801561198f5750600083115b61199a576000611a32565b6069546040516370a0823160e01b8152611a329186916106ce9187916001600160a01b03909116906370a08231906119d6908d9060040161324b565b60206040518083038186803b1580156119ee57600080fd5b505afa158015611a02573d6000803e3d6000fd5b505050506040513d601f19601f82011682018060405250611a269190810190612894565b9063ffffffff61189616565b6001600160a01b038716600090815260716020526040812054919250908112611a5d57607054611a77565b6001600160a01b0387166000908152607160205260409020545b905080611a8a838863ffffffff61217b16565b1115611a9b57600092505050611aa2565b50505b5060015b949350505050565b6000828201818312801590611abf5750838112155b80611ad45750600083128015611ad457508381125b6118d05760405162461bcd60e51b815260040161020e9061332d565b6000818303818312801590611b055750838113155b80611b1a5750600083128015611b1a57508381135b6118d05760405162461bcd60e51b815260040161020e9061346d565b60665460009060ff1615611b5c5760405162461bcd60e51b815260040161020e906133ad565b606f546000131580611b7457611b70611007565b606f555b6077546001600160a01b0316611b9c5760405162461bcd60e51b815260040161020e906133fd565b6000611ba6611697565b905060008111611bba576001925050611777565b606954604080516318160ddd60e01b815290516000926001600160a01b0316916318160ddd916004808301926020929190829003018186803b158015611bff57600080fd5b505afa158015611c13573d6000803e3d6000fd5b505050506040513d601f19601f82011682018060405250611c379190810190612894565b905060008115611c78576000611c4b61173b565b90508015611c6e57611c67816106ce868663ffffffff61189616565b9150611c72565b8391505b50611c7b565b50815b60008111611c8f5760029450505050611777565b607654611ca2908463ffffffff61217b16565b607655607254611cb8908463ffffffff611aaa16565b6072556069546077546040516340c10f1960e01b81526001600160a01b03928316926340c10f1992611cf1929116908590600401613267565b602060405180830381600087803b158015611d0b57600080fd5b505af1158015611d1f573d6000803e3d6000fd5b505050506040513d601f19601f82011682018060405250611d43919081019061283a565b611d5f5760405162461bcd60e51b815260040161020e9061336d565b6077546040516001600160a01b039091169081907fdcbc1c05240f31ff3ad067ef1ee35ce4997762752e3a095284754544f4c709d790611da290879086906134cb565b60405180910390a36077546040517f93375fea511bbf0428eb2f5476dfac0a1fa56fb5ea6dbffb2291b320d4160cbb91611de9916001600160a01b03909116908690613267565b60405180910390a1600094505050508061178357600019606f555090565b60665460009060ff1615611e2d5760405162461bcd60e51b815260040161020e906133ad565b606d8054600160a01b60ff60a01b19821681179092550460ff1682611e645760405162461bcd60e51b815260040161020e9061343d565b60665461010090046001600160a01b03163160005b606c54811015611fe157848210611e8f57611fe1565b6000606c8281548110611e9e57fe5b60009182526020808320908204015460ff601f9092166101000a9004169150611ec6826121a0565b905060008111611ed7575050611fd9565b6000611ee9888663ffffffff6123ea16565b90506000828210611efa5782611efc565b815b6067546040516339923d9560e21b81529192506001600160a01b03169063e648f65490611f31908790859088906004016134e7565b602060405180830381600087803b158015611f4b57600080fd5b505af1158015611f5f573d6000803e3d6000fd5b505050506040513d601f19601f82011682018060405250611f83919081019061283a565b611f9f5760405162461bcd60e51b815260040161020e9061338d565b611faf838263ffffffff6123ea16565b60ff85166000908152606e6020526040902055611fd2868263ffffffff61217b16565b9550505050505b600101611e79565b50808411156120025760405162461bcd60e51b815260040161020e9061334d565b600061200e86866125b4565b607254909150612024908663ffffffff611af016565b60725560695460405163079cc67960e41b81526001600160a01b03909116906379cc6790906120599089908590600401613282565b600060405180830381600087803b15801561207357600080fd5b505af1158015612087573d6000803e3d6000fd5b505060405133925087156108fc02915087906000818181858888f193505050501580156120b8573d6000803e3d6000fd5b50336001600160a01b0316866001600160a01b03167fc2b4a290c20fb28939d29f102514fbffd2b73c059ffba8b78250c94161d5fcc687846040516120fe9291906134cb565b60405180910390a36001935050508061217457606d805460ff60a01b1916905560005b606c54811015612172576000606e6000606c848154811061213e57fe5b600091825260208083208183040154601f9092166101000a90910460ff168352820192909252604001902055600101612121565b505b5092915050565b6000828201838110156118d05760405162461bcd60e51b815260040161020e906132ed565b6067546040516306cf0a7b60e41b81526000916001600160a01b031690636cf0a7b0906121d19085906004016134d9565b60206040518083038186803b1580156121e957600080fd5b505afa1580156121fd573d6000803e3d6000fd5b505050506040513d601f19601f82011682018060405250612221919081019061283a565b61222d575060006109fa565b606d54600160a01b900460ff16156123055760ff82166000908152606e60205260409020546122ec57606754604051633100b6a160e11b81526001600160a01b03909116906362016d42906122869085906004016134d9565b602060405180830381600087803b1580156122a057600080fd5b505af11580156122b4573d6000803e3d6000fd5b505050506040513d601f19601f820116820180604052506122d89190810190612894565b60ff83166000908152606e60205260409020555b5060ff81166000908152606e60205260409020546109fa565b606754604051633100b6a160e11b81526001600160a01b03909116906362016d42906123359085906004016134d9565b602060405180830381600087803b15801561234f57600080fd5b505af1158015612363573d6000803e3d6000fd5b505050506040513d601f19601f820116820180604052506108769190810190612894565b303b1590565b606c8054600181018255600091909152602081047f2b4a51ab505fc96a0952efda2ba61bcd3078d4c02c39a186ec16f21883fbe01601805460ff938416601f9093166101000a9283029390920219909116919091179055565b3390565b60006118d083836040518060400160405280601e81526020017f536166654d6174683a207375627472616374696f6e206f766572666c6f77000081525061274a565b6001600160a01b0381166124525760405162461bcd60e51b815260040161020e906132dd565b6033546040516001600160a01b038084169216907f8be0079c531659141344cd1fd0a4f28419497f9722a3daafe3b4186f6b6457e090600090a3603380546001600160a01b0319166001600160a01b0392909216919091179055565b6000826124bd57506000610876565b826000191480156124d15750600160ff1b82145b156124ee5760405162461bcd60e51b815260040161020e906133dd565b828202828482816124fb57fe5b05146118d05760405162461bcd60e51b815260040161020e906133dd565b6000816125385760405162461bcd60e51b815260040161020e9061349d565b8160001914801561254c5750600160ff1b83145b156125695760405162461bcd60e51b815260040161020e9061335d565b600082848161257457fe5b05949350505050565b6000818361259e5760405162461bcd60e51b815260040161020e91906132ac565b5060008385816125aa57fe5b0495945050505050565b600080606960009054906101000a90046001600160a01b03166001600160a01b03166318160ddd6040518163ffffffff1660e01b815260040160206040518083038186803b15801561260557600080fd5b505afa158015612619573d6000803e3d6000fd5b505050506040513d601f19601f8201168201806040525061263d9190810190612894565b9050600061264961173b565b90506000811161266b5760405162461bcd60e51b815260040161020e9061341d565b6000612681826106ce878663ffffffff61189616565b6069546040516370a0823160e01b81529192506001600160a01b0316906370a08231906126b290899060040161324b565b60206040518083038186803b1580156126ca57600080fd5b505afa1580156126de573d6000803e3d6000fd5b505050506040513d601f19601f820116820180604052506127029190810190612894565b8111156127215760405162461bcd60e51b815260040161020e9061345d565b600081116127415760405162461bcd60e51b815260040161020e9061348d565b95945050505050565b6000818484111561276e5760405162461bcd60e51b815260040161020e91906132ac565b505050900390565b6040518060800160405280600081526020016000815260200160008152602001600081525090565b803561087681613588565b80516108768161359c565b8035610876816135a5565b6000608082840312156127d157600080fd5b50919050565b8051610876816135a5565b6000602082840312156127f457600080fd5b6000611aa2848461279e565b6000806040838503121561281357600080fd5b600061281f858561279e565b9250506020612830858286016127b4565b9150509250929050565b60006020828403121561284c57600080fd5b6000611aa284846127a9565b60006080828403121561286a57600080fd5b6000611aa284846127bf565b60006020828403121561288857600080fd5b6000611aa284846127b4565b6000602082840312156128a657600080fd5b6000611aa284846127d7565b6128bb81613541565b82525050565b6128bb8161351c565b6128bb81613527565b6128bb8161352c565b60006128e78261350f565b6128f18185613513565b9350612901818560208601613552565b61290a8161357e565b9093019392505050565b6000612921601d83613513565b7f43616c6c6572206973206e6f742074686520726562616c616e6365722e000000815260200192915050565b600061295a601b83613513565b7f4e6f7420656e6f756768206d6f6e6579206465706f73697465642e0000000000815260200192915050565b6000612993602683613513565b7f4f776e61626c653a206e6577206f776e657220697320746865207a65726f206181526564647265737360d01b602082015260400192915050565b60006129db601b83613513565b7f536166654d6174683a206164646974696f6e206f766572666c6f770000000000815260200192915050565b6000612a14601583613513565b74233ab7321030b63932b0b23c9032b730b13632b21760591b815260200192915050565b6000612a45602683613513565b7f4465706f73697420616d6f756e74206d757374206265206772656174657220748152653430b710181760d11b602082015260400192915050565b6000612a8d602e83613513565b7f5468697320697320616c7265616479207468652063757272656e7420696e746581526d3932b9ba103332b2903930ba329760911b602082015260400192915050565b6000612add602183613513565b7f5369676e6564536166654d6174683a206164646974696f6e206f766572666c6f8152607760f81b602082015260400192915050565b6000612b20601283613513565b712bb4ba34323930bbb0b6103330b4b632b21760711b815260200192915050565b6000612b4e604f83613513565b7f417661696c61626c652062616c616e6365206e6f7420656e6f75676820746f2081527f636f76657220616d6f756e74206576656e20616674657220776974686472617760208201526e34b73390333937b6903837b7b6399760891b604082015260600192915050565b6000612bc5602183613513565b7f5369676e6564536166654d6174683a206469766973696f6e206f766572666c6f8152607760f81b602082015260400192915050565b6000612c08601d83613513565b7f4661696c656420746f206d696e74206f757470757420746f6b656e732e000000815260200192915050565b6000612c41602383613513565b7f4e6f206e657720666565732061726520617661696c61626c6520746f20636c6181526234b69760e91b602082015260400192915050565b6000612c86601783613513565b7f506f6f6c207769746864726177616c206661696c65642e000000000000000000815260200192915050565b6000612cbf602183613513565b7f536166654d6174683a206d756c7469706c69636174696f6e206f766572666c6f8152607760f81b602082015260400192915050565b6000612d02604683613513565b7f546869732066756e64206d616e6167657220636f6e747261637420697320646981527f7361626c65642e2054686973206d61792062652064756520746f20616e20757060208201526533b930b2329760d11b604082015260600192915050565b6000612d70602083613513565b7f4f776e61626c653a2063616c6c6572206973206e6f7420746865206f776e6572815260200192915050565b6000612da9602e83613513565b7f436f6e747261637420696e7374616e63652068617320616c726561647920626581526d195b881a5b9a5d1a585b1a5e995960921b602082015260400192915050565b6000612df9602783613513565b7f5369676e6564536166654d6174683a206d756c7469706c69636174696f6e206f815266766572666c6f7760c81b602082015260400192915050565b6000612e42603883613513565b7f4465706f73697420616d6f756e7420697320736f20736d616c6c20746861742081527f6e6f205245505420776f756c64206265206d696e7465642e0000000000000000602082015260400192915050565b6000612ea1602e83613513565b7f4d61737465722062656e65666963696172792063616e6e6f742062652074686581526d103d32b9379030b2323932b9b99760911b602082015260400192915050565b6000612ef1601683613513565b75233ab7321030b63932b0b23c903234b9b0b13632b21760511b815260200192915050565b6000612f23601583613513565b74233ab732103130b630b731b29034b9903d32b9379760591b815260200192915050565b6000612f54602083613513565b7f43616c6c6572206973206e6f7420746865205261726946756e6450726f78792e815260200192915050565b6000612f8d602983613513565b7f5769746864726177616c20616d6f756e74206d7573742062652067726561746581526839103a3430b710181760b91b602082015260400192915050565b6000612fd8602383613513565b7f43616c6c6572206973206e6f7420616e20617574686f72697a656420736f757281526231b29760e91b602082015260400192915050565b600061301d603d83613513565b7f596f757220524550542062616c616e636520697320746f6f206c6f7720666f7281527f2061207769746864726177616c206f66207468697320616d6f756e742e000000602082015260400192915050565b600061307c602483613513565b7f5369676e6564536166654d6174683a207375627472616374696f6e206f766572815263666c6f7760e01b602082015260400192915050565b60006130c2600f83613513565b6e2232b837b9b4ba103330b4b632b21760891b815260200192915050565b60006130ed603b83613513565b7f5769746864726177616c20616d6f756e7420697320736f20736d616c6c20746881527f6174206e6f205245505420776f756c64206265206275726e65642e0000000000602082015260400192915050565b600061314c602083613513565b7f5369676e6564536166654d6174683a206469766973696f6e206279207a65726f815260200192915050565b6000613185605283613513565b7f4d616b696e672074686973206465706f73697420776f756c642063617573652081527f7468652062616c616e6365206f662074686973206163636f756e7420746f20656020820152713c31b2b2b2103a34329036b0bc34b6bab69760711b604082015260600192915050565b8051608083019061320384826128d3565b50602082015161321660208501826128d3565b50604082015161322960408501826128d3565b50606082015161323c60608501826128d3565b50505050565b6128bb8161353b565b6020810161087682846128c1565b6020810161087682846128b2565b6040810161327582856128b2565b6118d060208301846128d3565b6040810161327582856128c1565b6020810161087682846128ca565b6020810161087682846128d3565b602080825281016118d081846128dc565b6020808252810161087681612914565b602080825281016108768161294d565b6020808252810161087681612986565b60208082528101610876816129ce565b6020808252810161087681612a07565b6020808252810161087681612a38565b6020808252810161087681612a80565b6020808252810161087681612ad0565b6020808252810161087681612b13565b6020808252810161087681612b41565b6020808252810161087681612bb8565b6020808252810161087681612bfb565b6020808252810161087681612c34565b6020808252810161087681612c79565b6020808252810161087681612cb2565b6020808252810161087681612cf5565b6020808252810161087681612d63565b6020808252810161087681612d9c565b6020808252810161087681612dec565b6020808252810161087681612e35565b6020808252810161087681612e94565b6020808252810161087681612ee4565b6020808252810161087681612f16565b6020808252810161087681612f47565b6020808252810161087681612f80565b6020808252810161087681612fcb565b6020808252810161087681613010565b602080825281016108768161306f565b60208082528101610876816130b5565b60208082528101610876816130e0565b602080825281016108768161313f565b6020808252810161087681613178565b6080810161087682846131f2565b6040810161327582856128d3565b602081016108768284613242565b606081016134f58286613242565b61350260208301856128d3565b611aa260408301846128d3565b5190565b90815260200190565b60006108768261352f565b151590565b90565b6001600160a01b031690565b60ff1690565b60006108768260006108768261351c565b60005b8381101561356d578181015183820152602001613555565b8381111561323c5750506000910152565b601f01601f191690565b6135918161351c565b81146113e057600080fd5b61359181613527565b6135918161352c56fe4e6f206e657720666565732061726520617661696c61626c6520746f20636c61696d2e4465706f73697420616d6f756e7420697320736f20736d616c6c2074686174206e6f205245505420776f756c64206265206d696e7465642ea365627a7a72315820502fe1eef40eb5bd913e6f2aa3058a0ca6f013bbda6c0e750fbdf4bda6925af96c6578706572696d656e74616cf564736f6c63430005110040",
  "source": "/**\n * @file\n * @author David Lucid <david@rari.capital>\n *\n * @section LICENSE\n *\n * All rights reserved to David Lucid of David Lucid LLC.\n * Any disclosure, reproduction, distribution or other use of this code by any individual or entity other than David Lucid of David Lucid LLC, unless given explicit permission by David Lucid of David Lucid LLC, is prohibited.\n *\n * @section DESCRIPTION\n *\n * This file includes the Ethereum contract code for RariFundManager, the primary contract powering Rari Capital's RariFund.\n */\n\npragma solidity 0.5.17;\npragma experimental ABIEncoderV2;\n\nimport \"@openzeppelin/upgrades/contracts/Initializable.sol\";\nimport \"@openzeppelin/contracts-ethereum-package/contracts/math/SafeMath.sol\";\nimport \"@openzeppelin/contracts-ethereum-package/contracts/drafts/SignedSafeMath.sol\";\nimport \"@openzeppelin/contracts-ethereum-package/contracts/ownership/Ownable.sol\";\nimport \"@openzeppelin/contracts-ethereum-package/contracts/token/ERC20/IERC20.sol\";\nimport \"@openzeppelin/contracts-ethereum-package/contracts/token/ERC20/SafeERC20.sol\";\n\nimport \"@0x/contracts-exchange-libs/contracts/src/LibOrder.sol\";\nimport \"@0x/contracts-erc20/contracts/src/interfaces/IEtherToken.sol\";\n\nimport \"./RariFundController.sol\";\nimport \"./RariFundToken.sol\";\nimport \"./RariFundProxy.sol\";\n\n/**\n * @title RariFundManager\n * @dev This contract is the primary contract powering RariFund.\n * Anyone can deposit to the fund with deposit(uint256 amount).\n * Anyone can withdraw their funds (with interest) from the fund with withdraw(uint256 amount).\n */\ncontract RariFundManager is Initializable, Ownable {\n    using SafeMath for uint256;\n    using SignedSafeMath for int256;\n    using SafeERC20 for IERC20;\n\n    /**\n     * @dev Boolean that, if true, disables the primary functionality of this RariFundManager.\n     */\n    bool private _fundDisabled;\n\n    /**\n     * @dev Address of the RariFundController.\n     */\n    address payable private _rariFundControllerContract;\n\n    /**\n     * @dev Contract of the RariFundController.\n     */\n    RariFundController private _rariFundController;\n\n    /**\n     * @dev Address of the REPT tokem.\n     */\n    address private _rariEthPoolTokenContract;\n\n    /**\n     * @dev Contract for the REPT tokem.\n     */\n    RariFundToken private _rariEthPoolToken;\n\n    /**\n     * @dev Address of the RariFundProxy.\n     */\n    address private _rariFundProxyContract;\n\n    /**\n     * @dev Address of the rebalancer.\n     */\n    address private _rariFundRebalancerAddress;\n\n\n    /**\n     * @dev Supported pools\n     */\n    uint8[] private _supportedPools;\n\n\n    /**\n     * @dev Initializer that sets supported ETH pools.\n     */\n    function initialize() public initializer {\n        // Initialize base contracts\n        Ownable.initialize(msg.sender);\n        // Add supported currencies\n        addPool(0); // dYdX\n        addPool(1); // Compound\n        addPool(2); // KeeperDAO\n        addPool(3); // Aave\n\n        _rawFundBalanceCache = -1;\n    }\n\n\n    /**\n     * @dev Entry into deposit functionality.\n     */\n    function () external payable {\n        require(msg.value > 0, \"Not enough money deposited.\");\n        require(_depositTo(msg.sender, msg.value), \"Deposit failed.\");\n    }\n\n    /**\n     * @dev Adds a supported pool for eth.\n     * @param pool Pool ID to be supported.\n     */\n    function addPool(uint8 pool) internal {\n        _supportedPools.push(pool);\n    }\n\n    /**\n     * @dev Emitted when RariFundManager is upgraded.\n     */\n    event FundManagerUpgraded(address newContract);\n\n    /**\n     * @dev Upgrades RariFundManager.\n     * Sends data to the new contract, sets the new REPT minter, and forwards eth from the old to the new.\n     * @param newContract The address of the new RariFundManager contract.\n     */\n    function upgradeFundManager(address payable newContract) external onlyOwner {\n        // Pass data to the new contract\n        FundManagerData memory data;\n\n        data = FundManagerData(\n            _netDeposits,\n            _rawInterestAccruedAtLastFeeRateChange,\n            _interestFeesGeneratedAtLastFeeRateChange,\n            _interestFeesClaimed\n        );\n\n        RariFundManager(newContract).setFundManagerData(data);\n\n        // Update REPT minter\n        if (_rariEthPoolTokenContract != address(0)) {\n            _rariEthPoolToken.addMinter(newContract);\n            _rariEthPoolToken.renounceMinter();\n        }\n\n        emit FundManagerUpgraded(newContract);\n    }\n\n    /**\n     * @dev Old RariFundManager contract authorized to migrate its data to the new one.\n     */\n    address payable private _authorizedFundManagerDataSource;\n\n    /**\n     * @dev Upgrades RariFundManager.\n     * Authorizes the source for fund manager data (i.e., the old fund manager).\n     * @param authorizedFundManagerDataSource Authorized source for data (i.e., the old fund manager).\n     */\n    function authorizeFundManagerDataSource(address payable authorizedFundManagerDataSource) external onlyOwner {\n        _authorizedFundManagerDataSource = authorizedFundManagerDataSource;\n    }\n\n    /**\n     * @dev Struct for data to transfer from the old RariFundManager to the new one.\n     */\n    struct FundManagerData {\n        int256 netDeposits;\n        int256 rawInterestAccruedAtLastFeeRateChange;\n        int256 interestFeesGeneratedAtLastFeeRateChange;\n        uint256 interestFeesClaimed;\n    }\n\n    /**\n     * @dev Upgrades RariFundManager.\n     * Sets data receieved from the old contract.\n     * @param data The data from the old contract necessary to initialize the new contract.\n     */\n    function setFundManagerData(FundManagerData calldata data) external {\n        require(_authorizedFundManagerDataSource != address(0) && msg.sender == _authorizedFundManagerDataSource, \"Caller is not an authorized source.\");\n        _netDeposits = data.netDeposits;\n        _rawInterestAccruedAtLastFeeRateChange = data.rawInterestAccruedAtLastFeeRateChange;\n        _interestFeesGeneratedAtLastFeeRateChange = data.interestFeesGeneratedAtLastFeeRateChange;\n        _interestFeesClaimed = data.interestFeesClaimed;\n        _interestFeeRate = RariFundManager(_authorizedFundManagerDataSource).getInterestFeeRate();\n    }\n\n    /**\n     * @dev Emitted when the RariFundController of the RariFundManager is set or upgraded.\n     */\n    event FundControllerSet(address newContract);\n\n\n    /**\n     * @dev Sets or upgrades the RariFundController of the RariFundManager.\n     * @param newContract The address of the new RariFundController contract.\n     */\n    function setFundController(address payable newContract) external onlyOwner {\n        _rariFundControllerContract = newContract;\n        _rariFundController = RariFundController(_rariFundControllerContract);\n        emit FundControllerSet(newContract);\n    }\n\n\n    /**\n     * @dev Emitted when the REPT contract of the RariFundManager is set.\n     */\n    event FundTokenSet(address newContract);\n\n    /**\n     * @dev Sets or upgrades the RariFundToken of the RariFundManager.\n     * @param newContract The address of the new RariFundToken contract.\n     */\n    function setFundToken(address newContract) external onlyOwner {\n        _rariEthPoolTokenContract = newContract;\n        _rariEthPoolToken = RariFundToken(_rariEthPoolTokenContract);\n        emit FundTokenSet(newContract);\n    }\n\n    /**\n     * @dev Throws if called by any account other than the RariFundToken.\n     */\n    modifier onlyToken() {\n        require(_rariEthPoolTokenContract == msg.sender, \"Caller is not the RariFundToken.\");\n        _;\n    }\n\n\n    /**\n     * @dev Emitted when the RariFundProxy of the RariFundManager is set.\n     */\n    event FundProxySet(address newContract);\n\n    /**\n     * @dev Sets or upgrades the RariFundProxy of the RariFundManager.\n     * @param newContract The address of the new RariFundProxy contract.\n     */\n    function setFundProxy(address newContract) external onlyOwner {\n        _rariFundProxyContract = newContract;\n        emit FundProxySet(newContract);\n    }\n\n    /**\n     * @dev Throws if called by any account other than the RariFundProxy.\n     */\n    modifier onlyProxy() {\n        require(_rariFundProxyContract == msg.sender, \"Caller is not the RariFundProxy.\");\n        _;\n    }\n\n    /**\n     * @dev Emitted when the rebalancer of the RariFundManager is set.\n     */\n    event FundRebalancerSet(address newAddress);\n\n    /**\n     * @dev Sets or upgrades the rebalancer of the RariFundManager.\n     * @param newAddress The Ethereum address of the new rebalancer server.\n     */\n    function setFundRebalancer(address newAddress) external onlyOwner {\n        _rariFundRebalancerAddress = newAddress;\n        emit FundRebalancerSet(newAddress);\n    }\n\n    /**\n     * @dev Throws if called by any account other than the rebalancer.\n     */\n    modifier onlyRebalancer() {\n        require(_rariFundRebalancerAddress == msg.sender, \"Caller is not the rebalancer.\");\n        _;\n    }\n\n    /**\n     * @dev Emitted when the primary functionality of this RariFundManager contract has been disabled.\n     */\n    event FundDisabled();\n\n    /**\n     * @dev Emitted when the primary functionality of this RariFundManager contract has been enabled.\n     */\n    event FundEnabled();\n\n    /**\n     * @dev Disables primary functionality of this RariFundManager so contract(s) can be upgraded.\n     */\n    function disableFund() external onlyOwner {\n        require(!_fundDisabled, \"Fund already disabled.\");\n        _fundDisabled = true;\n        emit FundDisabled();\n    }\n\n    /**\n     * @dev Enables primary functionality of this RariFundManager once contract(s) are upgraded.\n     */\n    function enableFund() external onlyOwner {\n        require(_fundDisabled, \"Fund already enabled.\");\n        _fundDisabled = false;\n        emit FundEnabled();\n    }\n\n    /**\n     * @dev Throws if fund is disabled.\n     */\n    modifier fundEnabled() {\n        require(!_fundDisabled, \"This fund manager contract is disabled. This may be due to an upgrade.\");\n        _;\n    }\n\n    /**\n     * @dev Boolean indicating if return values of `getPoolBalance` are to be cached.\n     */\n    bool _cachePoolBalance;\n\n    /**\n     * @dev Maps cached pool balances to pool indexes\n     */\n    mapping(uint8 => uint256) _poolBalanceCache;\n\n\n    /**\n     * @dev Returns the fund controller's balance of the specified currency in the specified pool.\n     * @dev Ideally, we can add the view modifier, but Compound's `getUnderlyingBalance` function (called by `CompoundPoolController.getBalance`) potentially modifies the state.\n     * @param pool The index of the pool.\n     */\n    function getPoolBalance(uint8 pool) internal returns (uint256) {\n        if (!_rariFundController.hasETHInPool(pool)) return 0;\n\n        if (_cachePoolBalance) {\n                if (_poolBalanceCache[pool] == 0) _poolBalanceCache[pool] = _rariFundController._getPoolBalance(pool);\n                return _poolBalanceCache[pool];\n        }\n\n        return _rariFundController._getPoolBalance(pool);\n    }\n\n\n    /**\n     * @dev Caches return value of `getPoolBalance` for the duration of the function.\n     */\n    modifier cachePoolBalance() {\n        bool cacheSetPreviously = _cachePoolBalance;\n        _cachePoolBalance = true;\n        _;\n\n        if (!cacheSetPreviously) {\n            _cachePoolBalance = false;\n\n            for (uint256 i = 0; i < _supportedPools.length; i++) {\n                _poolBalanceCache[_supportedPools[i]] = 0;\n            }\n        }\n    }\n\n    /**\n     * @notice Returns the fund's raw total balance (all REPT holders' funds + all unclaimed fees).\n     * @dev Ideally, we can add the view modifier, but Compound's `getUnderlyingBalance` function (called by `RariFundController.getPoolBalance`) potentially modifies the state.\n     */\n    function getRawFundBalance() public returns (uint256) {\n        uint256 totalBalance = _rariFundControllerContract.balance; // ETH balance in fund controller contract\n\n        for (uint256 i = 0; i < _supportedPools.length; i++)\n            totalBalance = totalBalance.add(getPoolBalance(_supportedPools[i]));\n\n        return totalBalance;\n    }\n\n    /**\n     * @dev Caches the fund's raw total balance (all REPT holders' funds + all unclaimed fees) of ETH.\n     */\n    int256 private _rawFundBalanceCache;\n\n\n    /**\n     * @dev Caches the value of getRawFundBalance() for the duration of the function.\n     */\n    modifier cacheRawFundBalance() {\n        bool cacheSetPreviously = _rawFundBalanceCache >= 0;\n        if (!cacheSetPreviously) _rawFundBalanceCache = int256(getRawFundBalance());\n        _;\n        if (!cacheSetPreviously) _rawFundBalanceCache = -1;\n    }\n\n    /**\n     * @notice Returns the fund's total investor balance (all REPT holders' funds but not unclaimed fees) of all currencies in EETH (scaled by 1e18).\n     * @dev Ideally, we can add the view modifier, but Compound's `getUnderlyingBalance` function (called by `getRawFundBalance`) potentially modifies the state.\n     */\n    function getFundBalance() public cacheRawFundBalance returns (uint256) {\n        return getRawFundBalance().sub(getInterestFeesUnclaimed());\n    }\n\n    /**\n     * @notice Returns an account's total balance in ETH.\n     * @dev Ideally, we can add the view modifier, but Compound's `getUnderlyingBalance` function (called by `getRawFundBalance`) potentially modifies the state.\n     * @param account The account whose balance we are calculating.\n     */\n    function balanceOf(address account) external returns (uint256) {\n        uint256 reptTotalSupply = _rariEthPoolToken.totalSupply();\n        if (reptTotalSupply == 0) return 0;\n        uint256 reptBalance = _rariEthPoolToken.balanceOf(account);\n        uint256 fundBalance = getFundBalance();\n        uint256 accountBalance = reptBalance.mul(fundBalance).div(reptTotalSupply);\n        return accountBalance;\n    }\n\n    /**\n     * @dev Fund balance limit in ETH per Ethereum address.\n     */\n    uint256 private _accountBalanceLimitDefault;\n\n    /**\n     * @dev Sets or upgrades the default account balance limit in ETH.\n     * @param limitEth The default fund balance limit per Ethereum address in ETH.\n     */\n    function setDefaultAccountBalanceLimit(uint256 limitEth) external onlyOwner {\n        _accountBalanceLimitDefault = limitEth;\n    }\n\n    /**\n     * @dev Maps booleans indicating if Ethereum addresses are immune to the account balance limit.\n     */\n    mapping(address => int256) private _accountBalanceLimits;\n\n    /**\n     * @dev Sets the balance limit in ETH of `account`.\n     * @param account The Ethereum address to add or remove.\n     * @param limitEth The fund balance limit of `account` in ETH. Use 0 to unset individual limit (and restore account to global limit). Use -1 to disable deposits from `account`.\n     */\n    function setIndividualAccountBalanceLimit(address account, int256 limitEth) external onlyOwner {\n        _accountBalanceLimits[account] = limitEth;\n    }\n\n\n    /**\n     * @dev Emitted when funds have been deposited to Rari Eth Pool.\n     */\n    event Deposit(address indexed sender, address indexed payee, uint256 amount, uint256 reptMinted);\n\n    /**\n     * @dev Emitted when funds have been withdrawn from Rari Eth Pool.\n     */\n    event Withdrawal(address indexed sender, address indexed payee, uint256 amount, uint256 reptBurned);\n\n    /**\n     * @notice Internal function to deposit funds from `msg.sender` to Rari Eth Pool in exchange for REPT minted to `to`.\n     * Please note that you must approve RariFundManager to transfer at least `amount`.\n     * @param to The address that will receieve the minted REPT.\n     * @param amount The amount of tokens to be deposited.\n     * @return Boolean indicating success.\n     */\n    function _depositTo(address to, uint256 amount) internal fundEnabled returns (bool) {\n        // Input validation\n        require(amount > 0, \"Deposit amount must be greater than 0.\");\n\n        // Calculate REPT to mint\n        uint256 reptTotalSupply = _rariEthPoolToken.totalSupply();\n        uint256 fundBalance = reptTotalSupply > 0 ? getFundBalance() : 0; // Only set if used\n        \n        uint256 reptAmount = 0;\n\n        if (reptTotalSupply > 0 && fundBalance > 0) reptAmount = amount.mul(reptTotalSupply).div(fundBalance);\n        else reptAmount = amount;\n\n        require(reptAmount > 0, \"Deposit amount is so small that no REPT would be minted.\");\n        \n        // Check account balance limit if `to` is not whitelisted\n        require(checkAccountBalanceLimit(to, amount, reptTotalSupply, fundBalance), \"Making this deposit would cause the balance of this account to exceed the maximum.\");\n\n        // Update net deposits, transfer funds from msg.sender, mint REPT, emit event, and return true\n        _netDeposits = _netDeposits.add(int256(amount));\n\n        _rariFundControllerContract.transfer(amount); // Transfer ETH to RariFundController\n\n        require(_rariEthPoolToken.mint(to, reptAmount), \"Failed to mint output tokens.\");\n\n        emit Deposit(msg.sender, to, amount, reptAmount);\n\n        return true;\n    }\n\n    /**\n     * @dev Checks to make sure that, if `to` is not whitelisted, its balance will not exceed the maximum after depositing `amount`.\n     * This function was separated from the `_depositTo` function to avoid the stack getting too deep.\n     * @param to The address that will receieve the minted REPT.\n     * @param amount The amount of ETH to be deposited.\n     * @param reptTotalSupply The total supply of REPT representing the fund's total investor balance.\n     * @param fundBalance The fund's total investor balance in (wei).\n     * @return Boolean indicating success.\n     */\n    function checkAccountBalanceLimit(address to, uint256 amount, uint256 reptTotalSupply, uint256 fundBalance) internal view returns (bool) {\n        if (to != owner() && to != _interestFeeMasterBeneficiary) {\n            if (_accountBalanceLimits[to] < 0) return false;\n            uint256 initialBalance = reptTotalSupply > 0 && fundBalance > 0 ? _rariEthPoolToken.balanceOf(to).mul(fundBalance).div(reptTotalSupply) : 0; // double check\n            uint256 accountBalanceLimit = _accountBalanceLimits[to] > 0 ? uint256(_accountBalanceLimits[to]) : _accountBalanceLimitDefault;\n            if (initialBalance.add(amount) > accountBalanceLimit) return false;\n        }\n\n        return true;\n    }\n\n    /**\n     * @notice Deposits ETH to RariFund in exchange for REPT.\n     * @return Boolean indicating success.\n     */\n    function deposit() payable external returns (bool) {\n        require(_depositTo(msg.sender, msg.value), \"Deposit failed.\");\n        return true;\n    }\n\n    /**\n     * @dev Deposits funds from `msg.sender` (RariFundProxy) to RariFund in exchange for REPT minted to `to`.\n     * @param to The address that will receieve the minted REPT.\n     * @return Boolean indicating success.\n     */\n    function depositTo(address to) payable external returns (bool) {\n        require(_depositTo(to, msg.value), \"Deposit failed.\");\n        return true;\n    }\n\n\n    /**\n     * @dev Returns the amount of REPT to burn for a withdrawal (used by `_withdrawFrom`).\n     * @param from The address from which REPT will be burned.\n     * @param amount The amount of the withdrawal in ETH\n     */\n    function getREPTBurnAmount(address from, uint256 amount) internal returns (uint256) {\n        uint256 reptTotalSupply = _rariEthPoolToken.totalSupply();\n        uint256 fundBalance = getFundBalance();\n        require(fundBalance > 0, \"Fund balance is zero.\");\n        uint256 reptAmount = amount.mul(reptTotalSupply).div(fundBalance); // check again\n        require(reptAmount <= _rariEthPoolToken.balanceOf(from), \"Your REPT balance is too low for a withdrawal of this amount.\");\n        require(reptAmount > 0, \"Withdrawal amount is so small that no REPT would be burned.\");\n        return reptAmount;\n    }\n\n    /**\n     * @dev Internal function to withdraw funds from RariFund to `msg.sender` in exchange for REPT burned from `from`.\n     * Please note that you must approve RariFundManager to burn of the necessary amount of REPT.\n     * @param from The address from which REPT will be burned.\n     * @param amount The amount of tokens to be withdrawn.\n     * @return Boolean indicating success.\n     */\n    function _withdrawFrom(address from, uint256 amount) internal fundEnabled cachePoolBalance returns (bool) {\n        // Input validation\n        require(amount > 0, \"Withdrawal amount must be greater than 0.\");\n\n        // Check contract balance of token and withdraw from pools if necessary\n        uint256 contractBalance = _rariFundControllerContract.balance; // get ETH balance\n\n        for (uint256 i = 0; i < _supportedPools.length; i++) {\n            if (contractBalance >= amount) break;\n            uint8 pool = _supportedPools[i];\n            uint256 poolBalance = getPoolBalance(pool);\n            if (poolBalance <= 0) continue;\n            uint256 amountLeft = amount.sub(contractBalance);\n            uint256 poolAmount = amountLeft < poolBalance ? amountLeft : poolBalance;\n            require(_rariFundController.withdrawFromPoolKnowingBalanceToManager(pool, poolAmount, poolBalance), \"Pool withdrawal failed.\");\n            _poolBalanceCache[pool] = poolBalance.sub(poolAmount);\n            contractBalance = contractBalance.add(poolAmount);\n        }\n\n        require(amount <= contractBalance, \"Available balance not enough to cover amount even after withdrawing from pools.\");\n        // Calculate REPT to burn\n        uint256 reptAmount = getREPTBurnAmount(from, amount);\n        // Update net deposits, burn REPT, transfer funds to msg.sender, emit event, and return true\n        _netDeposits = _netDeposits.sub(int256(amount));\n        _rariEthPoolToken.burnFrom(from, reptAmount); // The user must approve the burning of tokens beforehand\n        msg.sender.transfer(amount);\n        emit Withdrawal(from, msg.sender, amount, reptAmount);\n        return true;\n    }\n\n    /**\n     * @notice Withdraws funds from RariFund in exchange for REPT.\n     * You may only withdraw currencies held by the fund (see `getRawFundBalance(string currencyCode)`).\n     * Please note that you must approve RariFundManager to burn of the necessary amount of REPY.\n     * @param amount The amount of tokens to be withdrawn.\n     * @return Boolean indicating success.\n     */\n    function withdraw(uint256 amount) external returns (bool) {\n        require(_withdrawFrom(msg.sender, amount), \"Withdrawal failed.\");\n        return true;\n    }\n\n    /**\n     * @dev Withdraws funds from RariFund to `msg.sender` (RariFundProxy) in exchange for REPT burned from `from`.\n     * Please note that you must approve RariFundManager to burn of the necessary amount of REPT.\n     * @param from The address from which REPT will be burned.\n     * @param amount The amount of tokens to be withdrawn.\n     * @return Boolean indicating success.\n     */\n    function withdrawFrom(address from, uint256 amount) external onlyProxy returns (bool) {\n        require(_withdrawFrom(from, amount), \"Withdrawal failed.\");\n        return true;\n    }\n\n    /**\n     * @dev Net quantity of deposits to the fund (i.e., deposits - withdrawals).\n     * On deposit, amount deposited is added to `_netDeposits`; on withdrawal, amount withdrawn is subtracted from `_netDeposits`.\n     */\n    int256 private _netDeposits;\n    \n    /**\n     * @notice Returns the raw total amount of interest accrued by the fund as a whole (including the fees paid on interest) in USD (scaled by 1e18).\n     * @dev Ideally, we can add the view modifier, but Compound's `getUnderlyingBalance` function (called by `getRawFundBalance`) potentially modifies the state.\n     */\n    function getRawInterestAccrued() public returns (int256) {\n        return int256(getRawFundBalance()).sub(_netDeposits).add(int256(_interestFeesClaimed));\n    }\n    \n    /**\n     * @notice Returns the total amount of interest accrued by past and current REPT holders (excluding the fees paid on interest) in USD (scaled by 1e18).\n     * @dev Ideally, we can add the view modifier, but Compound's `getUnderlyingBalance` function (called by `getRawFundBalance`) potentially modifies the state.\n     */\n    function getInterestAccrued() public returns (int256) {\n        return int256(getFundBalance()).sub(_netDeposits);\n    }\n\n    /**\n     * @dev The proportion of interest accrued that is taken as a service fee (scaled by 1e18).\n     */\n    uint256 private _interestFeeRate;\n\n    /**\n     * @dev Returns the fee rate on interest.\n     */\n    function getInterestFeeRate() public view returns (uint256) {\n        return _interestFeeRate;\n    }\n\n    /**\n     * @dev Sets the fee rate on interest.\n     * @param rate The proportion of interest accrued to be taken as a service fee (scaled by 1e18).\n     */\n    function setInterestFeeRate(uint256 rate) external fundEnabled onlyOwner cacheRawFundBalance {\n        require(rate != _interestFeeRate, \"This is already the current interest fee rate.\");\n        _depositFees();\n        _interestFeesGeneratedAtLastFeeRateChange = getInterestFeesGenerated(); // MUST update this first before updating _rawInterestAccruedAtLastFeeRateChange since it depends on it \n        _rawInterestAccruedAtLastFeeRateChange = getRawInterestAccrued();\n        _interestFeeRate = rate;\n    }\n\n    /**\n     * @dev The amount of interest accrued at the time of the most recent change to the fee rate.\n     */\n    int256 private _rawInterestAccruedAtLastFeeRateChange;\n\n    /**\n     * @dev The amount of fees generated on interest at the time of the most recent change to the fee rate.\n     */\n    int256 private _interestFeesGeneratedAtLastFeeRateChange;\n\n    /**\n     * @notice Returns the amount of interest fees accrued by beneficiaries in USD (scaled by 1e18).\n     * @dev Ideally, we can add the view modifier, but Compound's `getUnderlyingBalance` function (called by `getRawFundBalance`) potentially modifies the state.\n     */\n    function getInterestFeesGenerated() public returns (int256) {\n        int256 rawInterestAccruedSinceLastFeeRateChange = getRawInterestAccrued().sub(_rawInterestAccruedAtLastFeeRateChange);\n        int256 interestFeesGeneratedSinceLastFeeRateChange = rawInterestAccruedSinceLastFeeRateChange.mul(int256(_interestFeeRate)).div(1e18);\n        int256 interestFeesGenerated = _interestFeesGeneratedAtLastFeeRateChange.add(interestFeesGeneratedSinceLastFeeRateChange);\n        return interestFeesGenerated;\n    }\n\n    /**\n     * @dev The total claimed amount of interest fees.\n     */\n    uint256 private _interestFeesClaimed;\n\n    /**\n     * @dev Returns the total unclaimed amount of interest fees.\n     * Ideally, we can add the view modifier, but Compound's `getUnderlyingBalance` function (called by `getRawFundBalance`) potentially modifies the state.\n     */\n    function getInterestFeesUnclaimed() public returns (uint256) {\n        int256 interestFeesUnclaimed = getInterestFeesGenerated().sub(int256(_interestFeesClaimed));\n        return interestFeesUnclaimed > 0 ? uint256(interestFeesUnclaimed) : 0;\n    }\n\n    /**\n     * @dev The master beneficiary of fees on interest; i.e., the recipient of all fees on interest.\n     */\n    address payable private _interestFeeMasterBeneficiary;\n\n    /**\n     * @dev Sets the master beneficiary of interest fees.\n     * @param beneficiary The master beneficiary of fees on interest; i.e., the recipient of all fees on interest.\n     */\n    function setInterestFeeMasterBeneficiary(address payable beneficiary) external fundEnabled onlyOwner {\n        require(beneficiary != address(0), \"Master beneficiary cannot be the zero address.\");\n        _interestFeeMasterBeneficiary = beneficiary;\n    }\n\n    /**\n     * @dev Emitted when fees on interest are deposited back into the fund.\n     */\n    event InterestFeeDeposit(address beneficiary, uint256 amount);\n\n    /**\n     * @dev Emitted when fees on interest are withdrawn.\n     */\n    event InterestFeeWithdrawal(address beneficiary, uint256 amountEth);\n\n    /**\n     * @dev Internal function to deposit all accrued fees on interest back into the fund on behalf of the master beneficiary.\n     * @return Integer indicating success (0), no fees to claim (1), or no REPT to mint (2).\n     */\n    function _depositFees() internal fundEnabled cacheRawFundBalance returns (uint8) {\n        require(_interestFeeMasterBeneficiary != address(0), \"Master beneficiary cannot be the zero address.\");\n\n        uint256 amount = getInterestFeesUnclaimed();\n        if (amount <= 0) return 1;\n\n        uint256 reptTotalSupply = _rariEthPoolToken.totalSupply();\n        uint256 reptAmount = 0;\n\n        if (reptTotalSupply > 0) {\n            uint256 fundBalance = getFundBalance();\n            if (fundBalance > 0) reptAmount = amount.mul(reptTotalSupply).div(fundBalance);\n            else reptAmount = amount;\n        } else reptAmount = amount;\n\n        if (reptAmount <= 0) return 2;\n\n        _interestFeesClaimed = _interestFeesClaimed.add(amount);\n        _netDeposits = _netDeposits.add(int256(amount));\n\n        require(_rariEthPoolToken.mint(_interestFeeMasterBeneficiary, reptAmount), \"Failed to mint output tokens.\");\n        emit Deposit(_interestFeeMasterBeneficiary, _interestFeeMasterBeneficiary, amount, reptAmount);\n\n        emit InterestFeeDeposit(_interestFeeMasterBeneficiary, amount);\n        return 0;\n    }\n\n    /**\n     * @notice Deposits all accrued fees on interest back into the fund on behalf of the master beneficiary.\n     * @return Boolean indicating success.\n     */\n    function depositFees() external onlyRebalancer returns (bool) {\n        uint8 result = _depositFees();\n        require(result == 0, result == 2 ? \"Deposit amount is so small that no REPT would be minted.\" : \"No new fees are available to claim.\");\n    }\n\n    /**\n     * @notice Withdraws all accrued fees on interest to the master beneficiary.\n     * @return Boolean indicating success.\n     */\n    function withdrawFees() external fundEnabled onlyRebalancer returns (bool) {\n        require(_interestFeeMasterBeneficiary != address(0), \"Master beneficiary cannot be the zero address.\");\n\n        uint256 amount = getInterestFeesUnclaimed();\n\n        require(amount > 0, \"No new fees are available to claim.\");\n\n        _interestFeesClaimed = _interestFeesClaimed.add(amount);\n        _rariFundController.withdrawToManager(amount);\n        _interestFeeMasterBeneficiary.transfer(amount);\n\n        emit InterestFeeWithdrawal(_interestFeeMasterBeneficiary, amount);\n        return true;\n    }\n}\n",
  "sourcePath": "/Users/richter/Projects/Cloud/rari-work/rari-eth-contracts/contracts/RariFundManager.sol",
  "compiler": {
    "name": "solc",
    "version": "0.5.17+commit.d19bba13.Emscripten.clang"
  },
  "schemaVersion": "3.2.3",
  "updatedAt": "2020-10-13T03:23:02.143Z",
  "networkType": "ethereum",
  "devdoc": {
    "details": "This contract is the primary contract powering RariFund. Anyone can deposit to the fund with deposit(uint256 amount). Anyone can withdraw their funds (with interest) from the fund with withdraw(uint256 amount).",
    "methods": {
      "authorizeFundManagerDataSource(address)": {
        "details": "Upgrades RariFundManager. Authorizes the source for fund manager data (i.e., the old fund manager).",
        "params": {
          "authorizedFundManagerDataSource": "Authorized source for data (i.e., the old fund manager)."
        }
      },
      "balanceOf(address)": {
        "details": "Ideally, we can add the view modifier, but Compound's `getUnderlyingBalance` function (called by `getRawFundBalance`) potentially modifies the state.",
        "params": {
          "account": "The account whose balance we are calculating."
        }
      },
      "deposit()": {
        "return": "Boolean indicating success."
      },
      "depositFees()": {
        "return": "Boolean indicating success."
      },
      "depositTo(address)": {
        "details": "Deposits funds from `msg.sender` (RariFundProxy) to RariFund in exchange for REPT minted to `to`.",
        "params": {
          "to": "The address that will receieve the minted REPT."
        },
        "return": "Boolean indicating success."
      },
      "disableFund()": {
        "details": "Disables primary functionality of this RariFundManager so contract(s) can be upgraded."
      },
      "enableFund()": {
        "details": "Enables primary functionality of this RariFundManager once contract(s) are upgraded."
      },
      "getFundBalance()": {
        "details": "Ideally, we can add the view modifier, but Compound's `getUnderlyingBalance` function (called by `getRawFundBalance`) potentially modifies the state."
      },
      "getInterestAccrued()": {
        "details": "Ideally, we can add the view modifier, but Compound's `getUnderlyingBalance` function (called by `getRawFundBalance`) potentially modifies the state."
      },
      "getInterestFeeRate()": {
        "details": "Returns the fee rate on interest."
      },
      "getInterestFeesGenerated()": {
        "details": "Ideally, we can add the view modifier, but Compound's `getUnderlyingBalance` function (called by `getRawFundBalance`) potentially modifies the state."
      },
      "getInterestFeesUnclaimed()": {
        "details": "Returns the total unclaimed amount of interest fees. Ideally, we can add the view modifier, but Compound's `getUnderlyingBalance` function (called by `getRawFundBalance`) potentially modifies the state."
      },
      "getRawFundBalance()": {
        "details": "Ideally, we can add the view modifier, but Compound's `getUnderlyingBalance` function (called by `RariFundController.getPoolBalance`) potentially modifies the state."
      },
      "getRawInterestAccrued()": {
        "details": "Ideally, we can add the view modifier, but Compound's `getUnderlyingBalance` function (called by `getRawFundBalance`) potentially modifies the state."
      },
      "initialize()": {
        "details": "Initializer that sets supported ETH pools."
      },
      "initialize(address)": {
        "details": "Initializes the contract setting the deployer as the initial owner."
      },
      "isOwner()": {
        "details": "Returns true if the caller is the current owner."
      },
      "owner()": {
        "details": "Returns the address of the current owner."
      },
      "renounceOwnership()": {
        "details": "Leaves the contract without owner. It will not be possible to call `onlyOwner` functions anymore. Can only be called by the current owner.     * > Note: Renouncing ownership will leave the contract without an owner, thereby removing any functionality that is only available to the owner."
      },
      "setDefaultAccountBalanceLimit(uint256)": {
        "details": "Sets or upgrades the default account balance limit in ETH.",
        "params": {
          "limitEth": "The default fund balance limit per Ethereum address in ETH."
        }
      },
      "setFundController(address)": {
        "details": "Sets or upgrades the RariFundController of the RariFundManager.",
        "params": {
          "newContract": "The address of the new RariFundController contract."
        }
      },
      "setFundManagerData((int256,int256,int256,uint256))": {
        "details": "Upgrades RariFundManager. Sets data receieved from the old contract.",
        "params": {
          "data": "The data from the old contract necessary to initialize the new contract."
        }
      },
      "setFundProxy(address)": {
        "details": "Sets or upgrades the RariFundProxy of the RariFundManager.",
        "params": {
          "newContract": "The address of the new RariFundProxy contract."
        }
      },
      "setFundRebalancer(address)": {
        "details": "Sets or upgrades the rebalancer of the RariFundManager.",
        "params": {
          "newAddress": "The Ethereum address of the new rebalancer server."
        }
      },
      "setFundToken(address)": {
        "details": "Sets or upgrades the RariFundToken of the RariFundManager.",
        "params": {
          "newContract": "The address of the new RariFundToken contract."
        }
      },
      "setIndividualAccountBalanceLimit(address,int256)": {
        "details": "Sets the balance limit in ETH of `account`.",
        "params": {
          "account": "The Ethereum address to add or remove.",
          "limitEth": "The fund balance limit of `account` in ETH. Use 0 to unset individual limit (and restore account to global limit). Use -1 to disable deposits from `account`."
        }
      },
      "setInterestFeeMasterBeneficiary(address)": {
        "details": "Sets the master beneficiary of interest fees.",
        "params": {
          "beneficiary": "The master beneficiary of fees on interest; i.e., the recipient of all fees on interest."
        }
      },
      "setInterestFeeRate(uint256)": {
        "details": "Sets the fee rate on interest.",
        "params": {
          "rate": "The proportion of interest accrued to be taken as a service fee (scaled by 1e18)."
        }
      },
      "transferOwnership(address)": {
        "details": "Transfers ownership of the contract to a new account (`newOwner`). Can only be called by the current owner."
      },
      "upgradeFundManager(address)": {
        "details": "Upgrades RariFundManager. Sends data to the new contract, sets the new REPT minter, and forwards eth from the old to the new.",
        "params": {
          "newContract": "The address of the new RariFundManager contract."
        }
      },
      "withdraw(uint256)": {
        "params": {
          "amount": "The amount of tokens to be withdrawn."
        },
        "return": "Boolean indicating success."
      },
      "withdrawFees()": {
        "return": "Boolean indicating success."
      },
      "withdrawFrom(address,uint256)": {
        "details": "Withdraws funds from RariFund to `msg.sender` (RariFundProxy) in exchange for REPT burned from `from`. Please note that you must approve RariFundManager to burn of the necessary amount of REPT.",
        "params": {
          "amount": "The amount of tokens to be withdrawn.",
          "from": "The address from which REPT will be burned."
        },
        "return": "Boolean indicating success."
      }
    },
    "title": "RariFundManager"
  },
  "userdoc": {
    "methods": {
      "balanceOf(address)": {
        "notice": "Returns an account's total balance in ETH."
      },
      "deposit()": {
        "notice": "Deposits ETH to RariFund in exchange for REPT."
      },
      "depositFees()": {
        "notice": "Deposits all accrued fees on interest back into the fund on behalf of the master beneficiary."
      },
      "getFundBalance()": {
        "notice": "Returns the fund's total investor balance (all REPT holders' funds but not unclaimed fees) of all currencies in EETH (scaled by 1e18)."
      },
      "getInterestAccrued()": {
        "notice": "Returns the total amount of interest accrued by past and current REPT holders (excluding the fees paid on interest) in USD (scaled by 1e18)."
      },
      "getInterestFeesGenerated()": {
        "notice": "Returns the amount of interest fees accrued by beneficiaries in USD (scaled by 1e18)."
      },
      "getRawFundBalance()": {
        "notice": "Returns the fund's raw total balance (all REPT holders' funds + all unclaimed fees)."
      },
      "getRawInterestAccrued()": {
        "notice": "Returns the raw total amount of interest accrued by the fund as a whole (including the fees paid on interest) in USD (scaled by 1e18)."
      },
      "withdraw(uint256)": {
        "notice": "Withdraws funds from RariFund in exchange for REPT. You may only withdraw currencies held by the fund (see `getRawFundBalance(string currencyCode)`). Please note that you must approve RariFundManager to burn of the necessary amount of REPY."
      },
      "withdrawFees()": {
        "notice": "Withdraws all accrued fees on interest to the master beneficiary."
      }
    }
  }
}