{
  "contractName": "RariFundToken",
  "abi": [
    {
      "anonymous": false,
      "inputs": [
        {
          "indexed": true,
          "internalType": "address",
          "name": "owner",
          "type": "address"
        },
        {
          "indexed": true,
          "internalType": "address",
          "name": "spender",
          "type": "address"
        },
        {
          "indexed": false,
          "internalType": "uint256",
          "name": "value",
          "type": "uint256"
        }
      ],
      "name": "Approval",
      "type": "event"
    },
    {
      "anonymous": false,
      "inputs": [
        {
          "indexed": true,
          "internalType": "address",
          "name": "account",
          "type": "address"
        }
      ],
      "name": "MinterAdded",
      "type": "event"
    },
    {
      "anonymous": false,
      "inputs": [
        {
          "indexed": true,
          "internalType": "address",
          "name": "account",
          "type": "address"
        }
      ],
      "name": "MinterRemoved",
      "type": "event"
    },
    {
      "anonymous": false,
      "inputs": [
        {
          "indexed": true,
          "internalType": "address",
          "name": "from",
          "type": "address"
        },
        {
          "indexed": true,
          "internalType": "address",
          "name": "to",
          "type": "address"
        },
        {
          "indexed": false,
          "internalType": "uint256",
          "name": "value",
          "type": "uint256"
        }
      ],
      "name": "Transfer",
      "type": "event"
    },
    {
      "constant": false,
      "inputs": [
        {
          "internalType": "address",
          "name": "account",
          "type": "address"
        }
      ],
      "name": "addMinter",
      "outputs": [],
      "payable": false,
      "stateMutability": "nonpayable",
      "type": "function"
    },
    {
      "constant": true,
      "inputs": [
        {
          "internalType": "address",
          "name": "owner",
          "type": "address"
        },
        {
          "internalType": "address",
          "name": "spender",
          "type": "address"
        }
      ],
      "name": "allowance",
      "outputs": [
        {
          "internalType": "uint256",
          "name": "",
          "type": "uint256"
        }
      ],
      "payable": false,
      "stateMutability": "view",
      "type": "function"
    },
    {
      "constant": false,
      "inputs": [
        {
          "internalType": "address",
          "name": "spender",
          "type": "address"
        },
        {
          "internalType": "uint256",
          "name": "amount",
          "type": "uint256"
        }
      ],
      "name": "approve",
      "outputs": [
        {
          "internalType": "bool",
          "name": "",
          "type": "bool"
        }
      ],
      "payable": false,
      "stateMutability": "nonpayable",
      "type": "function"
    },
    {
      "constant": true,
      "inputs": [
        {
          "internalType": "address",
          "name": "account",
          "type": "address"
        }
      ],
      "name": "balanceOf",
      "outputs": [
        {
          "internalType": "uint256",
          "name": "",
          "type": "uint256"
        }
      ],
      "payable": false,
      "stateMutability": "view",
      "type": "function"
    },
    {
      "constant": false,
      "inputs": [
        {
          "internalType": "uint256",
          "name": "amount",
          "type": "uint256"
        }
      ],
      "name": "burn",
      "outputs": [],
      "payable": false,
      "stateMutability": "nonpayable",
      "type": "function"
    },
    {
      "constant": false,
      "inputs": [
        {
          "internalType": "address",
          "name": "account",
          "type": "address"
        },
        {
          "internalType": "uint256",
          "name": "amount",
          "type": "uint256"
        }
      ],
      "name": "burnFrom",
      "outputs": [],
      "payable": false,
      "stateMutability": "nonpayable",
      "type": "function"
    },
    {
      "constant": true,
      "inputs": [],
      "name": "decimals",
      "outputs": [
        {
          "internalType": "uint8",
          "name": "",
          "type": "uint8"
        }
      ],
      "payable": false,
      "stateMutability": "view",
      "type": "function"
    },
    {
      "constant": false,
      "inputs": [
        {
          "internalType": "address",
          "name": "spender",
          "type": "address"
        },
        {
          "internalType": "uint256",
          "name": "subtractedValue",
          "type": "uint256"
        }
      ],
      "name": "decreaseAllowance",
      "outputs": [
        {
          "internalType": "bool",
          "name": "",
          "type": "bool"
        }
      ],
      "payable": false,
      "stateMutability": "nonpayable",
      "type": "function"
    },
    {
      "constant": false,
      "inputs": [
        {
          "internalType": "address",
          "name": "spender",
          "type": "address"
        },
        {
          "internalType": "uint256",
          "name": "addedValue",
          "type": "uint256"
        }
      ],
      "name": "increaseAllowance",
      "outputs": [
        {
          "internalType": "bool",
          "name": "",
          "type": "bool"
        }
      ],
      "payable": false,
      "stateMutability": "nonpayable",
      "type": "function"
    },
    {
      "constant": true,
      "inputs": [
        {
          "internalType": "address",
          "name": "account",
          "type": "address"
        }
      ],
      "name": "isMinter",
      "outputs": [
        {
          "internalType": "bool",
          "name": "",
          "type": "bool"
        }
      ],
      "payable": false,
      "stateMutability": "view",
      "type": "function"
    },
    {
      "constant": false,
      "inputs": [
        {
          "internalType": "address",
          "name": "account",
          "type": "address"
        },
        {
          "internalType": "uint256",
          "name": "amount",
          "type": "uint256"
        }
      ],
      "name": "mint",
      "outputs": [
        {
          "internalType": "bool",
          "name": "",
          "type": "bool"
        }
      ],
      "payable": false,
      "stateMutability": "nonpayable",
      "type": "function"
    },
    {
      "constant": true,
      "inputs": [],
      "name": "name",
      "outputs": [
        {
          "internalType": "string",
          "name": "",
          "type": "string"
        }
      ],
      "payable": false,
      "stateMutability": "view",
      "type": "function"
    },
    {
      "constant": false,
      "inputs": [],
      "name": "renounceMinter",
      "outputs": [],
      "payable": false,
      "stateMutability": "nonpayable",
      "type": "function"
    },
    {
      "constant": true,
      "inputs": [],
      "name": "symbol",
      "outputs": [
        {
          "internalType": "string",
          "name": "",
          "type": "string"
        }
      ],
      "payable": false,
      "stateMutability": "view",
      "type": "function"
    },
    {
      "constant": true,
      "inputs": [],
      "name": "totalSupply",
      "outputs": [
        {
          "internalType": "uint256",
          "name": "",
          "type": "uint256"
        }
      ],
      "payable": false,
      "stateMutability": "view",
      "type": "function"
    },
    {
      "constant": false,
      "inputs": [
        {
          "internalType": "address",
          "name": "recipient",
          "type": "address"
        },
        {
          "internalType": "uint256",
          "name": "amount",
          "type": "uint256"
        }
      ],
      "name": "transfer",
      "outputs": [
        {
          "internalType": "bool",
          "name": "",
          "type": "bool"
        }
      ],
      "payable": false,
      "stateMutability": "nonpayable",
      "type": "function"
    },
    {
      "constant": false,
      "inputs": [
        {
          "internalType": "address",
          "name": "sender",
          "type": "address"
        },
        {
          "internalType": "address",
          "name": "recipient",
          "type": "address"
        },
        {
          "internalType": "uint256",
          "name": "amount",
          "type": "uint256"
        }
      ],
      "name": "transferFrom",
      "outputs": [
        {
          "internalType": "bool",
          "name": "",
          "type": "bool"
        }
      ],
      "payable": false,
      "stateMutability": "nonpayable",
      "type": "function"
    },
    {
      "constant": false,
      "inputs": [
        {
          "internalType": "string",
          "name": "name",
          "type": "string"
        },
        {
          "internalType": "string",
          "name": "symbol",
          "type": "string"
        },
        {
          "internalType": "uint8",
          "name": "decimals",
          "type": "uint8"
        }
      ],
      "name": "initialize",
      "outputs": [],
      "payable": false,
      "stateMutability": "nonpayable",
      "type": "function"
    },
    {
      "constant": false,
      "inputs": [],
      "name": "initialize",
      "outputs": [],
      "payable": false,
      "stateMutability": "nonpayable",
      "type": "function"
    },
    {
      "constant": false,
      "inputs": [
        {
          "internalType": "address",
          "name": "sender",
          "type": "address"
        }
      ],
      "name": "initialize",
      "outputs": [],
      "payable": false,
      "stateMutability": "nonpayable",
      "type": "function"
    }
  ],
  "bytecode": "0x60806040526116dd806100136000396000f3fe608060405234801561001057600080fd5b506004361061012c5760003560e01c806379cc6790116100ad578063a457c2d711610071578063a457c2d714610495578063a9059cbb146104c1578063aa271e1a146104ed578063c4d66de814610513578063dd62ed3e146105395761012c565b806379cc67901461042b5780638129fc1c1461045757806395d89b411461045f578063983b2d5614610467578063986502751461048d5761012c565b8063313ce567116100f4578063313ce56714610372578063395093511461039057806340c10f19146103bc57806342966c68146103e857806370a08231146104055761012c565b806306fdde0314610131578063095ea7b3146101ae5780631624f6c6146101ee57806318160ddd1461032257806323b872dd1461033c575b600080fd5b610139610567565b6040805160208082528351818301528351919283929083019185019080838360005b8381101561017357818101518382015260200161015b565b50505050905090810190601f1680156101a05780820380516001836020036101000a031916815260200191505b509250505060405180910390f35b6101da600480360360408110156101c457600080fd5b506001600160a01b0381351690602001356105fe565b604080519115158252519081900360200190f35b6103206004803603606081101561020457600080fd5b81019060208101813564010000000081111561021f57600080fd5b82018360208201111561023157600080fd5b8035906020019184600183028401116401000000008311171561025357600080fd5b91908080601f01602080910402602001604051908101604052809392919081815260200183838082843760009201919091525092959493602081019350359150506401000000008111156102a657600080fd5b8201836020820111156102b857600080fd5b803590602001918460018302840111640100000000831117156102da57600080fd5b91908080601f0160208091040260200160405190810160405280939291908181526020018383808284376000920191909152509295505050903560ff16915061061b9050565b005b61032a6106f7565b60408051918252519081900360200190f35b6101da6004803603606081101561035257600080fd5b506001600160a01b038135811691602081013590911690604001356106fd565b61037a61078a565b6040805160ff9092168252519081900360200190f35b6101da600480360360408110156103a657600080fd5b506001600160a01b038135169060200135610793565b6101da600480360360408110156103d257600080fd5b506001600160a01b0381351690602001356107e7565b610320600480360360208110156103fe57600080fd5b503561083e565b61032a6004803603602081101561041b57600080fd5b50356001600160a01b0316610852565b6103206004803603604081101561044157600080fd5b506001600160a01b03813516906020013561086d565b61032061087b565b610139610982565b6103206004803603602081101561047d57600080fd5b50356001600160a01b03166109e3565b610320610a32565b6101da600480360360408110156104ab57600080fd5b506001600160a01b038135169060200135610a44565b6101da600480360360408110156104d757600080fd5b506001600160a01b038135169060200135610ab2565b6101da6004803603602081101561050357600080fd5b50356001600160a01b0316610ac6565b6103206004803603602081101561052957600080fd5b50356001600160a01b0316610adf565b61032a6004803603604081101561054f57600080fd5b506001600160a01b0381358116916020013516610b8a565b60688054604080516020601f60026000196101006001881615020190951694909404938401819004810282018101909252828152606093909290918301828280156105f35780601f106105c8576101008083540402835291602001916105f3565b820191906000526020600020905b8154815290600101906020018083116105d657829003601f168201915b505050505090505b90565b600061061261060b610bb5565b8484610bb9565b50600192915050565b600054610100900460ff16806106345750610634610ca5565b80610642575060005460ff16155b61067d5760405162461bcd60e51b815260040180806020018281038252602e8152602001806115c8602e913960400191505060405180910390fd5b600054610100900460ff161580156106a8576000805460ff1961ff0019909116610100171660011790555b83516106bb906068906020870190611407565b5082516106cf906069906020860190611407565b50606a805460ff191660ff841617905580156106f1576000805461ff00191690555b50505050565b60355490565b600061070a848484610cab565b61078084610716610bb5565b61077b8560405180606001604052806028815260200161157e602891396001600160a01b038a16600090815260346020526040812090610754610bb5565b6001600160a01b03168152602081019190915260400160002054919063ffffffff610e0916565b610bb9565b5060019392505050565b606a5460ff1690565b60006106126107a0610bb5565b8461077b85603460006107b1610bb5565b6001600160a01b03908116825260208083019390935260409182016000908120918c16815292529020549063ffffffff610ea016565b60006107f96107f4610bb5565b610ac6565b6108345760405162461bcd60e51b815260040180806020018281038252603081526020018061152d6030913960400191505060405180910390fd5b6106128383610f01565b61084f610849610bb5565b82610ff3565b50565b6001600160a01b031660009081526033602052604090205490565b61087782826110ef565b5050565b600054610100900460ff16806108945750610894610ca5565b806108a2575060005460ff16155b6108dd5760405162461bcd60e51b815260040180806020018281038252602e8152602001806115c8602e913960400191505060405180910390fd5b600054610100900460ff16158015610908576000805460ff1961ff0019909116610100171660011790555b6109656040518060400160405280601881526020017f5261726920457468657265756d20506f6f6c20546f6b656e0000000000000000815250604051806040016040528060048152602001631491541560e21b815250601261061b565b61096e33610adf565b801561084f576000805461ff001916905550565b60698054604080516020601f60026000196101006001881615020190951694909404938401819004810282018101909252828152606093909290918301828280156105f35780601f106105c8576101008083540402835291602001916105f3565b6109ee6107f4610bb5565b610a295760405162461bcd60e51b815260040180806020018281038252603081526020018061152d6030913960400191505060405180910390fd5b61084f81611143565b610a42610a3d610bb5565b61118b565b565b6000610612610a51610bb5565b8461077b856040518060600160405280602581526020016116846025913960346000610a7b610bb5565b6001600160a01b03908116825260208083019390935260409182016000908120918d1681529252902054919063ffffffff610e0916565b6000610612610abf610bb5565b8484610cab565b6000610ad9609d8363ffffffff6111d316565b92915050565b600054610100900460ff1680610af85750610af8610ca5565b80610b06575060005460ff16155b610b415760405162461bcd60e51b815260040180806020018281038252602e8152602001806115c8602e913960400191505060405180910390fd5b600054610100900460ff16158015610b6c576000805460ff1961ff0019909116610100171660011790555b610b758261123a565b8015610877576000805461ff00191690555050565b6001600160a01b03918216600090815260346020908152604080832093909416825291909152205490565b3390565b6001600160a01b038316610bfe5760405162461bcd60e51b81526004018080602001828103825260248152602001806116606024913960400191505060405180910390fd5b6001600160a01b038216610c435760405162461bcd60e51b81526004018080602001828103825260228152602001806114e56022913960400191505060405180910390fd5b6001600160a01b03808416600081815260346020908152604080832094871680845294825291829020859055815185815291517f8c5be1e5ebec7d5bd14f71427d1e84f3dd0314c0f7b2291e5b200ac8c7c3b9259281900390910190a3505050565b303b1590565b6001600160a01b038316610cf05760405162461bcd60e51b815260040180806020018281038252602581526020018061163b6025913960400191505060405180910390fd5b6001600160a01b038216610d355760405162461bcd60e51b81526004018080602001828103825260238152602001806114a06023913960400191505060405180910390fd5b610d7881604051806060016040528060268152602001611507602691396001600160a01b038616600090815260336020526040902054919063ffffffff610e0916565b6001600160a01b038085166000908152603360205260408082209390935590841681522054610dad908263ffffffff610ea016565b6001600160a01b0380841660008181526033602090815260409182902094909455805185815290519193928716927fddf252ad1be2c89b69c2b068fc378daa952ba7f163c4a11628f55a4df523b3ef92918290030190a3505050565b60008184841115610e985760405162461bcd60e51b81526004018080602001828103825283818151815260200191508051906020019080838360005b83811015610e5d578181015183820152602001610e45565b50505050905090810190601f168015610e8a5780820380516001836020036101000a031916815260200191505b509250505060405180910390fd5b505050900390565b600082820183811015610efa576040805162461bcd60e51b815260206004820152601b60248201527f536166654d6174683a206164646974696f6e206f766572666c6f770000000000604482015290519081900360640190fd5b9392505050565b6001600160a01b038216610f5c576040805162461bcd60e51b815260206004820152601f60248201527f45524332303a206d696e7420746f20746865207a65726f206164647265737300604482015290519081900360640190fd5b603554610f6f908263ffffffff610ea016565b6035556001600160a01b038216600090815260336020526040902054610f9b908263ffffffff610ea016565b6001600160a01b03831660008181526033602090815260408083209490945583518581529351929391927fddf252ad1be2c89b69c2b068fc378daa952ba7f163c4a11628f55a4df523b3ef9281900390910190a35050565b6001600160a01b0382166110385760405162461bcd60e51b815260040180806020018281038252602181526020018061161a6021913960400191505060405180910390fd5b61107b816040518060600160405280602281526020016114c3602291396001600160a01b038516600090815260336020526040902054919063ffffffff610e0916565b6001600160a01b0383166000908152603360205260409020556035546110a7908263ffffffff6112dd16565b6035556040805182815290516000916001600160a01b038516917fddf252ad1be2c89b69c2b068fc378daa952ba7f163c4a11628f55a4df523b3ef9181900360200190a35050565b6110f98282610ff3565b61087782611105610bb5565b61077b846040518060600160405280602481526020016115f6602491396001600160a01b038816600090815260346020526040812090610754610bb5565b611154609d8263ffffffff61131f16565b6040516001600160a01b038216907f6ae172837ea30b801fbfcdd4108aa1d5bf8ff775444fd70256b44e6bf3dfc3f690600090a250565b61119c609d8263ffffffff6113a016565b6040516001600160a01b038216907fe94479a9f7e1952cc78f2d6baab678adc1b772d936c6583def489e524cb6669290600090a250565b60006001600160a01b03821661121a5760405162461bcd60e51b81526004018080602001828103825260228152602001806115a66022913960400191505060405180910390fd5b506001600160a01b03166000908152602091909152604090205460ff1690565b600054610100900460ff16806112535750611253610ca5565b80611261575060005460ff16155b61129c5760405162461bcd60e51b815260040180806020018281038252602e8152602001806115c8602e913960400191505060405180910390fd5b600054610100900460ff161580156112c7576000805460ff1961ff0019909116610100171660011790555b6112d082610ac6565b610b7557610b7582611143565b6000610efa83836040518060400160405280601e81526020017f536166654d6174683a207375627472616374696f6e206f766572666c6f770000815250610e09565b61132982826111d3565b1561137b576040805162461bcd60e51b815260206004820152601f60248201527f526f6c65733a206163636f756e7420616c72656164792068617320726f6c6500604482015290519081900360640190fd5b6001600160a01b0316600090815260209190915260409020805460ff19166001179055565b6113aa82826111d3565b6113e55760405162461bcd60e51b815260040180806020018281038252602181526020018061155d6021913960400191505060405180910390fd5b6001600160a01b0316600090815260209190915260409020805460ff19169055565b828054600181600116156101000203166002900490600052602060002090601f016020900481019282601f1061144857805160ff1916838001178555611475565b82800160010185558215611475579182015b8281111561147557825182559160200191906001019061145a565b50611481929150611485565b5090565b6105fb91905b80821115611481576000815560010161148b56fe45524332303a207472616e7366657220746f20746865207a65726f206164647265737345524332303a206275726e20616d6f756e7420657863656564732062616c616e636545524332303a20617070726f766520746f20746865207a65726f206164647265737345524332303a207472616e7366657220616d6f756e7420657863656564732062616c616e63654d696e746572526f6c653a2063616c6c657220646f6573206e6f74206861766520746865204d696e74657220726f6c65526f6c65733a206163636f756e7420646f6573206e6f74206861766520726f6c6545524332303a207472616e7366657220616d6f756e74206578636565647320616c6c6f77616e6365526f6c65733a206163636f756e7420697320746865207a65726f2061646472657373436f6e747261637420696e7374616e63652068617320616c7265616479206265656e20696e697469616c697a656445524332303a206275726e20616d6f756e74206578636565647320616c6c6f77616e636545524332303a206275726e2066726f6d20746865207a65726f206164647265737345524332303a207472616e736665722066726f6d20746865207a65726f206164647265737345524332303a20617070726f76652066726f6d20746865207a65726f206164647265737345524332303a2064656372656173656420616c6c6f77616e63652062656c6f77207a65726fa265627a7a72315820fa39ec7c9d6ec2f989b1278f6e03d81e80391bb937b09f990650a012bfb4216264736f6c63430005110032",
  "source": "/**\n * @file\n * @author David Lucid <david@rari.capital>\n *\n * @section LICENSE\n *\n * All rights reserved to David Lucid of David Lucid LLC.\n * Any disclosure, reproduction, distribution or other use of this code by any individual or entity other than David Lucid of David Lucid LLC, unless given explicit permission by David Lucid of David Lucid LLC, is prohibited.\n *\n * @section DESCRIPTION\n *\n * This file includes the Ethereum contract code for rETH, the ERC20 token contract accounting for the ownership of the funds invested in Rari Capital's RariFund.\n */\n\npragma solidity ^0.5.7;\n\nimport \"@openzeppelin/upgrades/contracts/Initializable.sol\";\n\nimport \"@openzeppelin/contracts-ethereum-package/contracts/math/SafeMath.sol\";\nimport \"@openzeppelin/contracts-ethereum-package/contracts/token/ERC20/ERC20.sol\";\nimport \"@openzeppelin/contracts-ethereum-package/contracts/token/ERC20/ERC20Detailed.sol\";\nimport \"@openzeppelin/contracts-ethereum-package/contracts/token/ERC20/ERC20Mintable.sol\";\nimport \"@openzeppelin/contracts-ethereum-package/contracts/token/ERC20/ERC20Burnable.sol\";\n\n// REFT\n\n/**\n * @title RariFundToken (ETH Fund)\n * @dev REPT is the ERC20 token contract accounting for the ownership of Rari Ethereum Fund's funds.\n */\ncontract RariFundToken is Initializable, ERC20, ERC20Detailed, ERC20Mintable, ERC20Burnable {\n    using SafeMath for uint256;\n\n    /**\n     * @dev Initializer for REPT.\n     */\n    function initialize() public initializer {\n        ERC20Detailed.initialize(\"Rari Ethereum Pool Token\", \"REPT\", 18);\n        ERC20Mintable.initialize(msg.sender);\n    }\n}\n",
  "sourcePath": "/Users/richter/Projects/Cloud/rari-work/rari-eth-contracts/contracts/RariFundToken.sol",
  "compiler": {
    "name": "solc",
    "version": "0.5.17+commit.d19bba13.Emscripten.clang"
  },
  "schemaVersion": "3.2.3",
  "updatedAt": "2020-10-09T05:26:08.028Z",
  "devdoc": {
    "details": "REPT is the ERC20 token contract accounting for the ownership of Rari Ethereum Fund's funds.",
    "methods": {
      "allowance(address,address)": {
        "details": "See {IERC20-allowance}."
      },
      "approve(address,uint256)": {
        "details": "See {IERC20-approve}.     * Requirements:     * - `spender` cannot be the zero address."
      },
      "balanceOf(address)": {
        "details": "See {IERC20-balanceOf}."
      },
      "burn(uint256)": {
        "details": "Destroys `amount` tokens from the caller.     * See {ERC20-_burn}."
      },
      "burnFrom(address,uint256)": {
        "details": "See {ERC20-_burnFrom}."
      },
      "decimals()": {
        "details": "Returns the number of decimals used to get its user representation. For example, if `decimals` equals `2`, a balance of `505` tokens should be displayed to a user as `5,05` (`505 / 10 ** 2`).     * Tokens usually opt for a value of 18, imitating the relationship between Ether and Wei.     * NOTE: This information is only used for _display_ purposes: it in no way affects any of the arithmetic of the contract, including {IERC20-balanceOf} and {IERC20-transfer}."
      },
      "decreaseAllowance(address,uint256)": {
        "details": "Atomically decreases the allowance granted to `spender` by the caller.     * This is an alternative to {approve} that can be used as a mitigation for problems described in {IERC20-approve}.     * Emits an {Approval} event indicating the updated allowance.     * Requirements:     * - `spender` cannot be the zero address. - `spender` must have allowance for the caller of at least `subtractedValue`."
      },
      "increaseAllowance(address,uint256)": {
        "details": "Atomically increases the allowance granted to `spender` by the caller.     * This is an alternative to {approve} that can be used as a mitigation for problems described in {IERC20-approve}.     * Emits an {Approval} event indicating the updated allowance.     * Requirements:     * - `spender` cannot be the zero address."
      },
      "initialize()": {
        "details": "Initializer for REPT."
      },
      "initialize(string,string,uint8)": {
        "details": "Sets the values for `name`, `symbol`, and `decimals`. All three of these values are immutable: they can only be set once during construction."
      },
      "mint(address,uint256)": {
        "details": "See {ERC20-_mint}.     * Requirements:     * - the caller must have the {MinterRole}."
      },
      "name()": {
        "details": "Returns the name of the token."
      },
      "symbol()": {
        "details": "Returns the symbol of the token, usually a shorter version of the name."
      },
      "totalSupply()": {
        "details": "See {IERC20-totalSupply}."
      },
      "transfer(address,uint256)": {
        "details": "See {IERC20-transfer}.     * Requirements:     * - `recipient` cannot be the zero address. - the caller must have a balance of at least `amount`."
      },
      "transferFrom(address,address,uint256)": {
        "details": "See {IERC20-transferFrom}.     * Emits an {Approval} event indicating the updated allowance. This is not required by the EIP. See the note at the beginning of {ERC20};     * Requirements: - `sender` and `recipient` cannot be the zero address. - `sender` must have a balance of at least `amount`. - the caller must have allowance for `sender`'s tokens of at least `amount`."
      }
    },
    "title": "RariFundToken (ETH Fund)"
  },
  "userdoc": {
    "methods": {}
  }
}