{
  "contractName": "RariFundProxy",
  "abi": [
    {
      "inputs": [],
      "payable": false,
      "stateMutability": "nonpayable",
      "type": "constructor"
    },
    {
      "anonymous": false,
      "inputs": [
        {
          "indexed": false,
          "internalType": "address",
          "name": "newContract",
          "type": "address"
        }
      ],
      "name": "FundManagerSet",
      "type": "event"
    },
    {
      "anonymous": false,
      "inputs": [
        {
          "indexed": false,
          "internalType": "address",
          "name": "newAddress",
          "type": "address"
        }
      ],
      "name": "GsnTrustedSignerSet",
      "type": "event"
    },
    {
      "anonymous": false,
      "inputs": [
        {
          "indexed": true,
          "internalType": "address",
          "name": "previousOwner",
          "type": "address"
        },
        {
          "indexed": true,
          "internalType": "address",
          "name": "newOwner",
          "type": "address"
        }
      ],
      "name": "OwnershipTransferred",
      "type": "event"
    },
    {
      "anonymous": false,
      "inputs": [
        {
          "indexed": true,
          "internalType": "address",
          "name": "outputErc20Contract",
          "type": "address"
        },
        {
          "indexed": true,
          "internalType": "address",
          "name": "payee",
          "type": "address"
        },
        {
          "indexed": false,
          "internalType": "uint256",
          "name": "withdrawalAmount",
          "type": "uint256"
        },
        {
          "indexed": false,
          "internalType": "uint256",
          "name": "takerAssetFilledAmount",
          "type": "uint256"
        }
      ],
      "name": "PostWithdrawalExchange",
      "type": "event"
    },
    {
      "anonymous": false,
      "inputs": [
        {
          "indexed": true,
          "internalType": "address",
          "name": "inputErc20Contract",
          "type": "address"
        },
        {
          "indexed": true,
          "internalType": "address",
          "name": "payee",
          "type": "address"
        },
        {
          "indexed": false,
          "internalType": "uint256",
          "name": "makerAssetFilledAmount",
          "type": "uint256"
        },
        {
          "indexed": false,
          "internalType": "uint256",
          "name": "depositAmount",
          "type": "uint256"
        }
      ],
      "name": "PreDepositExchange",
      "type": "event"
    },
    {
      "anonymous": false,
      "inputs": [
        {
          "indexed": true,
          "internalType": "address",
          "name": "oldRelayHub",
          "type": "address"
        },
        {
          "indexed": true,
          "internalType": "address",
          "name": "newRelayHub",
          "type": "address"
        }
      ],
      "name": "RelayHubChanged",
      "type": "event"
    },
    {
      "payable": true,
      "stateMutability": "payable",
      "type": "fallback"
    },
    {
      "constant": true,
      "inputs": [],
      "name": "VERSION",
      "outputs": [
        {
          "internalType": "string",
          "name": "",
          "type": "string"
        }
      ],
      "payable": false,
      "stateMutability": "view",
      "type": "function"
    },
    {
      "constant": true,
      "inputs": [],
      "name": "getHubAddr",
      "outputs": [
        {
          "internalType": "address",
          "name": "",
          "type": "address"
        }
      ],
      "payable": false,
      "stateMutability": "view",
      "type": "function"
    },
    {
      "constant": false,
      "inputs": [],
      "name": "initialize",
      "outputs": [],
      "payable": false,
      "stateMutability": "nonpayable",
      "type": "function"
    },
    {
      "constant": false,
      "inputs": [
        {
          "internalType": "address",
          "name": "sender",
          "type": "address"
        }
      ],
      "name": "initialize",
      "outputs": [],
      "payable": false,
      "stateMutability": "nonpayable",
      "type": "function"
    },
    {
      "constant": true,
      "inputs": [],
      "name": "isOwner",
      "outputs": [
        {
          "internalType": "bool",
          "name": "",
          "type": "bool"
        }
      ],
      "payable": false,
      "stateMutability": "view",
      "type": "function"
    },
    {
      "constant": true,
      "inputs": [],
      "name": "owner",
      "outputs": [
        {
          "internalType": "address",
          "name": "",
          "type": "address"
        }
      ],
      "payable": false,
      "stateMutability": "view",
      "type": "function"
    },
    {
      "constant": false,
      "inputs": [
        {
          "internalType": "bytes",
          "name": "context",
          "type": "bytes"
        },
        {
          "internalType": "bool",
          "name": "success",
          "type": "bool"
        },
        {
          "internalType": "uint256",
          "name": "actualCharge",
          "type": "uint256"
        },
        {
          "internalType": "bytes32",
          "name": "preRetVal",
          "type": "bytes32"
        }
      ],
      "name": "postRelayedCall",
      "outputs": [],
      "payable": false,
      "stateMutability": "nonpayable",
      "type": "function"
    },
    {
      "constant": false,
      "inputs": [
        {
          "internalType": "bytes",
          "name": "context",
          "type": "bytes"
        }
      ],
      "name": "preRelayedCall",
      "outputs": [
        {
          "internalType": "bytes32",
          "name": "",
          "type": "bytes32"
        }
      ],
      "payable": false,
      "stateMutability": "nonpayable",
      "type": "function"
    },
    {
      "constant": true,
      "inputs": [],
      "name": "relayHubVersion",
      "outputs": [
        {
          "internalType": "string",
          "name": "",
          "type": "string"
        }
      ],
      "payable": false,
      "stateMutability": "view",
      "type": "function"
    },
    {
      "constant": false,
      "inputs": [],
      "name": "renounceOwnership",
      "outputs": [],
      "payable": false,
      "stateMutability": "nonpayable",
      "type": "function"
    },
    {
      "constant": false,
      "inputs": [],
      "name": "setDefaultRelayHub",
      "outputs": [],
      "payable": false,
      "stateMutability": "nonpayable",
      "type": "function"
    },
    {
      "constant": false,
      "inputs": [
        {
          "internalType": "address",
          "name": "newOwner",
          "type": "address"
        }
      ],
      "name": "transferOwnership",
      "outputs": [],
      "payable": false,
      "stateMutability": "nonpayable",
      "type": "function"
    },
    {
      "constant": false,
      "inputs": [
        {
          "internalType": "address payable",
          "name": "newContract",
          "type": "address"
        }
      ],
      "name": "setFundManager",
      "outputs": [],
      "payable": false,
      "stateMutability": "nonpayable",
      "type": "function"
    },
    {
      "constant": false,
      "inputs": [
        {
          "internalType": "address",
          "name": "newAddress",
          "type": "address"
        }
      ],
      "name": "setGsnTrustedSigner",
      "outputs": [],
      "payable": false,
      "stateMutability": "nonpayable",
      "type": "function"
    },
    {
      "constant": false,
      "inputs": [
        {
          "internalType": "address",
          "name": "inputErc20Contract",
          "type": "address"
        },
        {
          "internalType": "uint256",
          "name": "inputAmount",
          "type": "uint256"
        },
        {
          "components": [
            {
              "internalType": "address",
              "name": "makerAddress",
              "type": "address"
            },
            {
              "internalType": "address",
              "name": "takerAddress",
              "type": "address"
            },
            {
              "internalType": "address",
              "name": "feeRecipientAddress",
              "type": "address"
            },
            {
              "internalType": "address",
              "name": "senderAddress",
              "type": "address"
            },
            {
              "internalType": "uint256",
              "name": "makerAssetAmount",
              "type": "uint256"
            },
            {
              "internalType": "uint256",
              "name": "takerAssetAmount",
              "type": "uint256"
            },
            {
              "internalType": "uint256",
              "name": "makerFee",
              "type": "uint256"
            },
            {
              "internalType": "uint256",
              "name": "takerFee",
              "type": "uint256"
            },
            {
              "internalType": "uint256",
              "name": "expirationTimeSeconds",
              "type": "uint256"
            },
            {
              "internalType": "uint256",
              "name": "salt",
              "type": "uint256"
            },
            {
              "internalType": "bytes",
              "name": "makerAssetData",
              "type": "bytes"
            },
            {
              "internalType": "bytes",
              "name": "takerAssetData",
              "type": "bytes"
            },
            {
              "internalType": "bytes",
              "name": "makerFeeAssetData",
              "type": "bytes"
            },
            {
              "internalType": "bytes",
              "name": "takerFeeAssetData",
              "type": "bytes"
            }
          ],
          "internalType": "struct LibOrder.Order[]",
          "name": "orders",
          "type": "tuple[]"
        },
        {
          "internalType": "bytes[]",
          "name": "signatures",
          "type": "bytes[]"
        },
        {
          "internalType": "uint256",
          "name": "takerAssetFillAmount",
          "type": "uint256"
        }
      ],
      "name": "exchangeAndDeposit",
      "outputs": [],
      "payable": true,
      "stateMutability": "payable",
      "type": "function"
    },
    {
      "constant": false,
      "inputs": [
        {
          "internalType": "uint256",
          "name": "inputAmount",
          "type": "uint256"
        },
        {
          "internalType": "address",
          "name": "outputErc20Contract",
          "type": "address"
        },
        {
          "components": [
            {
              "internalType": "address",
              "name": "makerAddress",
              "type": "address"
            },
            {
              "internalType": "address",
              "name": "takerAddress",
              "type": "address"
            },
            {
              "internalType": "address",
              "name": "feeRecipientAddress",
              "type": "address"
            },
            {
              "internalType": "address",
              "name": "senderAddress",
              "type": "address"
            },
            {
              "internalType": "uint256",
              "name": "makerAssetAmount",
              "type": "uint256"
            },
            {
              "internalType": "uint256",
              "name": "takerAssetAmount",
              "type": "uint256"
            },
            {
              "internalType": "uint256",
              "name": "makerFee",
              "type": "uint256"
            },
            {
              "internalType": "uint256",
              "name": "takerFee",
              "type": "uint256"
            },
            {
              "internalType": "uint256",
              "name": "expirationTimeSeconds",
              "type": "uint256"
            },
            {
              "internalType": "uint256",
              "name": "salt",
              "type": "uint256"
            },
            {
              "internalType": "bytes",
              "name": "makerAssetData",
              "type": "bytes"
            },
            {
              "internalType": "bytes",
              "name": "takerAssetData",
              "type": "bytes"
            },
            {
              "internalType": "bytes",
              "name": "makerFeeAssetData",
              "type": "bytes"
            },
            {
              "internalType": "bytes",
              "name": "takerFeeAssetData",
              "type": "bytes"
            }
          ],
          "internalType": "struct LibOrder.Order[]",
          "name": "orders",
          "type": "tuple[]"
        },
        {
          "internalType": "bytes[]",
          "name": "signatures",
          "type": "bytes[]"
        },
        {
          "internalType": "uint256",
          "name": "makerAssetFillAmount",
          "type": "uint256"
        }
      ],
      "name": "withdrawAndExchange",
      "outputs": [],
      "payable": true,
      "stateMutability": "payable",
      "type": "function"
    },
    {
      "constant": false,
      "inputs": [],
      "name": "deposit",
      "outputs": [
        {
          "internalType": "bool",
          "name": "",
          "type": "bool"
        }
      ],
      "payable": true,
      "stateMutability": "payable",
      "type": "function"
    },
    {
      "constant": true,
      "inputs": [
        {
          "internalType": "address",
          "name": "relay",
          "type": "address"
        },
        {
          "internalType": "address",
          "name": "from",
          "type": "address"
        },
        {
          "internalType": "bytes",
          "name": "encodedFunction",
          "type": "bytes"
        },
        {
          "internalType": "uint256",
          "name": "transactionFee",
          "type": "uint256"
        },
        {
          "internalType": "uint256",
          "name": "gasPrice",
          "type": "uint256"
        },
        {
          "internalType": "uint256",
          "name": "gasLimit",
          "type": "uint256"
        },
        {
          "internalType": "uint256",
          "name": "nonce",
          "type": "uint256"
        },
        {
          "internalType": "bytes",
          "name": "approvalData",
          "type": "bytes"
        },
        {
          "internalType": "uint256",
          "name": "",
          "type": "uint256"
        }
      ],
      "name": "acceptRelayedCall",
      "outputs": [
        {
          "internalType": "uint256",
          "name": "",
          "type": "uint256"
        },
        {
          "internalType": "bytes",
          "name": "",
          "type": "bytes"
        }
      ],
      "payable": false,
      "stateMutability": "view",
      "type": "function"
    }
  ],
  "bytecode": "0x608060405234801561001057600080fd5b506133e6806100206000396000f3fe6080604052600436106101095760003560e01c80638da5cb5b11610095578063c4d66de811610064578063c4d66de81461028f578063d0e30db0146102af578063e06e0e22146102b7578063f2fde38b146102d7578063ffa1ad74146102f757610109565b80638da5cb5b146102235780638f32d59b14610238578063ad61ccd51461025a578063b56f0e1c1461027c57610109565b8063715018a6116100dc578063715018a61461017357806374e861d61461018857806380274db7146101b35780638129fc1c146101e057806383947ea0146101f557610109565b806311faa1311461010b5780631220e2ff1461011e578063232a3060146101335780634434ac3d14610153575b005b6101096101193660046121fa565b61030c565b34801561012a57600080fd5b50610109610781565b34801561013f57600080fd5b5061010961014e3660046120e0565b6107a0565b34801561015f57600080fd5b5061010961016e3660046120e0565b610976565b34801561017f57600080fd5b506101096109e5565b34801561019457600080fd5b5061019d610a53565b6040516101aa9190612f67565b60405180910390f35b3480156101bf57600080fd5b506101d36101ce3660046122bb565b610a63565b6040516101aa919061304a565b3480156101ec57600080fd5b50610109610ae5565b34801561020157600080fd5b506102156102103660046120fe565b610b80565b6040516101aa92919061322e565b34801561022f57600080fd5b5061019d610c76565b34801561024457600080fd5b5061024d610c85565b6040516101aa919061303c565b34801561026657600080fd5b5061026f610cab565b6040516101aa919061308d565b61010961028a3660046123a7565b610cca565b34801561029b57600080fd5b506101096102aa3660046120e0565b6110f7565b61024d6111ca565b3480156102c357600080fd5b506101096102d23660046122fc565b611278565b3480156102e357600080fd5b506101096102f23660046120e0565b6112fb565b34801561030357600080fd5b5061026f611328565b6068546001600160a01b031661033d5760405162461bcd60e51b81526004016103349061318e565b60405180910390fd5b6000841161035d5760405162461bcd60e51b8152600401610334906130ae565b73c02aaa39b223fe8d0a0e5c4f27ead9083c756cc26001600160a01b03861681141561039b5760405162461bcd60e51b8152600401610334906131ce565b60008451116103bc5760405162461bcd60e51b81526004016103349061311e565b82518451146103dd5760405162461bcd60e51b81526004016103349061310e565b600082116103fd5760405162461bcd60e51b8152600401610334906131de565b6001600160a01b0386166104785773c02aaa39b223fe8d0a0e5c4f27ead9083c756cc26001600160a01b031663d0e30db0866040518263ffffffff1660e01b81526004016000604051808303818588803b15801561045a57600080fd5b505af115801561046e573d6000803e3d6000fd5b5050505050610493565b6104936001600160a01b03871633308863ffffffff61134916565b61049c866113aa565b8511156104b1576104af8660001961143f565b505b6104b9611cd8565b6104e98585856001600160a01b038b16156104d457346104e4565b6104e4348b63ffffffff61156a16565b6115ac565b6040516370a0823160e01b815290915060009073c02aaa39b223fe8d0a0e5c4f27ead9083c756cc2906370a0823190610526903090600401612f75565b60206040518083038186803b15801561053e57600080fd5b505afa158015610552573d6000803e3d6000fd5b505050506040513d601f19601f820116820180604052506105769190810190612389565b9050600081116105985760405162461bcd60e51b81526004016103349061319e565b604051632e1a7d4d60e01b815273c02aaa39b223fe8d0a0e5c4f27ead9083c756cc290632e1a7d4d906105cf90849060040161304a565b600060405180830381600087803b1580156105e957600080fd5b505af11580156105fd573d6000803e3d6000fd5b50506040516370a0823160e01b81528a9250600091506001600160a01b038316906370a0823190610632903090600401612f75565b60206040518083038186803b15801561064a57600080fd5b505afa15801561065e573d6000803e3d6000fd5b505050506040513d601f19601f820116820180604052506106829190810190612389565b905080156106a4576106a46001600160a01b038316338363ffffffff6116d816565b8351602085015160405133926001600160a01b038e16927ff4a68710ff1aa4f191fc7ca5b60a8ea5b54b9eaf7d5cd488db3c84a552a43371926106e892919061324e565b60405180910390a360695460405163b760faf960e01b81526001600160a01b039091169063b760faf9908590610722903390600401612f75565b6020604051808303818588803b15801561073b57600080fd5b505af115801561074f573d6000803e3d6000fd5b50505050506040513d601f19601f82011682018060405250610774919081019061229d565b5050505050505050505050565b61079e73d216153c06e857cd7f72665e0af1d7d82172f4946116ff565b565b6107a8610c85565b6107c45760405162461bcd60e51b81526004016103349061313e565b6068546001600160a01b03161561086e5760685460405163095ea7b360e01b815273c02aaa39b223fe8d0a0e5c4f27ead9083c756cc29163095ea7b39161081a916001600160a01b031690600090600401612f83565b602060405180830381600087803b15801561083457600080fd5b505af1158015610848573d6000803e3d6000fd5b505050506040513d601f19601f8201168201806040525061086c919081019061229d565b505b6001600160a01b0381161561090c5760405163095ea7b360e01b815273c02aaa39b223fe8d0a0e5c4f27ead9083c756cc29063095ea7b3906108b890849060001990600401612f9e565b602060405180830381600087803b1580156108d257600080fd5b505af11580156108e6573d6000803e3d6000fd5b505050506040513d601f19601f8201168201806040525061090a919081019061229d565b505b606880546001600160a01b038084166001600160a01b031992831617928390556069805490921692169190911790556040517ff980c1430e55b1867cd9337a1f20246ab3b7255032486d0b71c24e820eebf3ab9061096b908390612f75565b60405180910390a150565b61097e610c85565b61099a5760405162461bcd60e51b81526004016103349061313e565b606a80546001600160a01b0319166001600160a01b0383161790556040517feb58b3605dc4b57dbf9dbd3db2d10cea4dd28005a4d8310f298e16d63b2047619061096b908390612f67565b6109ed610c85565b610a095760405162461bcd60e51b81526004016103349061313e565b6033546040516000916001600160a01b0316907f8be0079c531659141344cd1fd0a4f28419497f9722a3daafe3b4186f6b6457e0908390a3603380546001600160a01b0319169055565b6066546001600160a01b03165b90565b6000610a6d610a53565b6001600160a01b0316336001600160a01b031614610a9d5760405162461bcd60e51b8152600401610334906131be565b610adc83838080601f0160208091040260200160405190810160405280939291908181526020018383808284376000920191909152506117c192505050565b90505b92915050565b600054610100900460ff1680610afe5750610afe6117c7565b80610b0c575060005460ff16155b610b285760405162461bcd60e51b81526004016103349061314e565b600054610100900460ff16158015610b53576000805460ff1961ff0019909116610100171660011790555b6066546001600160a01b0316610b6b57610b6b610781565b8015610b7d576000805461ff00191690555b50565b60006060808d8d8d8d8d8d8d8d610b95610a53565b30604051602001610baf9a99989796959493929190612e95565b60408051601f19818403018152606a546020601f8a018190048102850181019093528884529093506001600160a01b031691610c1c9189908990819084018382808284376000920191909152505085516020870120610c10925090506117cd565b9063ffffffff6117fd16565b6001600160a01b031614610c3e57610c3460006118d9565b9250925050610c66565b606a546001600160a01b0316610c5857610c3460016118d9565b610c606118f1565b92509250505b9b509b9950505050505050505050565b6033546001600160a01b031690565b6033546000906001600160a01b0316610c9c611915565b6001600160a01b031614905090565b6040805180820190915260058152640312e302e360dc1b602082015290565b60008511610cea5760405162461bcd60e51b8152600401610334906130ae565b60008111610d0a5760405162461bcd60e51b8152600401610334906130ce565b60008351118015610d1c575060008251115b610d385760405162461bcd60e51b8152600401610334906130ee565b8151835114610d595760405162461bcd60e51b8152600401610334906130de565b6068546001600160a01b0316610d815760405162461bcd60e51b81526004016103349061318e565b606954604051639470b0bd60e01b81526001600160a01b0390911690639470b0bd90610db39033908990600401612f9e565b602060405180830381600087803b158015610dcd57600080fd5b505af1158015610de1573d6000803e3d6000fd5b505050506040513d601f19601f82011682018060405250610e05919081019061229d565b5073c02aaa39b223fe8d0a0e5c4f27ead9083c756cc26001600160a01b031663d0e30db0866040518263ffffffff1660e01b81526004016000604051808303818588803b158015610e5557600080fd5b505af1158015610e69573d6000803e3d6000fd5b5050505050610e76611cd8565b610e8284848434611940565b8051602082015160405192935033926001600160a01b038916927f830405d045810d02985b20c8902aa806ffe7fc8598401e410248a74cac6d15ce92610ec79261324e565b60405180910390a36040516370a0823160e01b815260009073c02aaa39b223fe8d0a0e5c4f27ead9083c756cc2906370a0823190610f09903090600401612f75565b60206040518083038186803b158015610f2157600080fd5b505afa158015610f35573d6000803e3d6000fd5b505050506040513d601f19601f82011682018060405250610f599190810190612389565b604051632e1a7d4d60e01b815290915073c02aaa39b223fe8d0a0e5c4f27ead9083c756cc290632e1a7d4d90610f9390849060040161304a565b600060405180830381600087803b158015610fad57600080fd5b505af1158015610fc1573d6000803e3d6000fd5b50506040516370a0823160e01b8152889250600091506001600160a01b038316906370a0823190610ff6903090600401612f75565b60206040518083038186803b15801561100e57600080fd5b505afa158015611022573d6000803e3d6000fd5b505050506040513d601f19601f820116820180604052506110469190810190612389565b90508015611068576110686001600160a01b038316338363ffffffff6116d816565b4780156110eb576000336001600160a01b03168260405161108890612f5c565b60006040518083038185875af1925050503d80600081146110c5576040519150601f19603f3d011682016040523d82523d6000602084013e6110ca565b606091505b50509050806107745760405162461bcd60e51b8152600401610334906131ae565b50505050505050505050565b600054610100900460ff168061111057506111106117c7565b8061111e575060005460ff16155b61113a5760405162461bcd60e51b81526004016103349061314e565b600054610100900460ff16158015611165576000805460ff1961ff0019909116610100171660011790555b603380546001600160a01b0319166001600160a01b0384811691909117918290556040519116906000907f8be0079c531659141344cd1fd0a4f28419497f9722a3daafe3b4186f6b6457e0908290a380156111c6576000805461ff00191690555b5050565b60008034116111eb5760405162461bcd60e51b81526004016103349061317e565b6069546001600160a01b031663b760faf934611205611915565b6040518363ffffffff1660e01b81526004016112219190612f75565b6020604051808303818588803b15801561123a57600080fd5b505af115801561124e573d6000803e3d6000fd5b50505050506040513d601f19601f82011682018060405250611273919081019061229d565b905090565b611280610a53565b6001600160a01b0316336001600160a01b0316146112b05760405162461bcd60e51b8152600401610334906131be565b6112f485858080601f0160208091040260200160405190810160405280939291908181526020018383808284376000920191909152508792508691508590506113a4565b5050505050565b611303610c85565b61131f5760405162461bcd60e51b81526004016103349061313e565b610b7d816119ef565b604051806040016040528060058152602001640312e302e360dc1b81525081565b6040516113a49085906323b872dd60e01b9061136d90879087908790602401612fd4565b60408051601f198184030181529190526020810180516001600160e01b03166001600160e01b031990931692909217909152611a71565b50505050565b604051636eb1769f60e11b81526000906001600160a01b0383169063dd62ed3e906113ef9030907395e6f48254609a6ee006f7d493c8e5fb97094cef90600401612fb9565b60206040518083038186803b15801561140757600080fd5b505afa15801561141b573d6000803e3d6000fd5b505050506040513d601f19601f82011682018060405250610adf9190810190612389565b604051636eb1769f60e11b8152600090839082906001600160a01b0383169063dd62ed3e906114889030907395e6f48254609a6ee006f7d493c8e5fb97094cef90600401612fb9565b60206040518083038186803b1580156114a057600080fd5b505afa1580156114b4573d6000803e3d6000fd5b505050506040513d601f19601f820116820180604052506114d89190810190612389565b9050838114156114ed57600192505050610adf565b6000841180156114fd5750600081115b15611531576115316001600160a01b0383167395e6f48254609a6ee006f7d493c8e5fb97094cef600063ffffffff611b5616565b61155f6001600160a01b0383167395e6f48254609a6ee006f7d493c8e5fb97094cef8663ffffffff611b5616565b506001949350505050565b6000610adc83836040518060400160405280601e81526020017f536166654d6174683a207375627472616374696f6e206f766572666c6f770000815250611c1c565b6115b4611cd8565b60008551116115d55760405162461bcd60e51b81526004016103349061309e565b83518551146115f65760405162461bcd60e51b81526004016103349061315e565b600083116116165760405162461bcd60e51b8152600401610334906131de565b61161e611cf6565b60405163a6c3bf3360e01b81527361935cbdd02287b511119ddb11aeb42f1593b7ef9063a6c3bf3390859061165b908a9089908b9060040161300a565b60a0604051808303818588803b15801561167457600080fd5b505af1158015611688573d6000803e3d6000fd5b50505050506040513d601f19601f820116820180604052506116ad919081019061236b565b905060405180604001604052808260200151815260200182600001518152509150505b949350505050565b6040516116fa90849063a9059cbb60e01b9061136d9086908690602401612ffc565b505050565b6066546001600160a01b0390811690821661172c5760405162461bcd60e51b81526004016103349061312e565b806001600160a01b0316826001600160a01b0316141561175e5760405162461bcd60e51b81526004016103349061316e565b816001600160a01b0316816001600160a01b03167fb9f84b8e65164b14439ae3620df0a4d8786d896996c0282b683f9d8c08f046e860405160405180910390a350606680546001600160a01b0319166001600160a01b0392909216919091179055565b50600090565b303b1590565b6000816040516020016117e09190612f3c565b604051602081830303815290604052805190602001209050919050565b6000815160411461181057506000610adf565b60208201516040830151606084015160001a7f7fffffffffffffffffffffffffffffff5d576e7357a4501ddfe92f46681b20a08211156118565760009350505050610adf565b8060ff16601b1415801561186e57508060ff16601c14155b1561187f5760009350505050610adf565b600186828585604051600081526020016040526040516118a29493929190613058565b6020604051602081039080840390855afa1580156118c4573d6000803e3d6000fd5b5050604051601f190151979650505050505050565b604080516020810190915260008152600b9190910191565b6000606061190d60405180602001604052806000815250611c4d565b915091509091565b6066546000906001600160a01b03163314611931575033610a60565b611939611c52565b9050610a60565b611948611cd8565b60008551116119695760405162461bcd60e51b81526004016103349061309e565b835185511461198a5760405162461bcd60e51b81526004016103349061315e565b600083116119aa5760405162461bcd60e51b81526004016103349061320e565b6119b2611cf6565b604051638bc8efb360e01b81527361935cbdd02287b511119ddb11aeb42f1593b7ef90638bc8efb390859061165b908a9089908b9060040161300a565b6001600160a01b038116611a155760405162461bcd60e51b8152600401610334906130be565b6033546040516001600160a01b038084169216907f8be0079c531659141344cd1fd0a4f28419497f9722a3daafe3b4186f6b6457e090600090a3603380546001600160a01b0319166001600160a01b0392909216919091179055565b611a83826001600160a01b0316611c9f565b611a9f5760405162461bcd60e51b81526004016103349061321e565b60006060836001600160a01b031683604051611abb9190612f30565b6000604051808303816000865af19150503d8060008114611af8576040519150601f19603f3d011682016040523d82523d6000602084013e611afd565b606091505b509150915081611b1f5760405162461bcd60e51b8152600401610334906130fe565b8051156113a45780806020019051611b3a919081019061229d565b6113a45760405162461bcd60e51b8152600401610334906131ee565b801580611bde5750604051636eb1769f60e11b81526001600160a01b0384169063dd62ed3e90611b8c9030908690600401612fb9565b60206040518083038186803b158015611ba457600080fd5b505afa158015611bb8573d6000803e3d6000fd5b505050506040513d601f19601f82011682018060405250611bdc9190810190612389565b155b611bfa5760405162461bcd60e51b8152600401610334906131fe565b6040516116fa90849063095ea7b360e01b9061136d9086908690602401612ffc565b60008184841115611c405760405162461bcd60e51b8152600401610334919061308d565b50508183035b9392505050565b600091565b600060606000368080601f0160208091040260200160405190810160405280939291908181526020018383808284376000920191909152505050503601516001600160a01b031692915050565b6000813f7fc5d2460186f7233c927e7db2dcc703c0e500b653ca82273b7bfad8045d85a4708181148015906116d0575050151592915050565b60405180604001604052806002906020820280388339509192915050565b6040518060a0016040528060008152602001600081526020016000815260200160008152602001600081525090565b8035610adf8161337d565b600082601f830112611d4157600080fd5b8135611d54611d4f82613282565b61325c565b81815260209384019390925082018360005b83811015611d925781358601611d7c8882611e62565b8452506020928301929190910190600101611d66565b5050505092915050565b600082601f830112611dad57600080fd5b8135611dbb611d4f82613282565b81815260209384019390925082018360005b83811015611d925781358601611de38882611f34565b8452506020928301929190910190600101611dcd565b8035610adf81613391565b8051610adf81613391565b8035610adf8161339a565b60008083601f840112611e2c57600080fd5b5081356001600160401b03811115611e4357600080fd5b602083019150836001820283011115611e5b57600080fd5b9250929050565b600082601f830112611e7357600080fd5b8135611e81611d4f826132a2565b91508082526020830160208301858383011115611e9d57600080fd5b611ea8838284613324565b50505092915050565b600060a08284031215611ec357600080fd5b611ecd60a061325c565b90506000611edb84846120d5565b8252506020611eec848483016120d5565b6020830152506040611f00848285016120d5565b6040830152506060611f14848285016120d5565b6060830152506080611f28848285016120d5565b60808301525092915050565b60006101c08284031215611f4757600080fd5b611f526101c061325c565b90506000611f608484611d25565b8252506020611f7184848301611d25565b6020830152506040611f8584828501611d25565b6040830152506060611f9984828501611d25565b6060830152506080611fad84828501611e0f565b60808301525060a0611fc184828501611e0f565b60a08301525060c0611fd584828501611e0f565b60c08301525060e0611fe984828501611e0f565b60e083015250610100611ffe84828501611e0f565b6101008301525061012061201484828501611e0f565b610120830152506101408201356001600160401b0381111561203557600080fd5b61204184828501611e62565b610140830152506101608201356001600160401b0381111561206257600080fd5b61206e84828501611e62565b610160830152506101808201356001600160401b0381111561208f57600080fd5b61209b84828501611e62565b610180830152506101a08201356001600160401b038111156120bc57600080fd5b6120c884828501611e62565b6101a08301525092915050565b8051610adf8161339a565b6000602082840312156120f257600080fd5b60006116d08484611d25565b60008060008060008060008060008060006101208c8e03121561212057600080fd5b600061212c8e8e611d25565b9b5050602061213d8e828f01611d25565b9a505060408c01356001600160401b0381111561215957600080fd5b6121658e828f01611e1a565b995099505060606121788e828f01611e0f565b97505060806121898e828f01611e0f565b96505060a061219a8e828f01611e0f565b95505060c06121ab8e828f01611e0f565b94505060e08c01356001600160401b038111156121c757600080fd5b6121d38e828f01611e1a565b93509350506101006121e78e828f01611e0f565b9150509295989b509295989b9093969950565b600080600080600060a0868803121561221257600080fd5b600061221e8888611d25565b955050602061222f88828901611e0f565b94505060408601356001600160401b0381111561224b57600080fd5b61225788828901611d9c565b93505060608601356001600160401b0381111561227357600080fd5b61227f88828901611d30565b925050608061229088828901611e0f565b9150509295509295909350565b6000602082840312156122af57600080fd5b60006116d08484611e04565b600080602083850312156122ce57600080fd5b82356001600160401b038111156122e457600080fd5b6122f085828601611e1a565b92509250509250929050565b60008060008060006080868803121561231457600080fd5b85356001600160401b0381111561232a57600080fd5b61233688828901611e1a565b9550955050602061234988828901611df9565b935050604061235a88828901611e0f565b925050606061229088828901611e0f565b600060a0828403121561237d57600080fd5b60006116d08484611eb1565b60006020828403121561239b57600080fd5b60006116d084846120d5565b600080600080600060a086880312156123bf57600080fd5b60006123cb8888611e0f565b955050602061222f88828901611d25565b6000610adc838361252e565b6000610adc8383612d51565b6123fd81613303565b82525050565b6123fd61240f826132e1565b61335c565b6123fd816132e1565b6000612428826132cf565b61243281856132d3565b935083602082028501612444856132c9565b8060005b8581101561247e578484038952815161246185826123dc565b945061246c836132c9565b60209a909a0199925050600101612448565b5091979650505050505050565b6000612496826132cf565b6124a081856132d3565b9350836020820285016124b2856132c9565b8060005b8581101561247e57848403895281516124cf85826123e8565b94506124da836132c9565b60209a909a01999250506001016124b6565b6123fd816132ec565b6123fd81610a60565b6123fd61250a82610a60565b610a60565b600061251b83856132dc565b9350612528838584613324565b50500190565b6000612539826132cf565b61254381856132d3565b9350612553818560208601613330565b61255c8161336d565b9093019392505050565b6000612571826132cf565b61257b81856132dc565b935061258b818560208601613330565b9290920192915050565b6123fd8161330e565b60006125ab6036836132d3565b7f4174206c65617374206f6e65206f7264657220616e64206d61746368696e672081527539b4b3b730ba3ab9329034b9903932b8bab4b932b21760511b602082015260400192915050565b60006126036024836132d3565b7f496e70757420616d6f756e74206d7573742062652067726561746572207468618152633710181760e11b602082015260400192915050565b6000612649601c836132dc565b7f19457468657265756d205369676e6564204d6573736167653a0a3332000000008152601c0192915050565b60006126826026836132d3565b7f4f776e61626c653a206e6577206f776e657220697320746865207a65726f206181526564647265737360d01b602082015260400192915050565b60006126ca602a836132d3565b7f4d616b657220617373657420616d6f756e74206d75737420626520677265617481526932b9103a3430b710181760b11b602082015260400192915050565b6000612716603a836132d3565b7f4c656e67746873206f6620616c6c206f726465727320616e64207369676e617481527f7572657320617272617973206d75737420626520657175616c2e000000000000602082015260400192915050565b6000612775602e836132d3565b7f4d75737420737570706c79206d6f7265207468616e2030206f7264657273206181526d37321039b4b3b730ba3ab932b99760911b602082015260400192915050565b60006127c56020836132d3565b7f5361666545524332303a206c6f772d6c6576656c2063616c6c206661696c6564815260200192915050565b60006127fe6035836132d3565b7f4c656e677468206f66206f726465727320616e64207369676e6174757265732081527430b93930bcb99036bab9ba1031329032b8bab0b61760591b602082015260400192915050565b60006128556016836132d3565b7527b93232b9399030b93930bc9034b99032b6b83a3c9760511b815260200192915050565b6000612887602e836132d3565b7f47534e526563697069656e743a206e65772052656c617948756220697320746881526d65207a65726f206164647265737360901b602082015260400192915050565b60006128d76020836132d3565b7f4f776e61626c653a2063616c6c6572206973206e6f7420746865206f776e6572815260200192915050565b6000612910602e836132d3565b7f436f6e747261637420696e7374616e63652068617320616c726561647920626581526d195b881a5b9a5d1a585b1a5e995960921b602082015260400192915050565b60006129606031836132d3565b7f4d69736d61746368206265747765656e206e756d626572206f66206f72646572815270399030b7321039b4b3b730ba3ab932b99760791b602082015260400192915050565b60006129b3602d836132d3565b7f47534e526563697069656e743a206e65772052656c617948756220697320746881526c652063757272656e74206f6e6560981b602082015260400192915050565b6000612a02601c836132d3565b7f4d757374206465706f736974206d6f7265207468616e20302065746800000000815260200192915050565b6000612a3b6054836132d3565b7f46756e64206d616e6167657220636f6e7472616374206e6f74207365742e205481527f686973206d61792062652064756520746f20616e2075706772616465206f66206020820152733a3434b990383937bc3c9031b7b73a3930b1ba1760611b604082015260600192915050565b6000612ab76012836132d3565b712737902ba2aa241037baba383aba3a32b21760711b815260200192915050565b6000612ae56034836132d3565b7f4661696c656420746f207472616e736665722045544820746f206d73672e7365815273373232b91030b33a32b91032bc31b430b733b29760611b602082015260400192915050565b6000612b3b6024836132d3565b7f47534e526563697069656e743a2063616c6c6572206973206e6f742052656c618152633ca43ab160e11b602082015260400192915050565b6000610adf6000836132dc565b6000612b8e602f836132d3565b7f496e70757420616e64206f75747075742063757272656e636965732063616e6e81526e37ba103132903a34329039b0b6b29760891b602082015260400192915050565b6000612bdf602f836132d3565b7f54616b65722061737365742066696c6c20616d6f756e74206d7573742062652081526e33b932b0ba32b9103a3430b710181760891b602082015260400192915050565b6000612c30602a836132d3565b7f5361666545524332303a204552433230206f7065726174696f6e20646964206e8152691bdd081cdd58d8d9595960b21b602082015260400192915050565b6000612c7c6036836132d3565b7f5361666545524332303a20617070726f76652066726f6d206e6f6e2d7a65726f81527520746f206e6f6e2d7a65726f20616c6c6f77616e636560501b602082015260400192915050565b6000612cd4602f836132d3565b7f4d616b65722061737365742066696c6c20616d6f756e74206d7573742062652081526e33b932b0ba32b9103a3430b710181760891b602082015260400192915050565b6000612d25601f836132d3565b7f5361666545524332303a2063616c6c20746f206e6f6e2d636f6e747261637400815260200192915050565b80516000906101c0840190612d668582612414565b506020830151612d796020860182612414565b506040830151612d8c6040860182612414565b506060830151612d9f6060860182612414565b506080830151612db260808601826124f5565b5060a0830151612dc560a08601826124f5565b5060c0830151612dd860c08601826124f5565b5060e0830151612deb60e08601826124f5565b50610100830151612e006101008601826124f5565b50610120830151612e156101208601826124f5565b50610140830151848203610140860152612e2f828261252e565b915050610160830151848203610160860152612e4b828261252e565b915050610180830151848203610180860152612e67828261252e565b9150506101a08301518482036101a0860152612e83828261252e565b95945050505050565b6123fd816132fd565b6000612ea1828d612403565b601482019150612eb1828c612403565b601482019150612ec2828a8c61250f565b9150612ece82896124fe565b602082019150612ede82886124fe565b602082019150612eee82876124fe565b602082019150612efe82866124fe565b602082019150612f0e8285612403565b601482019150612f1e8284612403565b506014019a9950505050505050505050565b6000611c468284612566565b6000612f478261263c565b9150612f5382846124fe565b50602001919050565b6000610adf82612b74565b60208101610adf8284612414565b60208101610adf82846123f4565b60408101612f9182856123f4565b611c466020830184612595565b60408101612fac82856123f4565b611c4660208301846124f5565b60408101612fc78285612414565b611c466020830184612414565b60608101612fe28286612414565b612fef6020830185612414565b6116d060408301846124f5565b60408101612fac8285612414565b6060808252810161301b818661248b565b905061302a60208301856124f5565b8181036040830152612e83818461241d565b60208101610adf82846124ec565b60208101610adf82846124f5565b6080810161306682876124f5565b6130736020830186612e8c565b61308060408301856124f5565b612e8360608301846124f5565b60208082528101610adc818461252e565b60208082528101610adf8161259e565b60208082528101610adf816125f6565b60208082528101610adf81612675565b60208082528101610adf816126bd565b60208082528101610adf81612709565b60208082528101610adf81612768565b60208082528101610adf816127b8565b60208082528101610adf816127f1565b60208082528101610adf81612848565b60208082528101610adf8161287a565b60208082528101610adf816128ca565b60208082528101610adf81612903565b60208082528101610adf81612953565b60208082528101610adf816129a6565b60208082528101610adf816129f5565b60208082528101610adf81612a2e565b60208082528101610adf81612aaa565b60208082528101610adf81612ad8565b60208082528101610adf81612b2e565b60208082528101610adf81612b81565b60208082528101610adf81612bd2565b60208082528101610adf81612c23565b60208082528101610adf81612c6f565b60208082528101610adf81612cc7565b60208082528101610adf81612d18565b6040810161323c82856124f5565b81810360208301526116d0818461252e565b60408101612fac82856124f5565b6040518181016001600160401b038111828210171561327a57600080fd5b604052919050565b60006001600160401b0382111561329857600080fd5b5060209081020190565b60006001600160401b038211156132b857600080fd5b506020601f91909101601f19160190565b60200190565b5190565b90815260200190565b919050565b6000610adf826132f1565b151590565b6001600160a01b031690565b60ff1690565b6000610adf82613319565b6000610adf82610a60565b6000610adf826132e1565b82818337506000910152565b60005b8381101561334b578181015183820152602001613333565b838111156113a45750506000910152565b6000610adf826000610adf82613377565b601f01601f191690565b60601b90565b613386816132e1565b8114610b7d57600080fd5b613386816132ec565b61338681610a6056fea365627a7a7231582096d6f3a1ae0be1090ffb8c7bd5bec899a5c4dd6940a87f1abeb7a035c16ace2d6c6578706572696d656e74616cf564736f6c63430005110040",
  "source": "/**\n * @file\n * @author David Lucid <david@rari.capital>\n *\n * @section LICENSE\n *\n * All rights reserved to David Lucid of David Lucid LLC.\n * Any disclosure, reproduction, distribution or other use of this code by any individual or entity other than David Lucid of David Lucid LLC, unless given explicit permission by David Lucid of David Lucid LLC, is prohibited.\n *\n * @section DESCRIPTION\n *\n * This file includes the Ethereum contract code for RariFundProxy, which faciliates pre-deposit exchanges and post-withdrawal exchanges.\n */\n\npragma solidity ^0.5.7;\npragma experimental ABIEncoderV2;\n\nimport \"@openzeppelin/contracts-ethereum-package/contracts/math/SafeMath.sol\";\nimport \"@openzeppelin/contracts-ethereum-package/contracts/drafts/SignedSafeMath.sol\";\nimport \"@openzeppelin/contracts-ethereum-package/contracts/ownership/Ownable.sol\";\nimport \"@openzeppelin/contracts-ethereum-package/contracts/token/ERC20/IERC20.sol\";\nimport \"@openzeppelin/contracts-ethereum-package/contracts/token/ERC20/SafeERC20.sol\";\nimport \"@openzeppelin/contracts-ethereum-package/contracts/token/ERC20/ERC20Detailed.sol\";\nimport \"@openzeppelin/contracts-ethereum-package/contracts/GSN/GSNRecipient.sol\";\nimport \"@openzeppelin/contracts-ethereum-package/contracts/cryptography/ECDSA.sol\";\n\nimport \"@0x/contracts-exchange-libs/contracts/src/LibOrder.sol\";\nimport \"@0x/contracts-erc20/contracts/src/interfaces/IEtherToken.sol\";\n\nimport \"./lib/exchanges/ZeroExExchangeController.sol\";\nimport \"./RariFundManager.sol\";\n\n/**\n * @title RariFundProxy\n * @dev This contract faciliates deposits to RariFundManager from exchanges and withdrawals from RariFundManager for exchanges.\n */\n\ncontract RariFundProxy is Ownable, GSNRecipient {\n    using SafeMath for uint256;\n    using SignedSafeMath for int256;\n    using ECDSA for bytes32;\n    using SafeERC20 for IERC20;\n\n    /**\n     * @notice Package version of `rari-eth-contracts` when this contract was deployed.\n     */\n    string public constant VERSION = \"1.0.0\";\n\n\n    /**\n     * @dev Maps ERC20 token contract addresses to supported currency codes.\n     */\n    mapping(string => address) private _erc20Contracts;\n\n    /**\n     * @dev Constructor that sets supported ERC20 token contract addresses.\n     */\n    constructor () public {\n\n    }\n\n    /**\n     * @dev Address of the RariFundManager.\n     */\n    address payable private _rariFundManagerContract;\n\n    /**\n     * @dev Contract of the RariFundManager.\n     */\n    RariFundManager private _rariFundManager;\n\n    /**\n     * @dev Address of the trusted GSN signer.\n     */\n    address private _gsnTrustedSigner;\n\n    /**\n     * @dev Emitted when the RariFundManager of the RariFundProxy is set.\n     */\n    event FundManagerSet(address newContract);\n\n\n    address constant private WETH_CONTRACT = 0xC02aaA39b223FE8D0A0e5C4F27eAD9083C756Cc2;\n\n\n    IEtherToken constant private _weth = IEtherToken(WETH_CONTRACT);\n\n\n    /**\n     * @dev Sets or upgrades the RariFundManager of the RariFundProxy.\n     * @param newContract The address of the new RariFundManager contract.\n     */\n    function setFundManager(address payable newContract) external onlyOwner {\n        // Approve maximum output tokens to RariFundManager for deposit\n        // see safeApprove in IERC20\n        if (_rariFundManagerContract != address(0)) _weth.approve(_rariFundManagerContract, 0);\n        if (newContract != address(0)) _weth.approve(newContract, uint256(-1));\n\n        _rariFundManagerContract = newContract;\n        _rariFundManager = RariFundManager(_rariFundManagerContract);\n        emit FundManagerSet(newContract);\n    }\n\n    \n\n    /**\n     * @dev Emitted when the trusted GSN signer of the RariFundProxy is set.\n     */\n    event GsnTrustedSignerSet(address newAddress);\n\n    /**\n     * @dev Sets or upgrades the trusted GSN signer of the RariFundProxy.\n     * @param newAddress The Ethereum address of the new trusted GSN signer.\n     */\n    function setGsnTrustedSigner(address newAddress) external onlyOwner {\n        _gsnTrustedSigner = newAddress;\n        emit GsnTrustedSignerSet(newAddress);\n    }\n\n    /**\n     * @dev Payable fallback function called by 0x exchange to refund unspent protocol fee.\n     */\n    function () external payable { }\n\n    /**\n     * @dev Emitted when funds have been exchanged before being deposited via RariFundManager.\n     * If exchanging from ETH, `inputErc20Contract` = address(0).\n     */\n    event PreDepositExchange(address indexed inputErc20Contract, address indexed payee, uint256 makerAssetFilledAmount, uint256 depositAmount);\n\n    /**\n     * @dev Emitted when funds have been exchanged after being withdrawn via RariFundManager.\n     * If exchanging from ETH, `outputErc20Contract` = address(0).\n     */\n    event PostWithdrawalExchange(address indexed outputErc20Contract, address indexed payee, uint256 withdrawalAmount, uint256 takerAssetFilledAmount);\n\n    \n    /**\n     * @notice Exchanges and deposits funds to RariFund in exchange for RFT (via 0x).\n     * You can retrieve orders from the 0x swap API (https://0x.org/docs/api#get-swapv0quote). See the web client for implementation.\n     * Please note that you must approve RariFundProxy to transfer at least `inputAmount` unless you are inputting ETH.\n     * You also must input at least enough ETH to cover the protocol fee (and enough to cover `orders` if you are inputting ETH).\n     * @dev We should be able to make this function external and use calldata for all parameters, but Solidity does not support calldata structs (https://github.com/ethereum/solidity/issues/5479).\n     * @param inputErc20Contract The ERC20 contract address of the token to be exchanged. Set to address(0) to input ETH.\n     * @param inputAmount The amount of tokens to be exchanged (including taker fees).\n     * @param orders The limit orders to be filled in ascending order of the price you pay.\n     * @param signatures The signatures for the orders.\n     * @param takerAssetFillAmount The amount of the taker asset to sell (excluding taker fees).\n     */\n    function exchangeAndDeposit(address inputErc20Contract, uint256 inputAmount, LibOrder.Order[] memory orders, bytes[] memory signatures, uint256 takerAssetFillAmount) public payable {\n        // Input validation\n        require(_rariFundManagerContract != address(0), \"Fund manager contract not set. This may be due to an upgrade of this proxy contract.\");\n        require(inputAmount > 0, \"Input amount must be greater than 0.\");\n        address outputErc20Contract = 0xC02aaA39b223FE8D0A0e5C4F27eAD9083C756Cc2;\n        require(inputErc20Contract != outputErc20Contract, \"Input and output currencies cannot be the same.\");\n        require(orders.length > 0, \"Orders array is empty.\");\n        require(orders.length == signatures.length, \"Length of orders and signatures arrays must be equal.\");\n        require(takerAssetFillAmount > 0, \"Taker asset fill amount must be greater than 0.\");\n\n        if (inputErc20Contract == address(0)) {\n            // Wrap ETH\n            _weth.deposit.value(inputAmount)();\n        } else {\n            // Transfer input tokens from msg.sender if not inputting ETH\n            IERC20(inputErc20Contract).safeTransferFrom(msg.sender, address(this), inputAmount); // The user must approve the transfer of tokens beforehand\n        }\n\n        // Approve and exchange tokens\n        if (inputAmount > ZeroExExchangeController.allowance(inputErc20Contract)) ZeroExExchangeController.approve(inputErc20Contract, uint256(-1));\n        uint256[2] memory filledAmounts = ZeroExExchangeController.marketSellOrdersFillOrKill(orders, signatures, takerAssetFillAmount, inputErc20Contract == address(0) ? msg.value.sub(inputAmount) : msg.value);\n\n        // Unwrap outputted WETH\n        uint256 wethBalance = _weth.balanceOf(address(this));\n        require(wethBalance > 0, \"No WETH outputted.\");\n        _weth.withdraw(wethBalance);\n\n        // Refund unused input tokens\n        IERC20 inputToken = IERC20(inputErc20Contract);\n        uint256 inputTokenBalance = inputToken.balanceOf(address(this));\n        if (inputTokenBalance > 0) inputToken.safeTransfer(msg.sender, inputTokenBalance);\n\n        // Emit event\n        emit PreDepositExchange(inputErc20Contract, msg.sender, filledAmounts[0], filledAmounts[1]);\n\n        // Deposit output tokens\n        _rariFundManager.depositTo.value(wethBalance)(msg.sender);\n    }\n\n\n    /**\n     * @notice Withdraws funds from RariFund in exchange for RFT and exchanges to them to the desired currency (if no 0x orders are supplied, exchanges DAI, USDC, USDT, TUSD, and mUSD via mStable).\n     * You can retrieve orders from the 0x swap API (https://0x.org/docs/api#get-swapv0quote). See the web client for implementation.\n     * Please note that you must approve RariFundManager to burn of the necessary amount of RFT.\n     * You also must input at least enough ETH to cover the protocol fees.\n     * @dev We should be able to make this function external and use calldata for all parameters, but Solidity does not support calldata structs (https://github.com/ethereum/solidity/issues/5479).\n     * @param inputAmount The amounts of tokens to be withdrawn and exchanged (including taker fees).\n     * @param outputErc20Contract The ERC20 contract address of the token to be outputted by the exchange. Set to address(0) to output ETH.\n     * @param orders The limit orders to be filled in ascending order of the price you pay.\n     * @param signatures The signatures for the orders.\n     * @param makerAssetFillAmount The amount of the maker assets to buy.\n     */\n    function withdrawAndExchange(uint256 inputAmount, address outputErc20Contract, LibOrder.Order[] memory orders, bytes[] memory signatures, uint256 makerAssetFillAmount) public payable {\n        // Input validation\n        require(inputAmount > 0, \"Input amount must be greater than 0.\");\n        require(makerAssetFillAmount > 0, \"Maker asset amount must be greater than 0.\");\n        require(orders.length > 0 && signatures.length > 0, \"Must supply more than 0 orders and signatures.\");\n        require(orders.length == signatures.length, \"Lengths of all orders and signatures arrays must be equal.\");\n        require(_rariFundManagerContract != address(0), \"Fund manager contract not set. This may be due to an upgrade of this proxy contract.\");\n\n        // Withdraw input tokens\n        _rariFundManager.withdrawFrom(msg.sender, inputAmount);\n\n        // Wrap ETH for exchanging with 0x\n        _weth.deposit.value(inputAmount)();\n\n        // Exchange tokens and emit event\n        uint256[2] memory filledAmounts = ZeroExExchangeController.marketBuyOrdersFillOrKill(orders, signatures, makerAssetFillAmount, msg.value);\n        emit PostWithdrawalExchange(outputErc20Contract, msg.sender, filledAmounts[0], filledAmounts[1]);\n\n        // Unwrap unused WETH\n        uint256 wethBalance = _weth.balanceOf(address(this));\n        _weth.withdraw(wethBalance);\n\n        // Forward output tokens\n        IERC20 outputToken = IERC20(outputErc20Contract);\n        uint256 outputTokenBalance = outputToken.balanceOf(address(this));\n        if (outputTokenBalance > 0) outputToken.safeTransfer(msg.sender, outputTokenBalance);\n\n        // Forward unused ETH\n        uint256 ethBalance = address(this).balance;\n        \n        if (ethBalance > 0) {\n            (bool success, ) = msg.sender.call.value(ethBalance)(\"\");\n            require(success, \"Failed to transfer ETH to msg.sender after exchange.\");\n        }\n    }\n\n\n    /**\n     * @notice Deposits funds to RariFund in exchange for REFT (with GSN support).\n     * You may only deposit ETH.\n     * Please note that you must approve RariFundProxy to transfer at least `amount`.\n     * @return Boolean indicating success.\n     */\n    function deposit() payable external returns (bool) {\n        require(msg.value > 0, \"Must deposit more than 0 eth\");\n        return _rariFundManager.depositTo.value(msg.value)(_msgSender());\n    }\n\n    /**\n     * @dev Ensures that only transactions with a trusted signature can be relayed through the GSN.\n     */\n    function acceptRelayedCall(\n        address relay,\n        address from,\n        bytes calldata encodedFunction,\n        uint256 transactionFee,\n        uint256 gasPrice,\n        uint256 gasLimit,\n        uint256 nonce,\n        bytes calldata approvalData,\n        uint256\n    ) external view returns (uint256, bytes memory) {\n        bytes memory blob = abi.encodePacked(\n            relay,\n            from,\n            encodedFunction,\n            transactionFee,\n            gasPrice,\n            gasLimit,\n            nonce, // Prevents replays on RelayHub\n            getHubAddr(), // Prevents replays in multiple RelayHubs\n            address(this) // Prevents replays in multiple recipients\n        );\n        if (keccak256(blob).toEthSignedMessageHash().recover(approvalData) != _gsnTrustedSigner) return _rejectRelayedCall(0);\n        if (_gsnTrustedSigner == address(0)) return _rejectRelayedCall(1);\n        return _approveRelayedCall();\n    }\n\n    /**\n     * @dev Code executed before processing a call relayed through the GSN.\n     */\n    function _preRelayedCall(bytes memory) internal returns (bytes32) {\n        // solhint-disable-previous-line no-empty-blocks\n    }\n\n    /**\n     * @dev Code executed after processing a call relayed through the GSN.\n     */\n    function _postRelayedCall(bytes memory, bool, uint256, bytes32) internal {\n        // solhint-disable-previous-line no-empty-blocks\n    }\n}\n",
  "sourcePath": "/Users/richter/Projects/Cloud/rari-work/rari-eth-contracts/contracts/RariFundProxy.sol",
  "compiler": {
    "name": "solc",
    "version": "0.5.17+commit.d19bba13.Emscripten.clang"
  },
  "schemaVersion": "3.2.3",
  "updatedAt": "2020-10-09T05:26:08.021Z",
  "devdoc": {
    "details": "This contract faciliates deposits to RariFundManager from exchanges and withdrawals from RariFundManager for exchanges.",
    "methods": {
      "acceptRelayedCall(address,address,bytes,uint256,uint256,uint256,uint256,bytes,uint256)": {
        "details": "Ensures that only transactions with a trusted signature can be relayed through the GSN."
      },
      "constructor": {
        "details": "Constructor that sets supported ERC20 token contract addresses."
      },
      "deposit()": {
        "return": "Boolean indicating success."
      },
      "exchangeAndDeposit(address,uint256,(address,address,address,address,uint256,uint256,uint256,uint256,uint256,uint256,bytes,bytes,bytes,bytes)[],bytes[],uint256)": {
        "details": "We should be able to make this function external and use calldata for all parameters, but Solidity does not support calldata structs (https://github.com/ethereum/solidity/issues/5479).",
        "params": {
          "inputAmount": "The amount of tokens to be exchanged (including taker fees).",
          "inputErc20Contract": "The ERC20 contract address of the token to be exchanged. Set to address(0) to input ETH.",
          "orders": "The limit orders to be filled in ascending order of the price you pay.",
          "signatures": "The signatures for the orders.",
          "takerAssetFillAmount": "The amount of the taker asset to sell (excluding taker fees)."
        }
      },
      "getHubAddr()": {
        "details": "Returns the address of the {IRelayHub} contract for this recipient."
      },
      "initialize(address)": {
        "details": "Initializes the contract setting the deployer as the initial owner."
      },
      "isOwner()": {
        "details": "Returns true if the caller is the current owner."
      },
      "owner()": {
        "details": "Returns the address of the current owner."
      },
      "postRelayedCall(bytes,bool,uint256,bytes32)": {
        "details": "See `IRelayRecipient.postRelayedCall`.     * This function should not be overriden directly, use `_postRelayedCall` instead.     * * Requirements:     * - the caller must be the `RelayHub` contract."
      },
      "preRelayedCall(bytes)": {
        "details": "See `IRelayRecipient.preRelayedCall`.     * This function should not be overriden directly, use `_preRelayedCall` instead.     * * Requirements:     * - the caller must be the `RelayHub` contract."
      },
      "relayHubVersion()": {
        "details": "Returns the version string of the {IRelayHub} for which this recipient implementation was built. If {_upgradeRelayHub} is used, the new {IRelayHub} instance should be compatible with this version."
      },
      "renounceOwnership()": {
        "details": "Leaves the contract without owner. It will not be possible to call `onlyOwner` functions anymore. Can only be called by the current owner.     * > Note: Renouncing ownership will leave the contract without an owner, thereby removing any functionality that is only available to the owner."
      },
      "setFundManager(address)": {
        "details": "Sets or upgrades the RariFundManager of the RariFundProxy.",
        "params": {
          "newContract": "The address of the new RariFundManager contract."
        }
      },
      "setGsnTrustedSigner(address)": {
        "details": "Sets or upgrades the trusted GSN signer of the RariFundProxy.",
        "params": {
          "newAddress": "The Ethereum address of the new trusted GSN signer."
        }
      },
      "transferOwnership(address)": {
        "details": "Transfers ownership of the contract to a new account (`newOwner`). Can only be called by the current owner."
      },
      "withdrawAndExchange(uint256,address,(address,address,address,address,uint256,uint256,uint256,uint256,uint256,uint256,bytes,bytes,bytes,bytes)[],bytes[],uint256)": {
        "details": "We should be able to make this function external and use calldata for all parameters, but Solidity does not support calldata structs (https://github.com/ethereum/solidity/issues/5479).",
        "params": {
          "inputAmount": "The amounts of tokens to be withdrawn and exchanged (including taker fees).",
          "makerAssetFillAmount": "The amount of the maker assets to buy.",
          "orders": "The limit orders to be filled in ascending order of the price you pay.",
          "outputErc20Contract": "The ERC20 contract address of the token to be outputted by the exchange. Set to address(0) to output ETH.",
          "signatures": "The signatures for the orders."
        }
      }
    },
    "title": "RariFundProxy"
  },
  "userdoc": {
    "methods": {
      "deposit()": {
        "notice": "Deposits funds to RariFund in exchange for REFT (with GSN support). You may only deposit ETH. Please note that you must approve RariFundProxy to transfer at least `amount`."
      },
      "exchangeAndDeposit(address,uint256,(address,address,address,address,uint256,uint256,uint256,uint256,uint256,uint256,bytes,bytes,bytes,bytes)[],bytes[],uint256)": {
        "notice": "Exchanges and deposits funds to RariFund in exchange for RFT (via 0x). You can retrieve orders from the 0x swap API (https://0x.org/docs/api#get-swapv0quote). See the web client for implementation. Please note that you must approve RariFundProxy to transfer at least `inputAmount` unless you are inputting ETH. You also must input at least enough ETH to cover the protocol fee (and enough to cover `orders` if you are inputting ETH)."
      },
      "withdrawAndExchange(uint256,address,(address,address,address,address,uint256,uint256,uint256,uint256,uint256,uint256,bytes,bytes,bytes,bytes)[],bytes[],uint256)": {
        "notice": "Withdraws funds from RariFund in exchange for RFT and exchanges to them to the desired currency (if no 0x orders are supplied, exchanges DAI, USDC, USDT, TUSD, and mUSD via mStable). You can retrieve orders from the 0x swap API (https://0x.org/docs/api#get-swapv0quote). See the web client for implementation. Please note that you must approve RariFundManager to burn of the necessary amount of RFT. You also must input at least enough ETH to cover the protocol fees."
      }
    }
  }
}