{
  "contractName": "RariFundController",
  "abi": [
    {
      "inputs": [],
      "payable": false,
      "stateMutability": "nonpayable",
      "type": "constructor"
    },
    {
      "anonymous": false,
      "inputs": [],
      "name": "FundDisabled",
      "type": "event"
    },
    {
      "anonymous": false,
      "inputs": [],
      "name": "FundEnabled",
      "type": "event"
    },
    {
      "anonymous": false,
      "inputs": [
        {
          "indexed": false,
          "internalType": "address",
          "name": "newAddress",
          "type": "address"
        }
      ],
      "name": "FundManagerSet",
      "type": "event"
    },
    {
      "anonymous": false,
      "inputs": [
        {
          "indexed": false,
          "internalType": "address",
          "name": "newAddress",
          "type": "address"
        }
      ],
      "name": "FundRebalancerSet",
      "type": "event"
    },
    {
      "anonymous": false,
      "inputs": [
        {
          "indexed": true,
          "internalType": "address",
          "name": "previousOwner",
          "type": "address"
        },
        {
          "indexed": true,
          "internalType": "address",
          "name": "newOwner",
          "type": "address"
        }
      ],
      "name": "OwnershipTransferred",
      "type": "event"
    },
    {
      "payable": true,
      "stateMutability": "payable",
      "type": "fallback"
    },
    {
      "constant": true,
      "inputs": [],
      "name": "isOwner",
      "outputs": [
        {
          "internalType": "bool",
          "name": "",
          "type": "bool"
        }
      ],
      "payable": false,
      "stateMutability": "view",
      "type": "function"
    },
    {
      "constant": true,
      "inputs": [],
      "name": "owner",
      "outputs": [
        {
          "internalType": "address",
          "name": "",
          "type": "address"
        }
      ],
      "payable": false,
      "stateMutability": "view",
      "type": "function"
    },
    {
      "constant": false,
      "inputs": [],
      "name": "renounceOwnership",
      "outputs": [],
      "payable": false,
      "stateMutability": "nonpayable",
      "type": "function"
    },
    {
      "constant": false,
      "inputs": [
        {
          "internalType": "address",
          "name": "newOwner",
          "type": "address"
        }
      ],
      "name": "transferOwnership",
      "outputs": [],
      "payable": false,
      "stateMutability": "nonpayable",
      "type": "function"
    },
    {
      "constant": false,
      "inputs": [
        {
          "internalType": "address payable",
          "name": "newContract",
          "type": "address"
        }
      ],
      "name": "setFundManager",
      "outputs": [],
      "payable": false,
      "stateMutability": "nonpayable",
      "type": "function"
    },
    {
      "constant": false,
      "inputs": [
        {
          "internalType": "address",
          "name": "newAddress",
          "type": "address"
        }
      ],
      "name": "setFundRebalancer",
      "outputs": [],
      "payable": false,
      "stateMutability": "nonpayable",
      "type": "function"
    },
    {
      "constant": false,
      "inputs": [],
      "name": "disableFund",
      "outputs": [],
      "payable": false,
      "stateMutability": "nonpayable",
      "type": "function"
    },
    {
      "constant": false,
      "inputs": [],
      "name": "enableFund",
      "outputs": [],
      "payable": false,
      "stateMutability": "nonpayable",
      "type": "function"
    },
    {
      "constant": false,
      "inputs": [
        {
          "internalType": "uint8",
          "name": "pool",
          "type": "uint8"
        }
      ],
      "name": "_getPoolBalance",
      "outputs": [
        {
          "internalType": "uint256",
          "name": "",
          "type": "uint256"
        }
      ],
      "payable": false,
      "stateMutability": "nonpayable",
      "type": "function"
    },
    {
      "constant": false,
      "inputs": [
        {
          "internalType": "uint8",
          "name": "pool",
          "type": "uint8"
        }
      ],
      "name": "getPoolBalance",
      "outputs": [
        {
          "internalType": "uint256",
          "name": "",
          "type": "uint256"
        }
      ],
      "payable": false,
      "stateMutability": "nonpayable",
      "type": "function"
    },
    {
      "constant": false,
      "inputs": [],
      "name": "getEntireBalance",
      "outputs": [
        {
          "internalType": "uint256",
          "name": "",
          "type": "uint256"
        }
      ],
      "payable": false,
      "stateMutability": "nonpayable",
      "type": "function"
    },
    {
      "constant": false,
      "inputs": [
        {
          "internalType": "uint256",
          "name": "amount",
          "type": "uint256"
        }
      ],
      "name": "approveWethToDydxPool",
      "outputs": [
        {
          "internalType": "bool",
          "name": "",
          "type": "bool"
        }
      ],
      "payable": false,
      "stateMutability": "nonpayable",
      "type": "function"
    },
    {
      "constant": true,
      "inputs": [
        {
          "internalType": "uint8",
          "name": "pool",
          "type": "uint8"
        }
      ],
      "name": "hasETHInPool",
      "outputs": [
        {
          "internalType": "bool",
          "name": "",
          "type": "bool"
        }
      ],
      "payable": false,
      "stateMutability": "view",
      "type": "function"
    },
    {
      "constant": false,
      "inputs": [
        {
          "internalType": "uint8",
          "name": "pool",
          "type": "uint8"
        }
      ],
      "name": "depositToPool",
      "outputs": [
        {
          "internalType": "bool",
          "name": "",
          "type": "bool"
        }
      ],
      "payable": true,
      "stateMutability": "payable",
      "type": "function"
    },
    {
      "constant": false,
      "inputs": [
        {
          "internalType": "uint8",
          "name": "pool",
          "type": "uint8"
        },
        {
          "internalType": "uint256",
          "name": "amount",
          "type": "uint256"
        }
      ],
      "name": "withdrawFromPool",
      "outputs": [
        {
          "internalType": "bool",
          "name": "",
          "type": "bool"
        }
      ],
      "payable": false,
      "stateMutability": "nonpayable",
      "type": "function"
    },
    {
      "constant": false,
      "inputs": [
        {
          "internalType": "uint8",
          "name": "pool",
          "type": "uint8"
        },
        {
          "internalType": "uint256",
          "name": "amount",
          "type": "uint256"
        },
        {
          "internalType": "uint256",
          "name": "initialBalance",
          "type": "uint256"
        }
      ],
      "name": "withdrawFromPoolKnowingBalance",
      "outputs": [
        {
          "internalType": "bool",
          "name": "",
          "type": "bool"
        }
      ],
      "payable": false,
      "stateMutability": "nonpayable",
      "type": "function"
    },
    {
      "constant": false,
      "inputs": [
        {
          "internalType": "uint8",
          "name": "pool",
          "type": "uint8"
        },
        {
          "internalType": "uint256",
          "name": "amount",
          "type": "uint256"
        },
        {
          "internalType": "uint256",
          "name": "initialBalance",
          "type": "uint256"
        }
      ],
      "name": "withdrawFromPoolKnowingBalanceToManager",
      "outputs": [
        {
          "internalType": "bool",
          "name": "",
          "type": "bool"
        }
      ],
      "payable": false,
      "stateMutability": "nonpayable",
      "type": "function"
    },
    {
      "constant": false,
      "inputs": [
        {
          "internalType": "uint8",
          "name": "pool",
          "type": "uint8"
        }
      ],
      "name": "withdrawAllFromPool",
      "outputs": [
        {
          "internalType": "bool",
          "name": "",
          "type": "bool"
        }
      ],
      "payable": false,
      "stateMutability": "nonpayable",
      "type": "function"
    },
    {
      "constant": false,
      "inputs": [
        {
          "internalType": "uint8",
          "name": "pool",
          "type": "uint8"
        }
      ],
      "name": "withdrawAllFromPoolOnUpgrade",
      "outputs": [
        {
          "internalType": "bool",
          "name": "",
          "type": "bool"
        }
      ],
      "payable": false,
      "stateMutability": "nonpayable",
      "type": "function"
    },
    {
      "constant": false,
      "inputs": [
        {
          "internalType": "uint256",
          "name": "amount",
          "type": "uint256"
        }
      ],
      "name": "withdrawToManager",
      "outputs": [
        {
          "internalType": "bool",
          "name": "",
          "type": "bool"
        }
      ],
      "payable": false,
      "stateMutability": "nonpayable",
      "type": "function"
    },
    {
      "constant": false,
      "inputs": [
        {
          "internalType": "address",
          "name": "erc20Contract",
          "type": "address"
        },
        {
          "internalType": "uint256",
          "name": "amount",
          "type": "uint256"
        }
      ],
      "name": "approveTo0x",
      "outputs": [
        {
          "internalType": "bool",
          "name": "",
          "type": "bool"
        }
      ],
      "payable": false,
      "stateMutability": "nonpayable",
      "type": "function"
    },
    {
      "constant": false,
      "inputs": [
        {
          "components": [
            {
              "internalType": "address",
              "name": "makerAddress",
              "type": "address"
            },
            {
              "internalType": "address",
              "name": "takerAddress",
              "type": "address"
            },
            {
              "internalType": "address",
              "name": "feeRecipientAddress",
              "type": "address"
            },
            {
              "internalType": "address",
              "name": "senderAddress",
              "type": "address"
            },
            {
              "internalType": "uint256",
              "name": "makerAssetAmount",
              "type": "uint256"
            },
            {
              "internalType": "uint256",
              "name": "takerAssetAmount",
              "type": "uint256"
            },
            {
              "internalType": "uint256",
              "name": "makerFee",
              "type": "uint256"
            },
            {
              "internalType": "uint256",
              "name": "takerFee",
              "type": "uint256"
            },
            {
              "internalType": "uint256",
              "name": "expirationTimeSeconds",
              "type": "uint256"
            },
            {
              "internalType": "uint256",
              "name": "salt",
              "type": "uint256"
            },
            {
              "internalType": "bytes",
              "name": "makerAssetData",
              "type": "bytes"
            },
            {
              "internalType": "bytes",
              "name": "takerAssetData",
              "type": "bytes"
            },
            {
              "internalType": "bytes",
              "name": "makerFeeAssetData",
              "type": "bytes"
            },
            {
              "internalType": "bytes",
              "name": "takerFeeAssetData",
              "type": "bytes"
            }
          ],
          "internalType": "struct LibOrder.Order[]",
          "name": "orders",
          "type": "tuple[]"
        },
        {
          "internalType": "bytes[]",
          "name": "signatures",
          "type": "bytes[]"
        },
        {
          "internalType": "uint256",
          "name": "takerAssetFillAmount",
          "type": "uint256"
        }
      ],
      "name": "marketSell0xOrdersFillOrKill",
      "outputs": [
        {
          "internalType": "bool",
          "name": "",
          "type": "bool"
        }
      ],
      "payable": true,
      "stateMutability": "payable",
      "type": "function"
    }
  ],
  "bytecode": "0x60806040523480156200001157600080fd5b506000620000276001600160e01b03620000b616565b600080546001600160a01b0319166001600160a01b0383169081178255604051929350917f8be0079c531659141344cd1fd0a4f28419497f9722a3daafe3b4186f6b6457e0908290a3506200008660006001600160e01b03620000ba16565b6200009b60016001600160e01b03620000ba16565b620000b060026001600160e01b03620000ba16565b62000113565b3390565b60038054600181018255600091909152602081047fc2575a0e9e593c00f959f8c92f12db2869c3395a3b0502d05e2516446f71f85b01805460ff938416601f9093166101000a9283029390920219909116919091179055565b61455080620001236000396000f3fe6080604052600436106101355760003560e01c80638fe6b38d116100ab578063bef48c371161006f578063bef48c3714610316578063e648f65414610336578063ef44ea8b14610356578063f2fde38b14610376578063f3b4338614610396578063fbc9dfc4146103ab57610135565b80638fe6b38d14610276578063929aa907146102965780639b53ff49146102b6578063a9065581146102d6578063b9d9f62b146102f657610135565b806365df2918116100fd57806365df2918146101e25780636cf0a7b0146101f7578063715018a6146102175780637bdee09c1461022c5780638da5cb5b1461023f5780638f32d59b1461026157610135565b8063126afd7c146101375780631c5b09231461016d578063232a30601461018f5780635c951921146101af57806362016d42146101c2575b005b34801561014357600080fd5b506101576101523660046132b4565b6103cb565b6040516101649190614136565b60405180910390f35b34801561017957600080fd5b506101826104f5565b6040516101649190614363565b34801561019b57600080fd5b506101356101aa3660046130c0565b61055a565b6101576101bd3660046132b4565b610648565b3480156101ce57600080fd5b506101826101dd3660046132b4565b61074a565b3480156101ee57600080fd5b5061013561078b565b34801561020357600080fd5b506101576102123660046132b4565b61080e565b34801561022357600080fd5b50610135610826565b61015761023a3660046131ac565b610894565b34801561024b57600080fd5b50610254610939565b604051610164919061404a565b34801561026d57600080fd5b50610157610948565b34801561028257600080fd5b506101576102913660046130de565b61096c565b3480156102a257600080fd5b506101576102b1366004613278565b6109f1565b3480156102c257600080fd5b506101576102d1366004613278565b610a73565b3480156102e257600080fd5b506101356102f13660046130c0565b610c33565b34801561030257600080fd5b506101576103113660046132f1565b610cad565b34801561032257600080fd5b506101576103313660046132d2565b610d35565b34801561034257600080fd5b506101576103513660046132f1565b610dca565b34801561036257600080fd5b506101576103713660046132b4565b610e91565b34801561038257600080fd5b506101356103913660046130c0565b610fa8565b3480156103a257600080fd5b50610135610fd8565b3480156103b757600080fd5b506101826103c63660046132b4565b611062565b60008054600160a01b900460ff16156103ff5760405162461bcd60e51b81526004016103f690614185565b60405180910390fd5b6002546001600160a01b031633146104295760405162461bcd60e51b81526004016103f690614155565b60ff821661045a5761043961108e565b6104555760405162461bcd60e51b81526004016103f690614255565b6104d2565b8160ff166001141561048a5761046e6112a5565b6104555760405162461bcd60e51b81526004016103f690614305565b8160ff16600214156104ba5761049e6113fa565b6104555760405162461bcd60e51b81526004016103f690614315565b60405162461bcd60e51b81526004016103f690614335565b5060ff81166000908152600560205260409020805460ff1916905560015b919050565b600047815b600354811015610553576105498261053d6003848154811061051857fe5b90600052602060002090602091828204019190069054906101000a900460ff16611062565b9063ffffffff61159316565b91506001016104fa565b5090505b90565b610562610948565b61057e5760405162461bcd60e51b81526004016103f690614285565b60015473c02aaa39b223fe8d0a0e5c4f27ead9083c756cc2906001600160a01b0316156105c6576001546105c6906001600160a01b038381169116600063ffffffff6115b816565b6001600160a01b038216156105f1576105f16001600160a01b0382168360001963ffffffff6115b816565b600180546001600160a01b0319166001600160a01b0384161790556040517ff980c1430e55b1867cd9337a1f20246ab3b7255032486d0b71c24e820eebf3ab9061063c908490614058565b60405180910390a15050565b60008054600160a01b900460ff16156106735760405162461bcd60e51b81526004016103f690614185565b600034116106935760405162461bcd60e51b81526004016103f690614235565b60ff82166106c5576106a4346116ba565b6106c05760405162461bcd60e51b81526004016103f6906141f5565b610727565b8160ff16600114156106f6576106da346118ed565b6106c05760405162461bcd60e51b81526004016103f690614225565b8160ff16600214156104ba5761070b3461197e565b6106c05760405162461bcd60e51b81526004016103f690614245565b5060ff166000908152600560205260409020805460ff1916600190811790915590565b600060ff82166107635761075c611a40565b90506104f0565b8160ff16600114156107775761075c611b34565b8160ff16600214156104ba5761075c611c70565b610793610948565b6107af5760405162461bcd60e51b81526004016103f690614285565b600054600160a01b900460ff166107d85760405162461bcd60e51b81526004016103f6906141e5565b6000805460ff60a01b191681556040517f8e1c35fbf7cd686deedf8310574cf4ad038a00a86d3317c831afaeec58f1eeae9190a1565b60ff9081166000908152600560205260409020541690565b61082e610948565b61084a5760405162461bcd60e51b81526004016103f690614285565b600080546040516001600160a01b03909116907f8be0079c531659141344cd1fd0a4f28419497f9722a3daafe3b4186f6b6457e0908390a3600080546001600160a01b0319169055565b60008054600160a01b900460ff16156108bf5760405162461bcd60e51b81526004016103f690614185565b6002546001600160a01b031633146108e95760405162461bcd60e51b81526004016103f690614155565b6108f584848434611d10565b5047801561092c57604051339082156108fc029083906000818181858888f1935050505015801561092a573d6000803e3d6000fd5b505b60019150505b9392505050565b6000546001600160a01b031690565b600080546001600160a01b031661095d611e3c565b6001600160a01b031614905090565b60008054600160a01b900460ff16156109975760405162461bcd60e51b81526004016103f690614185565b6002546001600160a01b031633146109c15760405162461bcd60e51b81526004016103f690614155565b6109cb8383611e40565b6109e75760405162461bcd60e51b81526004016103f690614265565b5060015b92915050565b60008054600160a01b900460ff1615610a1c5760405162461bcd60e51b81526004016103f690614185565b6002546001600160a01b03163314610a465760405162461bcd60e51b81526004016103f690614155565b610a4f82611f60565b610a6b5760405162461bcd60e51b81526004016103f6906142a5565b506001919050565b6001546000906001600160a01b03163314610aa05760405162461bcd60e51b81526004016103f690614205565b610aa86104f5565b8210610ac65760405162461bcd60e51b81526004016103f690614175565b47828110610b13576001546040516001600160a01b039091169084156108fc029085906000818181858888f19350505050158015610b08573d6000803e3d6000fd5b5060019150506104f0565b60005b600354811015610bee57838210610b2c57610bee565b6000610b6360038381548110610b3e57fe5b90600052602060002090602091828204019190069054906101000a900460ff1661074a565b905060008111610b735750610be6565b6000610b85868563ffffffff61216c16565b90506000828210610b965782610b98565b815b9050610bd060038581548110610baa57fe5b90600052602060002090602091828204019190069054906101000a900460ff16826121ae565b610be0858263ffffffff61159316565b94505050505b600101610b16565b506001546040516001600160a01b039091169084156108fc029085906000818181858888f19350505050158015610c29573d6000803e3d6000fd5b5060019392505050565b610c3b610948565b610c575760405162461bcd60e51b81526004016103f690614285565b600280546001600160a01b0319166001600160a01b0383161790556040517feb9b68c1cca2a0c5d180f75c6324fad517a04867907b0f3bee85d98fdf57ee9490610ca290839061404a565b60405180910390a150565b60008054600160a01b900460ff1615610cd85760405162461bcd60e51b81526004016103f690614185565b6001546001600160a01b03163314610d025760405162461bcd60e51b81526004016103f690614205565b610d0c84846121ae565b81831415610c295750505060ff166000908152600560205260409020805460ff19169055600190565b60008054600160a01b900460ff1615610d605760405162461bcd60e51b81526004016103f690614185565b6002546001600160a01b03163314610d8a5760405162461bcd60e51b81526004016103f690614155565b610d9483836121ae565b6000610d9f8461074a565b60ff85166000908152600560205260409020805460ff19169290911191909117905550600192915050565b60008054600160a01b900460ff1615610df55760405162461bcd60e51b81526004016103f690614185565b6001546001600160a01b03163314610e1f5760405162461bcd60e51b81526004016103f690614205565b610e2984846121ae565b81831415610e4c5760ff84166000908152600560205260409020805460ff191690555b6001546040516001600160a01b039091169084156108fc029085906000818181858888f19350505050158015610e86573d6000803e3d6000fd5b506001949350505050565b6001546000906001600160a01b03163314610ebe5760405162461bcd60e51b81526004016103f690614205565b60ff8216610eef57610ece61108e565b610eea5760405162461bcd60e51b81526004016103f690614255565b610f4f565b8160ff1660011415610f1f57610f036112a5565b610eea5760405162461bcd60e51b81526004016103f690614305565b8160ff16600214156104ba57610f336113fa565b610eea5760405162461bcd60e51b81526004016103f690614315565b6001546040516001600160a01b03909116904780156108fc02916000818181858888f19350505050158015610f88573d6000803e3d6000fd5b505060ff166000908152600560205260409020805460ff19169055600190565b610fb0610948565b610fcc5760405162461bcd60e51b81526004016103f690614285565b610fd581612246565b50565b610fe0610948565b610ffc5760405162461bcd60e51b81526004016103f690614285565b600054600160a01b900460ff16156110265760405162461bcd60e51b81526004016103f6906142b5565b6000805460ff60a01b1916600160a01b1781556040517f0a6b9c6c74d93f230c4346c52ac415dd7dda5a0efb4f7394c0bfb5baa87d32659190a1565b60ff808216600090815260056020526040812054909116611085575060006104f0565b6109eb8261074a565b6000611098612a73565b506040805180820182523081526000602082015281516001808252818401909352909160609190816020015b6110cc612a73565b8152602001906001900390816110c457905050905081816000815181106110ef57fe5b6020026020010181905250611102612a8a565b604080516080810190915260018082526020820190815260200160018152602001600081525090506060611134612ab3565b50604080516101008101825260018082526000602083018190528284018690526060808401829052608084018290523060a085015260c084019190915260e083018590528351828152808501909452919290816020015b611193612ab3565b81526020019060019003908161118b57905050905081816000815181106111b657fe5b602090810291909101015260405163a67a6a4560e01b8152731e0447b19bb6ecfdae1e4ae1694b0c3659614e4e9063a67a6a45906111fa90889085906004016140df565b600060405180830381600087803b15801561121457600080fd5b505af1158015611228573d6000803e3d6000fd5b5050506060850151604051632e1a7d4d60e01b815273c02aaa39b223fe8d0a0e5c4f27ead9083c756cc29250632e1a7d4d9161126691600401614363565b600060405180830381600087803b15801561128057600080fd5b505af1158015611294573d6000803e3d6000fd5b505050506001965050505050505090565b6040516370a0823160e01b81526000908190734ddc2d193948926d02f9b1fe9e1daa0718270ed5906370a08231906112e190309060040161404a565b60206040518083038186803b1580156112f957600080fd5b505afa15801561130d573d6000803e3d6000fd5b505050506040513d601f19601f820116820180604052506113319190810190613296565b905060008111611345576000915050610557565b60405163db006a7560e01b8152600090734ddc2d193948926d02f9b1fe9e1daa0718270ed59063db006a759061137f908590600401614363565b602060405180830381600087803b15801561139957600080fd5b505af11580156113ad573d6000803e3d6000fd5b505050506040513d601f19601f820116820180604052506113d19190810190613296565b905080156113f15760405162461bcd60e51b81526004016103f6906142c5565b60019250505090565b60405163368b567f60e11b8152600090819073eb7e15b4e38cbee57a98204d05999c3230d3634890636d16acfe9061144a9073eeeeeeeeeeeeeeeeeeeeeeeeeeeeeeeeeeeeeeee9060040161404a565b60206040518083038186803b15801561146257600080fd5b505afa158015611476573d6000803e3d6000fd5b505050506040513d601f19601f8201168201806040525061149a919081019061323c565b90506000816001600160a01b03166370a08231306040518263ffffffff1660e01b81526004016114ca919061404a565b60206040518083038186803b1580156114e257600080fd5b505afa1580156114f6573d6000803e3d6000fd5b505050506040513d601f19601f8201168201806040525061151a9190810190613296565b604051636ce5768960e11b815290915073eb7e15b4e38cbee57a98204d05999c3230d363489063d9caed129061155890309086908690600401614066565b600060405180830381600087803b15801561157257600080fd5b505af1158015611586573d6000803e3d6000fd5b5050505060019250505090565b6000828201838110156109325760405162461bcd60e51b81526004016103f6906141d5565b8015806116405750604051636eb1769f60e11b81526001600160a01b0384169063dd62ed3e906115ee903090869060040161408e565b60206040518083038186803b15801561160657600080fd5b505afa15801561161a573d6000803e3d6000fd5b505050506040513d601f19601f8201168201806040525061163e9190810190613296565b155b61165c5760405162461bcd60e51b81526004016103f690614325565b6040516116b590849063095ea7b360e01b9061167e90869086906024016140c4565b60408051601f198184030181529190526020810180516001600160e01b03166001600160e01b0319909316929092179091526122c7565b505050565b60008082116116db5760405162461bcd60e51b81526004016103f690614165565b73c02aaa39b223fe8d0a0e5c4f27ead9083c756cc26001600160a01b031663d0e30db0836040518263ffffffff1660e01b81526004016000604051808303818588803b15801561172a57600080fd5b505af115801561173e573d6000803e3d6000fd5b505050505061174b612a73565b506040805180820182523081526000602082015281516001808252818401909352909160609190816020015b61177f612a73565b81526020019060019003908161177757905050905081816000815181106117a257fe5b60200260200101819052506117b5612a8a565b604080516080810190915260018152602081016000815260200160008152602001869052905060606117e5612ab3565b5060408051610100810182526000808252602082018190528183018590526060808301829052608083018290523060a084015260c083019190915260e08201849052825160018082528185019094529192909190816020015b611846612ab3565b81526020019060019003908161183e579050509050818160008151811061186957fe5b602090810291909101015260405163a67a6a4560e01b8152731e0447b19bb6ecfdae1e4ae1694b0c3659614e4e9063a67a6a45906118ad90889085906004016140df565b600060405180830381600087803b1580156118c757600080fd5b505af11580156118db573d6000803e3d6000fd5b5060019b9a5050505050505050505050565b600080821161190e5760405162461bcd60e51b81526004016103f690614165565b734ddc2d193948926d02f9b1fe9e1daa0718270ed56001600160a01b0316631249c58b836040518263ffffffff1660e01b81526004016000604051808303818588803b15801561195d57600080fd5b505af1158015611971573d6000803e3d6000fd5b5060019695505050505050565b600080821161199f5760405162461bcd60e51b81526004016103f690614165565b6040516311f9fbc960e21b815273eb7e15b4e38cbee57a98204d05999c3230d36348906347e7ef249084906119ee9073eeeeeeeeeeeeeeeeeeeeeeeeeeeeeeeeeeeeeeee9083906004016140c4565b6020604051808303818588803b158015611a0757600080fd5b505af1158015611a1b573d6000803e3d6000fd5b50505050506040513d601f19601f820116820180604052506109e79190810190613296565b6000611a4a612a73565b50604080518082018252308152600060208201529051636a8194e760e01b8152606090731e0447b19bb6ecfdae1e4ae1694b0c3659614e4e90636a8194e790611a97908590600401614355565b60006040518083038186803b158015611aaf57600080fd5b505afa158015611ac3573d6000803e3d6000fd5b505050506040513d6000823e601f3d908101601f19168201604052611aeb9190810190613118565b9250505080600081518110611afc57fe5b602002602001015160000151611b13576000611b2d565b80600081518110611b2057fe5b6020026020010151602001515b9250505090565b6000611c6b670de0b6b3a7640000611c5f734ddc2d193948926d02f9b1fe9e1daa0718270ed56001600160a01b031663bd6d894d6040518163ffffffff1660e01b8152600401602060405180830381600087803b158015611b9457600080fd5b505af1158015611ba8573d6000803e3d6000fd5b505050506040513d601f19601f82011682018060405250611bcc9190810190613296565b6040516370a0823160e01b8152734ddc2d193948926d02f9b1fe9e1daa0718270ed5906370a0823190611c0390309060040161404a565b60206040518083038186803b158015611c1b57600080fd5b505afa158015611c2f573d6000803e3d6000fd5b505050506040513d601f19601f82011682018060405250611c539190810190613296565b9063ffffffff6123b216565b9063ffffffff6123ec16565b905090565b60405163fc5eb0df60e01b815260009073eb7e15b4e38cbee57a98204d05999c3230d363489063fc5eb0df90611cc09073eeeeeeeeeeeeeeeeeeeeeeeeeeeeeeeeeeeeeeee90309060040161408e565b60206040518083038186803b158015611cd857600080fd5b505afa158015611cec573d6000803e3d6000fd5b505050506040513d601f19601f82011682018060405250611c6b9190810190613296565b611d18612b05565b6000855111611d395760405162461bcd60e51b81526004016103f690614195565b8351855114611d5a5760405162461bcd60e51b81526004016103f690614295565b60008311611d7a5760405162461bcd60e51b81526004016103f6906142d5565b611d82612b23565b60405163a6c3bf3360e01b81527361935cbdd02287b511119ddb11aeb42f1593b7ef9063a6c3bf33908590611dbf908a9089908b90600401614104565b60a0604051808303818588803b158015611dd857600080fd5b505af1158015611dec573d6000803e3d6000fd5b50505050506040513d601f19601f82011682018060405250611e11919081019061325a565b905060405180604001604052808260200151815260200182600001518152509150505b949350505050565b3390565b604051636eb1769f60e11b8152600090839082906001600160a01b0383169063dd62ed3e90611e899030907395e6f48254609a6ee006f7d493c8e5fb97094cef9060040161408e565b60206040518083038186803b158015611ea157600080fd5b505afa158015611eb5573d6000803e3d6000fd5b505050506040513d601f19601f82011682018060405250611ed99190810190613296565b905083811415611eee576001925050506109eb565b600084118015611efe5750600081115b15611f3257611f326001600160a01b0383167395e6f48254609a6ee006f7d493c8e5fb97094cef600063ffffffff6115b816565b610e866001600160a01b0383167395e6f48254609a6ee006f7d493c8e5fb97094cef8663ffffffff6115b816565b604051636eb1769f60e11b8152600090819073c02aaa39b223fe8d0a0e5c4f27ead9083c756cc29063dd62ed3e90611fb2903090731e0447b19bb6ecfdae1e4ae1694b0c3659614e4e9060040161408e565b60206040518083038186803b158015611fca57600080fd5b505afa158015611fde573d6000803e3d6000fd5b505050506040513d601f19601f820116820180604052506120029190810190613296565b9050828114156120165760019150506104f0565b6000831180156120265750600081115b156120cd5760405163095ea7b360e01b815273c02aaa39b223fe8d0a0e5c4f27ead9083c756cc29063095ea7b39061207990731e0447b19bb6ecfdae1e4ae1694b0c3659614e4e906000906004016140a9565b602060405180830381600087803b15801561209357600080fd5b505af11580156120a7573d6000803e3d6000fd5b505050506040513d601f19601f820116820180604052506120cb919081019061321e565b505b60405163095ea7b360e01b815273c02aaa39b223fe8d0a0e5c4f27ead9083c756cc29063095ea7b39061211a90731e0447b19bb6ecfdae1e4ae1694b0c3659614e4e9087906004016140c4565b602060405180830381600087803b15801561213457600080fd5b505af1158015612148573d6000803e3d6000fd5b505050506040513d601f19601f82011682018060405250610c29919081019061321e565b600061093283836040518060400160405280601e81526020017f536166654d6174683a207375627472616374696f6e206f766572666c6f77000081525061242e565b60ff82166121e0576121bf8161245a565b6121db5760405162461bcd60e51b81526004016103f690614255565b612242565b8160ff1660011415612211576121f58161264c565b6121db5760405162461bcd60e51b81526004016103f690614305565b8160ff16600214156104ba5761222681612719565b6121db5760405162461bcd60e51b81526004016103f6906142e5565b5050565b6001600160a01b03811661226c5760405162461bcd60e51b81526004016103f6906141a5565b600080546040516001600160a01b03808516939216917f8be0079c531659141344cd1fd0a4f28419497f9722a3daafe3b4186f6b6457e091a3600080546001600160a01b0319166001600160a01b0392909216919091179055565b6122d9826001600160a01b0316612840565b6122f55760405162461bcd60e51b81526004016103f690614345565b60006060836001600160a01b031683604051612311919061403e565b6000604051808303816000865af19150503d806000811461234e576040519150601f19603f3d011682016040523d82523d6000602084013e612353565b606091505b5091509150816123755760405162461bcd60e51b81526004016103f690614215565b8051156123ac5780806020019051612390919081019061321e565b6123ac5760405162461bcd60e51b81526004016103f6906142f5565b50505050565b6000826123c1575060006109eb565b828202828482816123ce57fe5b04146109325760405162461bcd60e51b81526004016103f690614275565b600061093283836040518060400160405280601a81526020017f536166654d6174683a206469766973696f6e206279207a65726f000000000000815250612879565b600081848411156124525760405162461bcd60e51b81526004016103f69190614144565b505050900390565b600080821161247b5760405162461bcd60e51b81526004016103f690614165565b612483612a73565b506040805180820182523081526000602082015281516001808252818401909352909160609190816020015b6124b7612a73565b8152602001906001900390816124af57905050905081816000815181106124da57fe5b60200260200101819052506124ed612a8a565b6040805160808101909152600080825260208201908152602001600081526020018690529050606061251d612ab3565b50604080516101008101825260018082526000602083018190528284018690526060808401829052608084018290523060a085015260c084019190915260e083018590528351828152808501909452919290816020015b61257c612ab3565b815260200190600190039081612574579050509050818160008151811061259f57fe5b602090810291909101015260405163a67a6a4560e01b8152731e0447b19bb6ecfdae1e4ae1694b0c3659614e4e9063a67a6a45906125e390889085906004016140df565b600060405180830381600087803b1580156125fd57600080fd5b505af1158015612611573d6000803e3d6000fd5b5050604051632e1a7d4d60e01b815273c02aaa39b223fe8d0a0e5c4f27ead9083c756cc29250632e1a7d4d91506118ad908b90600401614363565b600080821161266d5760405162461bcd60e51b81526004016103f6906141b5565b60405163852a12e360e01b8152600090734ddc2d193948926d02f9b1fe9e1daa0718270ed59063852a12e3906126a7908690600401614363565b602060405180830381600087803b1580156126c157600080fd5b505af11580156126d5573d6000803e3d6000fd5b505050506040513d601f19601f820116820180604052506126f99190810190613296565b905080156109e75760405162461bcd60e51b81526004016103f6906141c5565b600080821161273a5760405162461bcd60e51b81526004016103f690614165565b60405163368b567f60e11b815273eb7e15b4e38cbee57a98204d05999c3230d363489063d9caed129030908390636d16acfe9061278f9073eeeeeeeeeeeeeeeeeeeeeeeeeeeeeeeeeeeeeeee9060040161404a565b60206040518083038186803b1580156127a757600080fd5b505afa1580156127bb573d6000803e3d6000fd5b505050506040513d601f19601f820116820180604052506127df919081019061323c565b6127e8866128b0565b6040518463ffffffff1660e01b815260040161280693929190614066565b600060405180830381600087803b15801561282057600080fd5b505af1158015612834573d6000803e3d6000fd5b50600195945050505050565b6000813f7fc5d2460186f7233c927e7db2dcc703c0e500b653ca82273b7bfad8045d85a470818114801590611e34575050151592915050565b6000818361289a5760405162461bcd60e51b81526004016103f69190614144565b5060008385816128a657fe5b0495945050505050565b60405163368b567f60e11b8152600090819073eb7e15b4e38cbee57a98204d05999c3230d3634890636d16acfe906129009073eeeeeeeeeeeeeeeeeeeeeeeeeeeeeeeeeeeeeeee9060040161404a565b60206040518083038186803b15801561291857600080fd5b505afa15801561292c573d6000803e3d6000fd5b505050506040513d601f19601f82011682018060405250612950919081019061323c565b604051630736158d60e41b81529091506109329073eb7e15b4e38cbee57a98204d05999c3230d363489063736158d0906129a29073eeeeeeeeeeeeeeeeeeeeeeeeeeeeeeeeeeeeeeee9060040161404a565b60206040518083038186803b1580156129ba57600080fd5b505afa1580156129ce573d6000803e3d6000fd5b505050506040513d601f19601f820116820180604052506129f29190810190613296565b611c5f836001600160a01b03166318160ddd6040518163ffffffff1660e01b815260040160206040518083038186803b158015612a2e57600080fd5b505afa158015612a42573d6000803e3d6000fd5b505050506040513d601f19601f82011682018060405250612a669190810190613296565b869063ffffffff6123b216565b604080518082019091526000808252602082015290565b604080516080810190915260008082526020820190815260200160008152602001600081525090565b604080516101008101825260008082526020820152908101612ad3612a8a565b8152602001600081526020016000815260200160006001600160a01b0316815260200160008152602001606081525090565b60405180604001604052806002906020820280388339509192915050565b6040518060a0016040528060008152602001600081526020016000815260200160008152602001600081525090565b80356109eb816144cc565b80516109eb816144cc565b600082601f830112612b7957600080fd5b8151612b8c612b8782614398565b614371565b91508181835260208401935060208101905083856020840282011115612bb157600080fd5b60005b83811015612bdd5781612bc78882612b5d565b8452506020928301929190910190600101612bb4565b5050505092915050565b600082601f830112612bf857600080fd5b8135612c06612b8782614398565b81815260209384019390925082018360005b83811015612bdd5781358601612c2e8882612d90565b8452506020928301929190910190600101612c18565b600082601f830112612c5557600080fd5b8135612c63612b8782614398565b81815260209384019390925082018360005b83811015612bdd5781358601612c8b8882612e6d565b8452506020928301929190910190600101612c75565b600082601f830112612cb257600080fd5b8151612cc0612b8782614398565b91508181835260208401935060208101905083856040840282011115612ce557600080fd5b60005b83811015612bdd5781612cfb8882613012565b84525060209092019160409190910190600101612ce8565b600082601f830112612d2457600080fd5b8151612d32612b8782614398565b91508181835260208401935060208101905083856040840282011115612d5757600080fd5b60005b83811015612bdd5781612d6d8882613059565b84525060209092019160409190910190600101612d5a565b80516109eb816144e0565b600082601f830112612da157600080fd5b8135612daf612b87826143b9565b91508082526020830160208301858383011115612dcb57600080fd5b612dd6838284614476565b50505092915050565b80516109eb816144e9565b600060a08284031215612dfc57600080fd5b612e0660a0614371565b90506000612e1484846130aa565b8252506020612e25848483016130aa565b6020830152506040612e39848285016130aa565b6040830152506060612e4d848285016130aa565b6060830152506080612e61848285016130aa565b60808301525092915050565b60006101c08284031215612e8057600080fd5b612e8b6101c0614371565b90506000612e998484612b52565b8252506020612eaa84848301612b52565b6020830152506040612ebe84828501612b52565b6040830152506060612ed284828501612b52565b6060830152506080612ee68482850161309f565b60808301525060a0612efa8482850161309f565b60a08301525060c0612f0e8482850161309f565b60c08301525060e0612f228482850161309f565b60e083015250610100612f378482850161309f565b61010083015250610120612f4d8482850161309f565b6101208301525061014082013567ffffffffffffffff811115612f6f57600080fd5b612f7b84828501612d90565b6101408301525061016082013567ffffffffffffffff811115612f9d57600080fd5b612fa984828501612d90565b6101608301525061018082013567ffffffffffffffff811115612fcb57600080fd5b612fd784828501612d90565b610180830152506101a082013567ffffffffffffffff811115612ff957600080fd5b61300584828501612d90565b6101a08301525092915050565b60006040828403121561302457600080fd5b61302e6040614371565b9050600061303c8484612d85565b825250602061304d84848301613094565b60208301525092915050565b60006040828403121561306b57600080fd5b6130756040614371565b905060006130838484612d85565b825250602061304d848483016130aa565b80516109eb816144f2565b80356109eb816144fb565b80516109eb816144fb565b80356109eb81614504565b6000602082840312156130d257600080fd5b6000611e348484612b52565b600080604083850312156130f157600080fd5b60006130fd8585612b52565b925050602061310e8582860161309f565b9150509250929050565b60008060006060848603121561312d57600080fd5b835167ffffffffffffffff81111561314457600080fd5b61315086828701612b68565b935050602084015167ffffffffffffffff81111561316d57600080fd5b61317986828701612ca1565b925050604084015167ffffffffffffffff81111561319657600080fd5b6131a286828701612d13565b9150509250925092565b6000806000606084860312156131c157600080fd5b833567ffffffffffffffff8111156131d857600080fd5b6131e486828701612c44565b935050602084013567ffffffffffffffff81111561320157600080fd5b61320d86828701612be7565b92505060406131a28682870161309f565b60006020828403121561323057600080fd5b6000611e348484612d85565b60006020828403121561324e57600080fd5b6000611e348484612ddf565b600060a0828403121561326c57600080fd5b6000611e348484612dea565b60006020828403121561328a57600080fd5b6000611e34848461309f565b6000602082840312156132a857600080fd5b6000611e3484846130aa565b6000602082840312156132c657600080fd5b6000611e3484846130b5565b600080604083850312156132e557600080fd5b60006130fd85856130b5565b60008060006060848603121561330657600080fd5b600061331286866130b5565b935050602061320d8682870161309f565b60006109328383613534565b60006109328383613dea565b60006133478383613edf565b505060400190565b60006109328383613f03565b6133648161444a565b82525050565b613364816143f4565b600061337e826143e7565b61338881856143eb565b93508360208202850161339a856143e1565b8060005b858110156133d457848403895281516133b78582613323565b94506133c2836143e1565b60209a909a019992505060010161339e565b5091979650505050505050565b60006133ec826143e7565b6133f681856143eb565b935083602082028501613408856143e1565b8060005b858110156133d45784840389528151613425858261332f565b9450613430836143e1565b60209a909a019992505060010161340c565b600061344d826143e7565b61345781856143eb565b9350613462836143e1565b8060005b8381101561349057815161347a888261333b565b9750613485836143e1565b925050600101613466565b509495945050505050565b60006134a6826143e7565b6134b081856143eb565b9350836020820285016134c2856143e1565b8060005b858110156133d457848403895281516134df858261334f565b94506134ea836143e1565b60209a909a01999250506001016134c6565b613364816143ff565b6000613510826143e7565b61351a81856104f0565b935061352a818560208601614482565b9290920192915050565b600061353f826143e7565b61354981856143eb565b9350613559818560208601614482565b613562816144ae565b9093019392505050565b61336481614404565b61336481614455565b61336481614460565b6133648161446b565b600061359d601d836143eb565b7f43616c6c6572206973206e6f742074686520726562616c616e6365722e000000815260200192915050565b60006135d6601e836143eb565b7f416d6f756e74206d7573742062652067726561746572207468616e20302e0000815260200192915050565b600061360f6018836143eb565b7f5769746864726177616c20697320746f6f206c617267652e0000000000000000815260200192915050565b60006136486049836143eb565b7f546869732066756e6420636f6e74726f6c6c657220636f6e747261637420697381527f2064697361626c65642e2054686973206d61792062652064756520746f20616e602082015268103ab833b930b2329760b91b604082015260600192915050565b60006136b96036836143eb565b7f4174206c65617374206f6e65206f7264657220616e64206d61746368696e672081527539b4b3b730ba3ab9329034b9903932b8bab4b932b21760511b602082015260400192915050565b60006137116026836143eb565b7f4f776e61626c653a206e6577206f776e657220697320746865207a65726f206181526564647265737360d01b602082015260400192915050565b60006137596021836143eb565b7f416d6f756e74206d7573742062652067726561746572207468616e20746f20308152601760f91b602082015260400192915050565b600061379c604c836143eb565b7f4572726f722063616c6c696e672072656465656d556e6465726c79696e67206f81527f6e20436f6d706f756e642063546f6b656e3a206572726f7220636f6465206e6f60208201526b07420657175616c20746f20360a41b604082015260600192915050565b6000613810601b836143eb565b7f536166654d6174683a206164646974696f6e206f766572666c6f770000000000815260200192915050565b60006138496015836143eb565b74233ab7321030b63932b0b23c9032b730b13632b21760591b815260200192915050565b600061387a6017836143eb565b7f4465706f73697420746f2064596458206661696c65642e000000000000000000815260200192915050565b60006138b3601f836143eb565b7f43616c6c6572206973206e6f74207468652066756e64206d616e616765722e00815260200192915050565b60006138ec6020836143eb565b7f5361666545524332303a206c6f772d6c6576656c2063616c6c206661696c6564815260200192915050565b6000613925601b836143eb565b7f4465706f73697420746f20436f6d706f756e64206661696c65642e0000000000815260200192915050565b600061395e6011836143eb565b7020b6b7bab73a103a37b79039b6b0b6361760791b815260200192915050565b600061398b601d836143eb565b7f4465706f73697420746f204b65656570657244616f206661696c65642e000000815260200192915050565b60006139c4601c836143eb565b7f5769746864726177616c2066726f6d2064596458206661696c65642e00000000815260200192915050565b60006139fd6020836143eb565b7f417070726f76616c206f6620746f6b656e7320746f203078206661696c65642e815260200192915050565b6000613a366021836143eb565b7f536166654d6174683a206d756c7469706c69636174696f6e206f766572666c6f8152607760f81b602082015260400192915050565b6000613a796020836143eb565b7f4f776e61626c653a2063616c6c6572206973206e6f7420746865206f776e6572815260200192915050565b6000613ab26031836143eb565b7f4d69736d61746368206265747765656e206e756d626572206f66206f72646572815270399030b7321039b4b3b730ba3ab932b99760791b602082015260400192915050565b6000613b056020836143eb565b7f417070726f76616c206f66205745544820746f2064596458206661696c65642e815260200192915050565b6000613b3e6016836143eb565b75233ab7321030b63932b0b23c903234b9b0b13632b21760511b815260200192915050565b6000613b706042836143eb565b7f4572726f722063616c6c696e672072656465656d206f6e20436f6d706f756e6481527f2063546f6b656e3a206572726f7220636f6465206e6f7420657175616c20746f602082015261020360f41b604082015260600192915050565b6000613bda602f836143eb565b7f54616b65722061737365742066696c6c20616d6f756e74206d7573742062652081526e33b932b0ba32b9103a3430b710181760891b602082015260400192915050565b6000613c2b6022836143eb565b7f5769746864726177616c2066726f6d204b65656570657244616f206661696c65815261321760f11b602082015260400192915050565b6000613c6f602a836143eb565b7f5361666545524332303a204552433230206f7065726174696f6e20646964206e8152691bdd081cdd58d8d9595960b21b602082015260400192915050565b6000613cbb6020836143eb565b7f5769746864726177616c2066726f6d20436f6d706f756e64206661696c65642e815260200192915050565b6000613cf46021836143eb565b7f5769746864726177616c2066726f6d204b656570657244616f206661696c65648152601760f91b602082015260400192915050565b6000613d376036836143eb565b7f5361666545524332303a20617070726f76652066726f6d206e6f6e2d7a65726f81527520746f206e6f6e2d7a65726f20616c6c6f77616e636560501b602082015260400192915050565b6000613d8f6013836143eb565b7224b73b30b634b2103837b7b61034b73232bc1760691b815260200192915050565b6000613dbe601f836143eb565b7f5361666545524332303a2063616c6c20746f206e6f6e2d636f6e747261637400815260200192915050565b8051600090610160840190613dff8582613575565b506020830151613e126020860182614035565b506040830151613e256040860182613e95565b506060830151613e3860c0860182614035565b506080830151613e4b60e0860182614035565b5060a0830151613e5f61010086018261336a565b5060c0830151613e73610120860182614035565b5060e0830151848203610140860152613e8c8282613534565b95945050505050565b80516080830190613ea684826134fc565b506020820151613eb9602085018261357e565b506040820151613ecc604085018261357e565b5060608201516123ac6060850182614035565b80516040830190613ef0848261336a565b5060208201516123ac6020850182614035565b80516000906101c0840190613f18858261336a565b506020830151613f2b602086018261336a565b506040830151613f3e604086018261336a565b506060830151613f51606086018261336a565b506080830151613f646080860182614035565b5060a0830151613f7760a0860182614035565b5060c0830151613f8a60c0860182614035565b5060e0830151613f9d60e0860182614035565b50610100830151613fb2610100860182614035565b50610120830151613fc7610120860182614035565b50610140830151848203610140860152613fe18282613534565b915050610160830151848203610160860152613ffd8282613534565b9150506101808301518482036101808601526140198282613534565b9150506101a08301518482036101a0860152613e8c8282613534565b61336481610557565b60006109328284613505565b602081016109eb828461336a565b602081016109eb828461335b565b60608101614074828661336a565b614081602083018561356c565b611e346040830184614035565b6040810161409c828561336a565b610932602083018461336a565b604081016140b7828561336a565b6109326020830184613587565b604081016140d2828561336a565b6109326020830184614035565b604080825281016140f08185613442565b90508181036020830152611e3481846133e1565b60608082528101614115818661349b565b90506141246020830185614035565b8181036040830152613e8c8184613373565b602081016109eb82846134fc565b602080825281016109328184613534565b602080825281016109eb81613590565b602080825281016109eb816135c9565b602080825281016109eb81613602565b602080825281016109eb8161363b565b602080825281016109eb816136ac565b602080825281016109eb81613704565b602080825281016109eb8161374c565b602080825281016109eb8161378f565b602080825281016109eb81613803565b602080825281016109eb8161383c565b602080825281016109eb8161386d565b602080825281016109eb816138a6565b602080825281016109eb816138df565b602080825281016109eb81613918565b602080825281016109eb81613951565b602080825281016109eb8161397e565b602080825281016109eb816139b7565b602080825281016109eb816139f0565b602080825281016109eb81613a29565b602080825281016109eb81613a6c565b602080825281016109eb81613aa5565b602080825281016109eb81613af8565b602080825281016109eb81613b31565b602080825281016109eb81613b63565b602080825281016109eb81613bcd565b602080825281016109eb81613c1e565b602080825281016109eb81613c62565b602080825281016109eb81613cae565b602080825281016109eb81613ce7565b602080825281016109eb81613d2a565b602080825281016109eb81613d82565b602080825281016109eb81613db1565b604081016109eb8284613edf565b602081016109eb8284614035565b60405181810167ffffffffffffffff8111828210171561439057600080fd5b604052919050565b600067ffffffffffffffff8211156143af57600080fd5b5060209081020190565b600067ffffffffffffffff8211156143d057600080fd5b506020601f91909101601f19160190565b60200190565b5190565b90815260200190565b60006109eb82614438565b151590565b60006109eb826143f4565b806104f0816144b8565b806104f0816144c2565b6fffffffffffffffffffffffffffffffff1690565b6001600160a01b031690565b60ff1690565b60006109eb82614404565b60006109eb8261440f565b60006109eb82614419565b60006109eb82610557565b82818337506000910152565b60005b8381101561449d578181015183820152602001614485565b838111156123ac5750506000910152565b601f01601f191690565b60098110610fd557fe5b60028110610fd557fe5b6144d5816143f4565b8114610fd557600080fd5b6144d5816143ff565b6144d581614404565b6144d581614423565b6144d581610557565b6144d58161444456fea365627a7a72315820d3700484f838688dfc2698efeb9bc4e88e26f218a1a2c0d5dfaa6507d1089b356c6578706572696d656e74616cf564736f6c63430005110040",
  "source": "/**\n * @file\n * @author David Lucid <david@rari.capital>\n *\n * @section LICENSE\n *\n * All rights reserved to David Lucid of David Lucid LLC.\n * Any disclosure, reproduction, distribution or other use of this code by any individual or entity other than David Lucid of David Lucid LLC, unless given explicit permission by David Lucid of David Lucid LLC, is prohibited.\n *\n * @section DESCRIPTION\n *\n * This file includes the Ethereum contract code for RariFundController, our library handling deposits to and withdrawals from the liquidity pools that power RariFund as well as currency exchanges via 0x.\n */\n\npragma solidity ^0.5.7;\npragma experimental ABIEncoderV2;\n\nimport \"@openzeppelin/contracts/math/SafeMath.sol\";\nimport \"@openzeppelin/contracts/drafts/SignedSafeMath.sol\";\nimport \"@openzeppelin/contracts/ownership/Ownable.sol\";\nimport \"@openzeppelin/contracts/token/ERC20/IERC20.sol\";\nimport \"@openzeppelin/contracts/token/ERC20/SafeERC20.sol\";\n\nimport \"@0x/contracts-exchange-libs/contracts/src/LibOrder.sol\";\n\nimport \"./lib/pools/DydxPoolController.sol\";\nimport \"./lib/pools/CompoundPoolController.sol\";\nimport \"./lib/pools/KeeperDaoPoolController.sol\";\nimport \"./lib/exchanges/ZeroExExchangeController.sol\";\n\n/**\n * @title RariFundController\n * @dev This contract handles deposits to and withdrawals from the liquidity pools that power RariFund as well as currency exchanges via 0x.\n */\ncontract RariFundController is Ownable {\n    using SafeMath for uint256;\n    using SignedSafeMath for int256;\n    using SafeERC20 for IERC20;\n\n    /**\n     * @dev Boolean that, if true, disables the primary functionality of this RariFundController.\n     */\n    bool private _fundDisabled;\n\n    /**\n     * @dev Address of the RariFundManager.\n     */\n    address payable private _rariFundManagerContract;\n\n    /**\n     * @dev Address of the rebalancer.\n     */\n    address private _rariFundRebalancerAddress;\n\n    /**\n     * @dev Maps arrays of supported pools to currency codes.\n     */\n    uint8[] private _supportedPools;\n\n\n    address constant private WETH_CONTRACT = 0xC02aaA39b223FE8D0A0e5C4F27eAD9083C756Cc2;\n\n    /**\n     * @dev Caches the balances for each pool, with the sum cached at the end\n     */\n    uint256[] private _cachedBalances;\n\n    /**\n     * @dev Constructor that sets supported ERC20 token contract addresses and supported pools for each supported token.\n     */\n    constructor () public {\n        // Add supported pools\n        addPool(0); // dydx\n        addPool(1); // compound\n        addPool(2); // keeperdao\n    }\n\n    /**\n     * @dev Initializes the balance cache, pushing a value for each pool and then the sum of them all.\n     */\n     /*\n    function initBalanceCache() internal {\n        for (uint8 i = 0; i < _supportedPools.length; i++) {\n            _cachedBalances.push(0);\n        }\n\n        _cachedBalances.push(0); // Cached total balance;\n\n        return true;\n    }\n    */\n\n    /**\n     * @dev Adds a supported pool for a token.\n     * @param pool Pool ID to be supported.\n     */\n    function addPool(uint8 pool) internal {\n        _supportedPools.push(pool);\n    }\n\n    /**\n     * @dev Payable fallback function called by 0x exchange to refund unspent protocol fee.\n     */\n    function () external payable {\n        // should deposit here\n    }\n\n    /**\n     * @dev Emitted when the RariFundManager of the RariFundController is set.\n     */\n    event FundManagerSet(address newAddress);\n\n    /**\n     * @dev Sets or upgrades the RariFundManager of the RariFundController.\n     * @param newContract The address of the new RariFundManager contract.\n     */\n    function setFundManager(address payable newContract) external onlyOwner {\n        IERC20 weth = IERC20(WETH_CONTRACT);\n        if (_rariFundManagerContract != address(0)) weth.safeApprove(_rariFundManagerContract, 0);\n        if (newContract != address(0)) weth.safeApprove(newContract, uint256(-1));\n        _rariFundManagerContract = newContract;\n        emit FundManagerSet(newContract);\n    }\n\n    /**\n     * @dev Throws if called by any account other than the RariFundManager.\n     */\n    modifier onlyManager() {\n        require(_rariFundManagerContract == msg.sender, \"Caller is not the fund manager.\");\n        _;\n    }\n\n    /**\n     * @dev Emitted when the rebalancer of the RariFundController is set.\n     */\n    event FundRebalancerSet(address newAddress);\n\n    /**\n     * @dev Sets or upgrades the rebalancer of the RariFundController.\n     * @param newAddress The Ethereum address of the new rebalancer server.\n     */\n    function setFundRebalancer(address newAddress) external onlyOwner {\n        _rariFundRebalancerAddress = newAddress;\n        emit FundRebalancerSet(newAddress);\n    }\n\n    /**\n     * @dev Throws if called by any account other than the rebalancer.\n     */\n    modifier onlyRebalancer() {\n        require(_rariFundRebalancerAddress == msg.sender, \"Caller is not the rebalancer.\");\n        _;\n    }\n\n    /**\n     * @dev Emitted when the primary functionality of this RariFundController contract has been disabled.\n     */\n    event FundDisabled();\n\n    /**\n     * @dev Emitted when the primary functionality of this RariFundController contract has been enabled.\n     */\n    event FundEnabled();\n\n    /**\n     * @dev Disables primary functionality of this RariFundController so contract(s) can be upgraded.\n     */\n    function disableFund() external onlyOwner {\n        require(!_fundDisabled, \"Fund already disabled.\");\n        _fundDisabled = true;\n        emit FundDisabled();\n    }\n\n    /**\n     * @dev Enables primary functionality of this RariFundController once contract(s) are upgraded.\n     */\n    function enableFund() external onlyOwner {\n        require(_fundDisabled, \"Fund already enabled.\");\n        _fundDisabled = false;\n        emit FundEnabled();\n    }\n\n    /**\n     * @dev Throws if fund is disabled.\n     */\n    modifier fundEnabled() {\n        require(!_fundDisabled, \"This fund controller contract is disabled. This may be due to an upgrade.\");\n        _;\n    }\n\n    /**\n     * @dev Returns the balances of all currencies supported by dYdX.\n     * @return An array of ERC20 token contract addresses and a corresponding array of balances.\n     \n    function getDydxBalances() external view returns (address[] memory, uint256[] memory) {\n        return DydxPoolController.getBalances();\n    }\n    */\n\n    /**\n     * @dev Returns the fund controller's balance of the specified currency in the specified pool.\n     * @dev Ideally, we can add the view modifier, but Compound's `getUnderlyingBalance` function (called by `CompoundPoolController.getBalance`) potentially modifies the state.\n     * @param pool The index of the pool.\n     */\n    function _getPoolBalance(uint8 pool) public returns (uint256) {\n        if (pool == 0) return DydxPoolController.getBalance();\n        else if (pool == 1) return CompoundPoolController.getBalance();\n        else if (pool == 2) return KeeperDaoPoolController.getBalance();\n        else revert(\"Invalid pool index.\");\n    }\n\n    /**\n     * @dev Returns the fund controller's balance of the specified currency in the specified pool.\n     * @dev Ideally, we can add the view modifier, but Compound's `getUnderlyingBalance` function (called by `CompoundPoolController.getBalance`) potentially modifies the state.\n     * @param pool The index of the pool.\n     */\n    function getPoolBalance(uint8 pool) public returns (uint256) {\n        if (!_poolsWithFunds[pool]) return 0;\n        return _getPoolBalance(pool);\n    }\n\n    /**\n     * @notice Returns the fund controller's balance of each pool of the specified currency.\n     * @dev Ideally, we can add the view modifier, but Compound's `getUnderlyingBalance` function (called by `getPoolBalance`) potentially modifies the state.\n     * @return An array of pool indexes and an array of corresponding balances.\n     */\n    function getEntireBalance() public returns (uint256) {\n        uint256 sum = address(this).balance; // start with immediate eth balance\n        for (uint256 i = 0; i < _supportedPools.length; i++) {\n            sum = getPoolBalance(_supportedPools[i]).add(sum);\n        }\n        // if (cache) cachedTotalBalance = sum;\n        return sum;\n    }\n\n\n    /**\n     * @dev Approves tokens to the specified pool without spending gas on every deposit.\n     * @param amount The amount of tokens to be approved.\n     * @return Boolean indicating success.\n     */\n    function approveWethToDydxPool(uint256 amount) external fundEnabled onlyRebalancer returns (bool) {\n        require(DydxPoolController.approve(amount), \"Approval of WETH to dYdX failed.\");\n        // We don't need approval from Compound if we're working with ETH\n        // else if (pool == 1) require(CompoundPoolController.approve(erc20Contract, amount), \"Approval of tokens to Compound failed.\");\n        // else revert(\"Invalid pool index.\");\n        return true;\n    }\n\n    /**\n     * @dev Mapping of bools indicating the presence of funds to pools.\n     */\n    mapping(uint8 => bool) _poolsWithFunds;\n\n    /**\n     * @dev Return a boolean indicating if the fund controller has funds in `currencyCode` in `pool`.\n     * @param pool The index of the pool to check.\n     */\n    function hasETHInPool(uint8 pool) external view returns (bool) {\n        return _poolsWithFunds[pool];\n    }\n\n    /**\n     * @dev Deposits funds to the specified pool.\n     * @param pool The index of the pool.\n     * @return Boolean indicating success.\n     */\n    function depositToPool(uint8 pool) payable external fundEnabled   returns (bool) {\n        require(msg.value > 0, \"Amount too small.\");\n        if (pool == 0) require(DydxPoolController.deposit(msg.value), \"Deposit to dYdX failed.\");\n        else if (pool == 1) require(CompoundPoolController.deposit(msg.value), \"Deposit to Compound failed.\");\n        else if (pool == 2) require(KeeperDaoPoolController.deposit(msg.value), \"Deposit to KeeeperDao failed.\");\n        else revert(\"Invalid pool index.\");\n        _poolsWithFunds[pool] = true; \n        return true;\n    }\n\n    /**\n     * @dev Internal function to withdraw funds from the specified pool.\n     * @param pool The index of the pool.\n     * @param amount The amount of tokens to be withdrawn.\n     */\n    function _withdrawFromPool(uint8 pool, uint256 amount) internal {\n        if (pool == 0) require(DydxPoolController.withdraw(amount), \"Withdrawal from dYdX failed.\");\n        else if (pool == 1) require(CompoundPoolController.withdraw(amount), \"Withdrawal from Compound failed.\");\n        else if (pool == 2) require(KeeperDaoPoolController.withdraw(amount), \"Withdrawal from KeeeperDao failed.\");\n        else revert(\"Invalid pool index.\");\n    }\n\n    /**\n     * @dev Withdraws funds from the specified pool.\n     * @param pool The index of the pool.\n     * @param amount The amount of tokens to be withdrawn.\n     * @return Boolean indicating success.\n     */\n    function withdrawFromPool(uint8 pool, uint256 amount) external fundEnabled onlyRebalancer returns (bool) {\n        _withdrawFromPool(pool, amount);\n        _poolsWithFunds[pool] = _getPoolBalance(pool) > 0;\n        return true;\n    }\n\n    /**\n     * @dev Withdraws funds from the specified pool (caching the `initialBalance` parameter).\n     * @param pool The index of the pool.\n     * @param amount The amount of tokens to be withdrawn.\n     * @param initialBalance The fund's balance of the specified currency in the specified pool before the withdrawal.\n     * @return Boolean indicating success.\n     */\n    function withdrawFromPoolKnowingBalance(uint8 pool, uint256 amount, uint256 initialBalance) external fundEnabled onlyManager returns (bool) {\n        _withdrawFromPool(pool, amount);\n        if (amount == initialBalance) _poolsWithFunds[pool] = false;\n        return true;\n    }\n\n    /**\n     * @dev Withdraws funds from the specified pool and sends it to RariFundManager (caching the `initialBalance` parameter).\n     * @param pool The index of the pool.\n     * @param amount The amount of ETH to be withdrawn.\n     * @param initialBalance The fund's balance of the specified currency in the specified pool before the withdrawal.\n     * @return Boolean indicating success.\n     */\n    function withdrawFromPoolKnowingBalanceToManager(uint8 pool, uint256 amount, uint256 initialBalance) external fundEnabled onlyManager returns (bool) {\n        _withdrawFromPool(pool, amount);\n        if (amount == initialBalance) _poolsWithFunds[pool] = false;\n        _rariFundManagerContract.transfer(amount); // Send funds to manager\n        return true;\n    }\n\n    /**\n     * @dev Withdraws all funds from the specified pool.\n     * @param pool The index of the pool.\n     * @return Boolean indicating success.\n     */\n    function withdrawAllFromPool(uint8 pool) external fundEnabled onlyRebalancer returns (bool) {\n        if (pool == 0) require(DydxPoolController.withdrawAll(), \"Withdrawal from dYdX failed.\");\n        else if (pool == 1) require(CompoundPoolController.withdrawAll(), \"Withdrawal from Compound failed.\");\n        else if (pool == 2) require(KeeperDaoPoolController.withdrawAll(), \"Withdrawal from KeeperDao failed.\");\n        else revert(\"Invalid pool index.\");\n        _poolsWithFunds[pool] = false;\n        return true;\n    }\n\n    /**\n     * @dev Withdraws all funds from the specified pool (without requiring the fund to be enabled).\n     * @param pool The index of the pool.\n     * @return Boolean indicating success.\n     */\n    function withdrawAllFromPoolOnUpgrade(uint8 pool) external onlyManager returns (bool) {\n        if (pool == 0) require(DydxPoolController.withdrawAll(), \"Withdrawal from dYdX failed.\");\n        else if (pool == 1) require(CompoundPoolController.withdrawAll(), \"Withdrawal from Compound failed.\");\n        else if (pool == 2) require(KeeperDaoPoolController.withdrawAll(), \"Withdrawal from KeeperDao failed.\");\n        else revert(\"Invalid pool index.\");\n        _rariFundManagerContract.transfer(address(this).balance); // Transfer all ETH to RariFundManager for further processing\n        _poolsWithFunds[pool] = false;\n        return true;\n    }\n\n\n    /**\n     * @dev Withdraws ETH and sends amount to the manager.\n     * @param amount Amount of ETH to withdraw.\n     * @return Boolean indicating success.\n     */\n    function withdrawToManager(uint256 amount) external onlyManager returns (bool) {\n        require(amount < getEntireBalance(), \"Withdrawal is too large.\");\n        uint256 immediateBalance = address(this).balance;\n\n        if (immediateBalance >= amount) {\n            _rariFundManagerContract.transfer(amount);\n            return true;\n        }\n\n        for (uint256 i = 0; i < _supportedPools.length; i++) {\n            if (immediateBalance >= amount) break;\n\n            uint256 poolBalance = _getPoolBalance(_supportedPools[i]);\n            if (poolBalance <= 0) continue;\n            uint256 amountLeft = amount.sub(immediateBalance);\n            uint256 poolAmount = amountLeft < poolBalance ? amountLeft : poolBalance;\n            _withdrawFromPool(_supportedPools[i], poolAmount);\n            immediateBalance = immediateBalance.add(poolAmount);\n        }\n\n        _rariFundManagerContract.transfer(amount);\n\n        return true;\n    }\n\n    /**\n     * @dev Approves tokens to 0x without spending gas on every deposit.\n     * @param erc20Contract The ERC20 contract address of the token to be approved.\n     * @param amount The amount of tokens to be approved.\n     * @return Boolean indicating success.\n     */\n    function approveTo0x(address erc20Contract, uint256 amount) external fundEnabled onlyRebalancer returns (bool) {\n        // COMP only\n        // require(erc20Contract == )\n        require(ZeroExExchangeController.approve(erc20Contract, amount), \"Approval of tokens to 0x failed.\");\n        return true;\n    }\n\n    /**\n     * @dev Market sell to 0x exchange orders (reverting if `takerAssetFillAmount` is not filled).\n     * We should be able to make this function external and use calldata for all parameters, but Solidity does not support calldata structs (https://github.com/ethereum/solidity/issues/5479).\n     * @param orders The limit orders to be filled in ascending order of price.\n     * @param signatures The signatures for the orders.\n     * @param takerAssetFillAmount The amount of the taker asset to sell (excluding taker fees).\n     * @return Boolean indicating success.\n     */\n    function marketSell0xOrdersFillOrKill(LibOrder.Order[] memory orders, bytes[] memory signatures, uint256 takerAssetFillAmount) public payable fundEnabled onlyRebalancer returns (bool) {\n        ZeroExExchangeController.marketSellOrdersFillOrKill(orders, signatures, takerAssetFillAmount, msg.value);\n        uint256 ethBalance = address(this).balance;\n        if (ethBalance > 0) msg.sender.transfer(ethBalance);\n        return true;\n    }\n}\n",
  "sourcePath": "/Users/richter/Projects/Cloud/rari-work/rari-eth-contracts/contracts/RariFundController.sol",
  "compiler": {
    "name": "solc",
    "version": "0.5.17+commit.d19bba13.Emscripten.clang"
  },
  "schemaVersion": "3.2.3",
  "updatedAt": "2020-09-30T02:14:03.856Z",
  "devdoc": {
    "details": "This contract handles deposits to and withdrawals from the liquidity pools that power RariFund as well as currency exchanges via 0x.",
    "methods": {
      "_getPoolBalance(uint8)": {
        "details": "Returns the fund controller's balance of the specified currency in the specified pool.Ideally, we can add the view modifier, but Compound's `getUnderlyingBalance` function (called by `CompoundPoolController.getBalance`) potentially modifies the state.",
        "params": {
          "pool": "The index of the pool."
        }
      },
      "approveTo0x(address,uint256)": {
        "details": "Approves tokens to 0x without spending gas on every deposit.",
        "params": {
          "amount": "The amount of tokens to be approved.",
          "erc20Contract": "The ERC20 contract address of the token to be approved."
        },
        "return": "Boolean indicating success."
      },
      "approveWethToDydxPool(uint256)": {
        "details": "Approves tokens to the specified pool without spending gas on every deposit.",
        "params": {
          "amount": "The amount of tokens to be approved."
        },
        "return": "Boolean indicating success."
      },
      "constructor": {
        "details": "Constructor that sets supported ERC20 token contract addresses and supported pools for each supported token."
      },
      "depositToPool(uint8)": {
        "details": "Deposits funds to the specified pool.",
        "params": {
          "pool": "The index of the pool."
        },
        "return": "Boolean indicating success."
      },
      "disableFund()": {
        "details": "Disables primary functionality of this RariFundController so contract(s) can be upgraded."
      },
      "enableFund()": {
        "details": "Enables primary functionality of this RariFundController once contract(s) are upgraded."
      },
      "getEntireBalance()": {
        "details": "Ideally, we can add the view modifier, but Compound's `getUnderlyingBalance` function (called by `getPoolBalance`) potentially modifies the state.",
        "return": "An array of pool indexes and an array of corresponding balances."
      },
      "getPoolBalance(uint8)": {
        "details": "Returns the fund controller's balance of the specified currency in the specified pool.Ideally, we can add the view modifier, but Compound's `getUnderlyingBalance` function (called by `CompoundPoolController.getBalance`) potentially modifies the state.",
        "params": {
          "pool": "The index of the pool."
        }
      },
      "hasETHInPool(uint8)": {
        "details": "Return a boolean indicating if the fund controller has funds in `currencyCode` in `pool`.",
        "params": {
          "pool": "The index of the pool to check."
        }
      },
      "isOwner()": {
        "details": "Returns true if the caller is the current owner."
      },
      "marketSell0xOrdersFillOrKill((address,address,address,address,uint256,uint256,uint256,uint256,uint256,uint256,bytes,bytes,bytes,bytes)[],bytes[],uint256)": {
        "details": "Market sell to 0x exchange orders (reverting if `takerAssetFillAmount` is not filled). We should be able to make this function external and use calldata for all parameters, but Solidity does not support calldata structs (https://github.com/ethereum/solidity/issues/5479).",
        "params": {
          "orders": "The limit orders to be filled in ascending order of price.",
          "signatures": "The signatures for the orders.",
          "takerAssetFillAmount": "The amount of the taker asset to sell (excluding taker fees)."
        },
        "return": "Boolean indicating success."
      },
      "owner()": {
        "details": "Returns the address of the current owner."
      },
      "renounceOwnership()": {
        "details": "Leaves the contract without owner. It will not be possible to call `onlyOwner` functions anymore. Can only be called by the current owner.     * NOTE: Renouncing ownership will leave the contract without an owner, thereby removing any functionality that is only available to the owner."
      },
      "setFundManager(address)": {
        "details": "Sets or upgrades the RariFundManager of the RariFundController.",
        "params": {
          "newContract": "The address of the new RariFundManager contract."
        }
      },
      "setFundRebalancer(address)": {
        "details": "Sets or upgrades the rebalancer of the RariFundController.",
        "params": {
          "newAddress": "The Ethereum address of the new rebalancer server."
        }
      },
      "transferOwnership(address)": {
        "details": "Transfers ownership of the contract to a new account (`newOwner`). Can only be called by the current owner."
      },
      "withdrawAllFromPool(uint8)": {
        "details": "Withdraws all funds from the specified pool.",
        "params": {
          "pool": "The index of the pool."
        },
        "return": "Boolean indicating success."
      },
      "withdrawAllFromPoolOnUpgrade(uint8)": {
        "details": "Withdraws all funds from the specified pool (without requiring the fund to be enabled).",
        "params": {
          "pool": "The index of the pool."
        },
        "return": "Boolean indicating success."
      },
      "withdrawFromPool(uint8,uint256)": {
        "details": "Withdraws funds from the specified pool.",
        "params": {
          "amount": "The amount of tokens to be withdrawn.",
          "pool": "The index of the pool."
        },
        "return": "Boolean indicating success."
      },
      "withdrawFromPoolKnowingBalance(uint8,uint256,uint256)": {
        "details": "Withdraws funds from the specified pool (caching the `initialBalance` parameter).",
        "params": {
          "amount": "The amount of tokens to be withdrawn.",
          "initialBalance": "The fund's balance of the specified currency in the specified pool before the withdrawal.",
          "pool": "The index of the pool."
        },
        "return": "Boolean indicating success."
      },
      "withdrawFromPoolKnowingBalanceToManager(uint8,uint256,uint256)": {
        "details": "Withdraws funds from the specified pool and sends it to RariFundManager (caching the `initialBalance` parameter).",
        "params": {
          "amount": "The amount of ETH to be withdrawn.",
          "initialBalance": "The fund's balance of the specified currency in the specified pool before the withdrawal.",
          "pool": "The index of the pool."
        },
        "return": "Boolean indicating success."
      },
      "withdrawToManager(uint256)": {
        "details": "Withdraws ETH and sends amount to the manager.",
        "params": {
          "amount": "Amount of ETH to withdraw."
        },
        "return": "Boolean indicating success."
      }
    },
    "title": "RariFundController"
  },
  "userdoc": {
    "methods": {
      "getEntireBalance()": {
        "notice": "Returns the fund controller's balance of each pool of the specified currency."
      }
    }
  }
}